{"contracts/lotteryGame.sol":{"lotteryGame":{"abi":[{"inputs":[{"internalType":"address","name":"vrfCoordinator","type":"address"},{"internalType":"bytes32","name":"_keyHash","type":"bytes32"},{"internalType":"uint64","name":"subscriptionId","type":"uint64"}],"stateMutability":"nonpayable","type":"constructor"},{"inputs":[{"internalType":"address","name":"have","type":"address"},{"internalType":"address","name":"want","type":"address"}],"name":"OnlyCoordinatorCanFulfill","type":"error"},{"anonymous":false,"inputs":[],"name":"RewardsDistributed","type":"event"},{"anonymous":false,"inputs":[{"indexed":true,"internalType":"address","name":"player","type":"address"}],"name":"TicketPurchased","type":"event"},{"anonymous":false,"inputs":[{"indexed":false,"internalType":"uint8[7]","name":"winningNumbers","type":"uint8[7]"}],"name":"WinnerNumbersGenerated","type":"event"},{"inputs":[],"name":"ENTRY_FEE","outputs":[{"internalType":"uint256","name":"","type":"uint256"}],"stateMutability":"view","type":"function"},{"inputs":[{"internalType":"uint8[7]","name":"_numbers","type":"uint8[7]"}],"name":"buyTicket","outputs":[],"stateMutability":"payable","type":"function"},{"inputs":[],"name":"lotteryOpen","outputs":[{"internalType":"bool","name":"","type":"bool"}],"stateMutability":"view","type":"function"},{"inputs":[],"name":"owner","outputs":[{"internalType":"address","name":"","type":"address"}],"stateMutability":"view","type":"function"},{"inputs":[{"internalType":"uint256","name":"requestId","type":"uint256"},{"internalType":"uint256[]","name":"randomWords","type":"uint256[]"}],"name":"rawFulfillRandomWords","outputs":[],"stateMutability":"nonpayable","type":"function"},{"inputs":[],"name":"reopenLottery","outputs":[],"stateMutability":"nonpayable","type":"function"},{"inputs":[],"name":"requestWinningNumbers","outputs":[],"stateMutability":"nonpayable","type":"function"},{"inputs":[],"name":"rolloverPool","outputs":[{"internalType":"uint256","name":"","type":"uint256"}],"stateMutability":"view","type":"function"},{"inputs":[],"name":"s_requestId","outputs":[{"internalType":"uint256","name":"","type":"uint256"}],"stateMutability":"view","type":"function"},{"inputs":[{"internalType":"uint256","name":"","type":"uint256"}],"name":"tickets","outputs":[{"internalType":"address","name":"player","type":"address"}],"stateMutability":"view","type":"function"},{"inputs":[{"internalType":"uint256","name":"","type":"uint256"}],"name":"winningNumbers","outputs":[{"internalType":"uint8","name":"","type":"uint8"}],"stateMutability":"view","type":"function"},{"stateMutability":"payable","type":"receive"}],"evm":{"bytecode":{"linkReferences":{},"object":"60a060405262030d40600760006101000a81548163ffffffff021916908363ffffffff1602179055506003600760046101000a81548161ffff021916908361ffff16021790555060078060066101000a81548163ffffffff021916908363ffffffff1602179055503480156200007457600080fd5b50604051620029b5380380620029b583398181016040528101906200009a91906200028f565b828073ffffffffffffffffffffffffffffffffffffffff1660808173ffffffffffffffffffffffffffffffffffffffff168152505050336000806101000a81548173ffffffffffffffffffffffffffffffffffffffff021916908373ffffffffffffffffffffffffffffffffffffffff1602179055506001600260006101000a81548160ff02191690831515021790555082600560006101000a81548173ffffffffffffffffffffffffffffffffffffffff021916908373ffffffffffffffffffffffffffffffffffffffff1602179055508160068190555080600560146101000a81548167ffffffffffffffff021916908367ffffffffffffffff160217905550505050620002eb565b600080fd5b600073ffffffffffffffffffffffffffffffffffffffff82169050919050565b6000620001d782620001aa565b9050919050565b620001e981620001ca565b8114620001f557600080fd5b50565b6000815190506200020981620001de565b92915050565b6000819050919050565b62000224816200020f565b81146200023057600080fd5b50565b600081519050620002448162000219565b92915050565b600067ffffffffffffffff82169050919050565b62000269816200024a565b81146200027557600080fd5b50565b60008151905062000289816200025e565b92915050565b600080600060608486031215620002ab57620002aa620001a5565b5b6000620002bb86828701620001f8565b9350506020620002ce8682870162000233565b9250506040620002e18682870162000278565b9150509250925092565b6080516126a76200030e6000396000818161036d01526103c101526126a76000f3fe6080604052600436106100a05760003560e01c806350b447121161006457806350b44712146101705780638da5cb5b146101ad578063afbc25f5146101d8578063c60c4ae9146101ef578063e89e106a1461021a578063f6d361cc14610245576100a7565b80630a7a7da6146100ac5780631fe543e3146100c357806339e7397b146100ec5780633c51c7bb146101085780634e45f09514610133576100a7565b366100a757005b600080fd5b3480156100b857600080fd5b506100c1610270565b005b3480156100cf57600080fd5b506100ea60048036038101906100e59190611152565b61036b565b005b61010660048036038101906101019190611298565b61042b565b005b34801561011457600080fd5b5061011d610662565b60405161012a91906112d4565b60405180910390f35b34801561013f57600080fd5b5061015a600480360381019061015591906112ef565b610668565b604051610167919061132b565b60405180910390f35b34801561017c57600080fd5b50610197600480360381019061019291906112ef565b610692565b6040516101a49190611387565b60405180910390f35b3480156101b957600080fd5b506101c26106e0565b6040516101cf9190611387565b60405180910390f35b3480156101e457600080fd5b506101ed610704565b005b3480156101fb57600080fd5b506102046108db565b60405161021191906113bd565b60405180910390f35b34801561022657600080fd5b5061022f6108ee565b60405161023c91906112d4565b60405180910390f35b34801561025157600080fd5b5061025a6108f4565b60405161026791906112d4565b60405180910390f35b60008054906101000a900473ffffffffffffffffffffffffffffffffffffffff1673ffffffffffffffffffffffffffffffffffffffff163373ffffffffffffffffffffffffffffffffffffffff16146102fe576040517f08c379a00000000000000000000000000000000000000000000000000000000081526004016102f590611435565b60405180910390fd5b600260009054906101000a900460ff161561034e576040517f08c379a0000000000000000000000000000000000000000000000000000000008152600401610345906114a1565b60405180910390fd5b6001600260006101000a81548160ff021916908315150217905550565b7f000000000000000000000000000000000000000000000000000000000000000073ffffffffffffffffffffffffffffffffffffffff163373ffffffffffffffffffffffffffffffffffffffff161461041d57337f00000000000000000000000000000000000000000000000000000000000000006040517f1cf993f40000000000000000000000000000000000000000000000000000000081526004016104149291906114c1565b60405180910390fd5b61042782826108fc565b5050565b600260009054906101000a900460ff1661047a576040517f08c379a000000000000000000000000000000000000000000000000000000000815260040161047190611536565b60405180910390fd5b637735940034146104c0576040517f08c379a00000000000000000000000000000000000000000000000000000000081526004016104b7906115a2565b60405180910390fd5b60005b60078110156105645760018282600781106104e1576104e06115c2565b5b602002015160ff16101580156105125750602f828260078110610507576105066115c2565b5b602002015160ff1611155b610551576040517f08c379a00000000000000000000000000000000000000000000000000000000081526004016105489061163d565b60405180910390fd5b808061055c9061168c565b9150506104c3565b50600460405180604001604052803373ffffffffffffffffffffffffffffffffffffffff16815260200183815250908060018154018082558091505060019003906000526020600020906002020160009091909190915060008201518160000160006101000a81548173ffffffffffffffffffffffffffffffffffffffff021916908373ffffffffffffffffffffffffffffffffffffffff160217905550602082015181600101906007610619929190610e5c565b5050503373ffffffffffffffffffffffffffffffffffffffff167f23443ac3afaec974c2d4368824912f61a50fee541bcc94ec52414ba6a9b14aab60405160405180910390a250565b60015481565b6003816007811061067857600080fd5b60209182820401919006915054906101000a900460ff1681565b600481815481106106a257600080fd5b90600052602060002090600202016000915090508060000160009054906101000a900473ffffffffffffffffffffffffffffffffffffffff16905081565b60008054906101000a900473ffffffffffffffffffffffffffffffffffffffff1681565b60008054906101000a900473ffffffffffffffffffffffffffffffffffffffff1673ffffffffffffffffffffffffffffffffffffffff163373ffffffffffffffffffffffffffffffffffffffff1614610792576040517f08c379a000000000000000000000000000000000000000000000000000000000815260040161078990611435565b60405180910390fd5b600260009054906101000a900460ff166107e1576040517f08c379a00000000000000000000000000000000000000000000000000000000081526004016107d890611536565b60405180910390fd5b600560009054906101000a900473ffffffffffffffffffffffffffffffffffffffff1673ffffffffffffffffffffffffffffffffffffffff16635d3b1d30600654600560149054906101000a900467ffffffffffffffff16600760049054906101000a900461ffff16600760009054906101000a900463ffffffff16600760069054906101000a900463ffffffff166040518663ffffffff1660e01b815260040161089095949392919061174c565b6020604051808303816000875af11580156108af573d6000803e3d6000fd5b505050506040513d601f19601f820116820180604052508101906108d391906117b4565b600881905550565b600260009054906101000a900460ff1681565b60085481565b637735940081565b60005b6007811015610982576001602f83838151811061091f5761091e6115c2565b5b60200260200101516109319190611810565b61093b9190611841565b6003826007811061094f5761094e6115c2565b5b602091828204019190066101000a81548160ff021916908360ff160217905550808061097a9061168c565b9150506108ff565b507fa8cf9ef783a1fe7dd773c9c3d8d5716396b2071fc1ff7c009b67b9defa94844160036040516109b391906125af565b60405180910390a16109c36109c7565b5050565b600047905060006064600a836109dd91906125ca565b6109e7919061260c565b905060008054906101000a900473ffffffffffffffffffffffffffffffffffffffff1673ffffffffffffffffffffffffffffffffffffffff166108fc829081150290604051600060405180830381858888f19350505050158015610a4f573d6000803e3d6000fd5b5060008183610a5e919061263d565b9050610a68610ef6565b60005b600480549050811015610b51576000610b0960048381548110610a9157610a906115c2565b5b9060005260206000209060020201600101600780602002604051908101604052809291908260078015610aff576020028201916000905b82829054906101000a900460ff1660ff1681526020019060010190602082600001049283019260010382029150808411610ac85790505b5050505050610d5e565b905060028110610b3d57828160088110610b2657610b256115c2565b5b602002018051809190610b389061168c565b815250505b508080610b499061168c565b915050610a6b565b5060005b600480549050811015610d16576000610bf360048381548110610b7b57610b7a6115c2565b5b9060005260206000209060020201600101600780602002604051908101604052809291908260078015610be9576020028201916000905b82829054906101000a900460ff1660ff1681526020019060010190602082600001049283019260010382029150808411610bb25790505b5050505050610d5e565b905060028110158015610c1d57506000838260088110610c1657610c156115c2565b5b6020020151115b15610d02576000610c2d82610dea565b9050600060648287610c3f91906125ca565b610c49919061260c565b90506000858460088110610c6057610c5f6115c2565b5b602002015182610c70919061260c565b905060048581548110610c8657610c856115c2565b5b906000526020600020906002020160000160009054906101000a900473ffffffffffffffffffffffffffffffffffffffff1673ffffffffffffffffffffffffffffffffffffffff166108fc829081150290604051600060405180830381858888f19350505050158015610cfd573d6000803e3d6000fd5b505050505b508080610d0e9061168c565b915050610b55565b504760018190555060046000610d2c9190610f19565b7fefea7889cd26c56b4174d211c6b03e98a905c56c27fbd926d308e082727de59d60405160405180910390a150505050565b6000806000905060005b6007811015610de05760038160078110610d8557610d846115c2565b5b602091828204019190069054906101000a900460ff1660ff16848260078110610db157610db06115c2565b5b602002015160ff1603610dcd578180610dc99061168c565b9250505b8080610dd89061168c565b915050610d68565b5080915050919050565b600060028203610dfd5760059050610e57565b60038203610e0e57600a9050610e57565b60048203610e1f57600f9050610e57565b60058203610e305760149050610e57565b60068203610e415760149050610e57565b60078203610e5257601e9050610e57565b600090505b919050565b826007601f01602090048101928215610ee55791602002820160005b83821115610eb657835183826101000a81548160ff021916908360ff1602179055509260200192600101602081600001049283019260010302610e78565b8015610ee35782816101000a81549060ff0219169055600101602081600001049283019260010302610eb6565b505b509050610ef29190610f3d565b5090565b604051806101000160405280600890602082028036833780820191505090505090565b5080546000825560020290600052602060002090810190610f3a9190610f5a565b50565b5b80821115610f56576000816000905550600101610f3e565b5090565b5b80821115610fa457600080820160006101000a81549073ffffffffffffffffffffffffffffffffffffffff0219169055600182016000610f9b9190610fa8565b50600201610f5b565b5090565b5060009055565b6000604051905090565b600080fd5b600080fd5b6000819050919050565b610fd681610fc3565b8114610fe157600080fd5b50565b600081359050610ff381610fcd565b92915050565b600080fd5b6000601f19601f8301169050919050565b7f4e487b7100000000000000000000000000000000000000000000000000000000600052604160045260246000fd5b61104782610ffe565b810181811067ffffffffffffffff821117156110665761106561100f565b5b80604052505050565b6000611079610faf565b9050611085828261103e565b919050565b600067ffffffffffffffff8211156110a5576110a461100f565b5b602082029050602081019050919050565b600080fd5b60006110ce6110c98461108a565b61106f565b905080838252602082019050602084028301858111156110f1576110f06110b6565b5b835b8181101561111a57806111068882610fe4565b8452602084019350506020810190506110f3565b5050509392505050565b600082601f83011261113957611138610ff9565b5b81356111498482602086016110bb565b91505092915050565b6000806040838503121561116957611168610fb9565b5b600061117785828601610fe4565b925050602083013567ffffffffffffffff81111561119857611197610fbe565b5b6111a485828601611124565b9150509250929050565b600067ffffffffffffffff8211156111c9576111c861100f565b5b602082029050919050565b600060ff82169050919050565b6111ea816111d4565b81146111f557600080fd5b50565b600081359050611207816111e1565b92915050565b600061122061121b846111ae565b61106f565b9050806020840283018581111561123a576112396110b6565b5b835b81811015611263578061124f88826111f8565b84526020840193505060208101905061123c565b5050509392505050565b600082601f83011261128257611281610ff9565b5b600761128f84828561120d565b91505092915050565b600060e082840312156112ae576112ad610fb9565b5b60006112bc8482850161126d565b91505092915050565b6112ce81610fc3565b82525050565b60006020820190506112e960008301846112c5565b92915050565b60006020828403121561130557611304610fb9565b5b600061131384828501610fe4565b91505092915050565b611325816111d4565b82525050565b6000602082019050611340600083018461131c565b92915050565b600073ffffffffffffffffffffffffffffffffffffffff82169050919050565b600061137182611346565b9050919050565b61138181611366565b82525050565b600060208201905061139c6000830184611378565b92915050565b60008115159050919050565b6113b7816113a2565b82525050565b60006020820190506113d260008301846113ae565b92915050565b600082825260208201905092915050565b7f4e6f74206f776e65720000000000000000000000000000000000000000000000600082015250565b600061141f6009836113d8565b915061142a826113e9565b602082019050919050565b6000602082019050818103600083015261144e81611412565b9050919050565b7f416c7265616479206f70656e0000000000000000000000000000000000000000600082015250565b600061148b600c836113d8565b915061149682611455565b602082019050919050565b600060208201905081810360008301526114ba8161147e565b9050919050565b60006040820190506114d66000830185611378565b6114e36020830184611378565b9392505050565b7f4c6f747465727920636c6f736564000000000000000000000000000000000000600082015250565b6000611520600e836113d8565b915061152b826114ea565b602082019050919050565b6000602082019050818103600083015261154f81611513565b9050919050565b7f496e636f727265637420656e7472792066656500000000000000000000000000600082015250565b600061158c6013836113d8565b915061159782611556565b602082019050919050565b600060208201905081810360008301526115bb8161157f565b9050919050565b7f4e487b7100000000000000000000000000000000000000000000000000000000600052603260045260246000fd5b7f496e76616c6964206e756d626572000000000000000000000000000000000000600082015250565b6000611627600e836113d8565b9150611632826115f1565b602082019050919050565b600060208201905081810360008301526116568161161a565b9050919050565b7f4e487b7100000000000000000000000000000000000000000000000000000000600052601160045260246000fd5b600061169782610fc3565b91507fffffffffffffffffffffffffffffffffffffffffffffffffffffffffffffffff82036116c9576116c861165d565b5b600182019050919050565b6000819050919050565b6116e7816116d4565b82525050565b600067ffffffffffffffff82169050919050565b61170a816116ed565b82525050565b600061ffff82169050919050565b61172781611710565b82525050565b600063ffffffff82169050919050565b6117468161172d565b82525050565b600060a08201905061176160008301886116de565b61176e6020830187611701565b61177b604083018661171e565b611788606083018561173d565b611795608083018461173d565b9695505050505050565b6000815190506117ae81610fcd565b92915050565b6000602082840312156117ca576117c9610fb9565b5b60006117d88482850161179f565b91505092915050565b7f4e487b7100000000000000000000000000000000000000000000000000000000600052601260045260246000fd5b600061181b82610fc3565b915061182683610fc3565b925082611836576118356117e1565b5b828206905092915050565b600061184c82610fc3565b915061185783610fc3565b925082820190508082111561186f5761186e61165d565b5b92915050565b600060079050919050565b600081905092915050565b6000819050919050565b61189e816111d4565b82525050565b60008160001c9050919050565b600060ff82169050919050565b60006118d16118cc836118a4565b6118b1565b9050919050565b60008160081c9050919050565b60006118f86118f3836118d8565b6118b1565b9050919050565b60008160101c9050919050565b600061191f61191a836118ff565b6118b1565b9050919050565b60008160181c9050919050565b600061194661194183611926565b6118b1565b9050919050565b60008160201c9050919050565b600061196d6119688361194d565b6118b1565b9050919050565b60008160281c9050919050565b600061199461198f83611974565b6118b1565b9050919050565b60008160301c9050919050565b60006119bb6119b68361199b565b6118b1565b9050919050565b60008160381c9050919050565b60006119e26119dd836119c2565b6118b1565b9050919050565b60008160401c9050919050565b6000611a09611a04836119e9565b6118b1565b9050919050565b60008160481c9050919050565b6000611a30611a2b83611a10565b6118b1565b9050919050565b60008160501c9050919050565b6000611a57611a5283611a37565b6118b1565b9050919050565b60008160581c9050919050565b6000611a7e611a7983611a5e565b6118b1565b9050919050565b60008160601c9050919050565b6000611aa5611aa083611a85565b6118b1565b9050919050565b60008160681c9050919050565b6000611acc611ac783611aac565b6118b1565b9050919050565b60008160701c9050919050565b6000611af3611aee83611ad3565b6118b1565b9050919050565b60008160781c9050919050565b6000611b1a611b1583611afa565b6118b1565b9050919050565b60008160801c9050919050565b6000611b41611b3c83611b21565b6118b1565b9050919050565b60008160881c9050919050565b6000611b68611b6383611b48565b6118b1565b9050919050565b60008160901c9050919050565b6000611b8f611b8a83611b6f565b6118b1565b9050919050565b60008160981c9050919050565b6000611bb6611bb183611b96565b6118b1565b9050919050565b60008160a01c9050919050565b6000611bdd611bd883611bbd565b6118b1565b9050919050565b60008160a81c9050919050565b6000611c04611bff83611be4565b6118b1565b9050919050565b60008160b01c9050919050565b6000611c2b611c2683611c0b565b6118b1565b9050919050565b60008160b81c9050919050565b6000611c52611c4d83611c32565b6118b1565b9050919050565b60008160c01c9050919050565b6000611c79611c7483611c59565b6118b1565b9050919050565b60008160c81c9050919050565b6000611ca0611c9b83611c80565b6118b1565b9050919050565b60008160d01c9050919050565b6000611cc7611cc283611ca7565b6118b1565b9050919050565b60008160d81c9050919050565b6000611cee611ce983611cce565b6118b1565b9050919050565b60008160e01c9050919050565b6000611d15611d1083611cf5565b6118b1565b9050919050565b60008160e81c9050919050565b6000611d3c611d3783611d1c565b6118b1565b9050919050565b60008160f01c9050919050565b6000611d63611d5e83611d43565b6118b1565b9050919050565b60008160f81c9050919050565b6000611d8a611d8583611d6a565b6118b1565b9050919050565b611d9a81611875565b611da48184611880565b925082611db08361188b565b600080156120dc575b836001602003820110156120db578154611ddb87611dd6836118be565b611895565b602087019650611df387611dee836118e5565b611895565b602087019650611e0b87611e068361190c565b611895565b602087019650611e2387611e1e83611933565b611895565b602087019650611e3b87611e368361195a565b611895565b602087019650611e5387611e4e83611981565b611895565b602087019650611e6b87611e66836119a8565b611895565b602087019650611e8387611e7e836119cf565b611895565b602087019650611e9b87611e96836119f6565b611895565b602087019650611eb387611eae83611a1d565b611895565b602087019650611ecb87611ec683611a44565b611895565b602087019650611ee387611ede83611a6b565b611895565b602087019650611efb87611ef683611a92565b611895565b602087019650611f1387611f0e83611ab9565b611895565b602087019650611f2b87611f2683611ae0565b611895565b602087019650611f4387611f3e83611b07565b611895565b602087019650611f5b87611f5683611b2e565b611895565b602087019650611f7387611f6e83611b55565b611895565b602087019650611f8b87611f8683611b7c565b611895565b602087019650611fa387611f9e83611ba3565b611895565b602087019650611fbb87611fb683611bca565b611895565b602087019650611fd387611fce83611bf1565b611895565b602087019650611feb87611fe683611c18565b611895565b60208701965061200387611ffe83611c3f565b611895565b60208701965061201b8761201683611c66565b611895565b6020870196506120338761202e83611c8d565b611895565b60208701965061204b8761204683611cb4565b611895565b6020870196506120638761205e83611cdb565b611895565b60208701965061207b8761207683611d02565b611895565b6020870196506120938761208e83611d29565b611895565b6020870196506120ab876120a683611d50565b611895565b6020870196506120c3876120be83611d77565b611895565b60208701965060018301925050602081019050611db9565b5b6001156125a757815460011561210b576120fe876120f9836118be565b611895565b6020870196506001820191505b600115612131576121248761211f836118e5565b611895565b6020870196506001820191505b6001156121575761214a876121458361190c565b611895565b6020870196506001820191505b60011561217d576121708761216b83611933565b611895565b6020870196506001820191505b6001156121a357612196876121918361195a565b611895565b6020870196506001820191505b6001156121c9576121bc876121b783611981565b611895565b6020870196506001820191505b6001156121ef576121e2876121dd836119a8565b611895565b6020870196506001820191505b6000156122155761220887612203836119cf565b611895565b6020870196506001820191505b60001561223b5761222e87612229836119f6565b611895565b6020870196506001820191505b600015612261576122548761224f83611a1d565b611895565b6020870196506001820191505b6000156122875761227a8761227583611a44565b611895565b6020870196506001820191505b6000156122ad576122a08761229b83611a6b565b611895565b6020870196506001820191505b6000156122d3576122c6876122c183611a92565b611895565b6020870196506001820191505b6000156122f9576122ec876122e783611ab9565b611895565b6020870196506001820191505b60001561231f576123128761230d83611ae0565b611895565b6020870196506001820191505b600015612345576123388761233383611b07565b611895565b6020870196506001820191505b60001561236b5761235e8761235983611b2e565b611895565b6020870196506001820191505b600015612391576123848761237f83611b55565b611895565b6020870196506001820191505b6000156123b7576123aa876123a583611b7c565b611895565b6020870196506001820191505b6000156123dd576123d0876123cb83611ba3565b611895565b6020870196506001820191505b600015612403576123f6876123f183611bca565b611895565b6020870196506001820191505b6000156124295761241c8761241783611bf1565b611895565b6020870196506001820191505b60001561244f576124428761243d83611c18565b611895565b6020870196506001820191505b600015612475576124688761246383611c3f565b611895565b6020870196506001820191505b60001561249b5761248e8761248983611c66565b611895565b6020870196506001820191505b6000156124c1576124b4876124af83611c8d565b611895565b6020870196506001820191505b6000156124e7576124da876124d583611cb4565b611895565b6020870196506001820191505b60001561250d57612500876124fb83611cdb565b611895565b6020870196506001820191505b600015612533576125268761252183611d02565b611895565b6020870196506001820191505b6000156125595761254c8761254783611d29565b611895565b6020870196506001820191505b60001561257f576125728761256d83611d50565b611895565b6020870196506001820191505b6000156125a5576125988761259383611d77565b611895565b6020870196506001820191505b505b505050505050565b600060e0820190506125c46000830184611d91565b92915050565b60006125d582610fc3565b91506125e083610fc3565b92508282026125ee81610fc3565b915082820484148315176126055761260461165d565b5b5092915050565b600061261782610fc3565b915061262283610fc3565b925082612632576126316117e1565b5b828204905092915050565b600061264882610fc3565b915061265383610fc3565b925082820390508181111561266b5761266a61165d565b5b9291505056fea26469706673582212205610bfe95c1736741fce69cb06b46cd37b7cf126b54fa8c8d9565d663701eeaf64736f6c63430008140033","opcodes":"PUSH1 0xA0 PUSH1 0x40 MSTORE PUSH3 0x30D40 PUSH1 0x7 PUSH1 0x0 PUSH2 0x100 EXP DUP2 SLOAD DUP2 PUSH4 0xFFFFFFFF MUL NOT AND SWAP1 DUP4 PUSH4 0xFFFFFFFF AND MUL OR SWAP1 SSTORE POP PUSH1 0x3 PUSH1 0x7 PUSH1 0x4 PUSH2 0x100 EXP DUP2 SLOAD DUP2 PUSH2 0xFFFF MUL NOT AND SWAP1 DUP4 PUSH2 0xFFFF AND MUL OR SWAP1 SSTORE POP PUSH1 0x7 DUP1 PUSH1 0x6 PUSH2 0x100 EXP DUP2 SLOAD DUP2 PUSH4 0xFFFFFFFF MUL NOT AND SWAP1 DUP4 PUSH4 0xFFFFFFFF AND MUL OR SWAP1 SSTORE POP CALLVALUE DUP1 ISZERO PUSH3 0x74 JUMPI PUSH1 0x0 DUP1 REVERT JUMPDEST POP PUSH1 0x40 MLOAD PUSH3 0x29B5 CODESIZE SUB DUP1 PUSH3 0x29B5 DUP4 CODECOPY DUP2 DUP2 ADD PUSH1 0x40 MSTORE DUP2 ADD SWAP1 PUSH3 0x9A SWAP2 SWAP1 PUSH3 0x28F JUMP JUMPDEST DUP3 DUP1 PUSH20 0xFFFFFFFFFFFFFFFFFFFFFFFFFFFFFFFFFFFFFFFF AND PUSH1 0x80 DUP2 PUSH20 0xFFFFFFFFFFFFFFFFFFFFFFFFFFFFFFFFFFFFFFFF AND DUP2 MSTORE POP POP POP CALLER PUSH1 0x0 DUP1 PUSH2 0x100 EXP DUP2 SLOAD DUP2 PUSH20 0xFFFFFFFFFFFFFFFFFFFFFFFFFFFFFFFFFFFFFFFF MUL NOT AND SWAP1 DUP4 PUSH20 0xFFFFFFFFFFFFFFFFFFFFFFFFFFFFFFFFFFFFFFFF AND MUL OR SWAP1 SSTORE POP PUSH1 0x1 PUSH1 0x2 PUSH1 0x0 PUSH2 0x100 EXP DUP2 SLOAD DUP2 PUSH1 0xFF MUL NOT AND SWAP1 DUP4 ISZERO ISZERO MUL OR SWAP1 SSTORE POP DUP3 PUSH1 0x5 PUSH1 0x0 PUSH2 0x100 EXP DUP2 SLOAD DUP2 PUSH20 0xFFFFFFFFFFFFFFFFFFFFFFFFFFFFFFFFFFFFFFFF MUL NOT AND SWAP1 DUP4 PUSH20 0xFFFFFFFFFFFFFFFFFFFFFFFFFFFFFFFFFFFFFFFF AND MUL OR SWAP1 SSTORE POP DUP2 PUSH1 0x6 DUP2 SWAP1 SSTORE POP DUP1 PUSH1 0x5 PUSH1 0x14 PUSH2 0x100 EXP DUP2 SLOAD DUP2 PUSH8 0xFFFFFFFFFFFFFFFF MUL NOT AND SWAP1 DUP4 PUSH8 0xFFFFFFFFFFFFFFFF AND MUL OR SWAP1 SSTORE POP POP POP POP PUSH3 0x2EB JUMP JUMPDEST PUSH1 0x0 DUP1 REVERT JUMPDEST PUSH1 0x0 PUSH20 0xFFFFFFFFFFFFFFFFFFFFFFFFFFFFFFFFFFFFFFFF DUP3 AND SWAP1 POP SWAP2 SWAP1 POP JUMP JUMPDEST PUSH1 0x0 PUSH3 0x1D7 DUP3 PUSH3 0x1AA JUMP JUMPDEST SWAP1 POP SWAP2 SWAP1 POP JUMP JUMPDEST PUSH3 0x1E9 DUP2 PUSH3 0x1CA JUMP JUMPDEST DUP2 EQ PUSH3 0x1F5 JUMPI PUSH1 0x0 DUP1 REVERT JUMPDEST POP JUMP JUMPDEST PUSH1 0x0 DUP2 MLOAD SWAP1 POP PUSH3 0x209 DUP2 PUSH3 0x1DE JUMP JUMPDEST SWAP3 SWAP2 POP POP JUMP JUMPDEST PUSH1 0x0 DUP2 SWAP1 POP SWAP2 SWAP1 POP JUMP JUMPDEST PUSH3 0x224 DUP2 PUSH3 0x20F JUMP JUMPDEST DUP2 EQ PUSH3 0x230 JUMPI PUSH1 0x0 DUP1 REVERT JUMPDEST POP JUMP JUMPDEST PUSH1 0x0 DUP2 MLOAD SWAP1 POP PUSH3 0x244 DUP2 PUSH3 0x219 JUMP JUMPDEST SWAP3 SWAP2 POP POP JUMP JUMPDEST PUSH1 0x0 PUSH8 0xFFFFFFFFFFFFFFFF DUP3 AND SWAP1 POP SWAP2 SWAP1 POP JUMP JUMPDEST PUSH3 0x269 DUP2 PUSH3 0x24A JUMP JUMPDEST DUP2 EQ PUSH3 0x275 JUMPI PUSH1 0x0 DUP1 REVERT JUMPDEST POP JUMP JUMPDEST PUSH1 0x0 DUP2 MLOAD SWAP1 POP PUSH3 0x289 DUP2 PUSH3 0x25E JUMP JUMPDEST SWAP3 SWAP2 POP POP JUMP JUMPDEST PUSH1 0x0 DUP1 PUSH1 0x0 PUSH1 0x60 DUP5 DUP7 SUB SLT ISZERO PUSH3 0x2AB JUMPI PUSH3 0x2AA PUSH3 0x1A5 JUMP JUMPDEST JUMPDEST PUSH1 0x0 PUSH3 0x2BB DUP7 DUP3 DUP8 ADD PUSH3 0x1F8 JUMP JUMPDEST SWAP4 POP POP PUSH1 0x20 PUSH3 0x2CE DUP7 DUP3 DUP8 ADD PUSH3 0x233 JUMP JUMPDEST SWAP3 POP POP PUSH1 0x40 PUSH3 0x2E1 DUP7 DUP3 DUP8 ADD PUSH3 0x278 JUMP JUMPDEST SWAP2 POP POP SWAP3 POP SWAP3 POP SWAP3 JUMP JUMPDEST PUSH1 0x80 MLOAD PUSH2 0x26A7 PUSH3 0x30E PUSH1 0x0 CODECOPY PUSH1 0x0 DUP2 DUP2 PUSH2 0x36D ADD MSTORE PUSH2 0x3C1 ADD MSTORE PUSH2 0x26A7 PUSH1 0x0 RETURN INVALID PUSH1 0x80 PUSH1 0x40 MSTORE PUSH1 0x4 CALLDATASIZE LT PUSH2 0xA0 JUMPI PUSH1 0x0 CALLDATALOAD PUSH1 0xE0 SHR DUP1 PUSH4 0x50B44712 GT PUSH2 0x64 JUMPI DUP1 PUSH4 0x50B44712 EQ PUSH2 0x170 JUMPI DUP1 PUSH4 0x8DA5CB5B EQ PUSH2 0x1AD JUMPI DUP1 PUSH4 0xAFBC25F5 EQ PUSH2 0x1D8 JUMPI DUP1 PUSH4 0xC60C4AE9 EQ PUSH2 0x1EF JUMPI DUP1 PUSH4 0xE89E106A EQ PUSH2 0x21A JUMPI DUP1 PUSH4 0xF6D361CC EQ PUSH2 0x245 JUMPI PUSH2 0xA7 JUMP JUMPDEST DUP1 PUSH4 0xA7A7DA6 EQ PUSH2 0xAC JUMPI DUP1 PUSH4 0x1FE543E3 EQ PUSH2 0xC3 JUMPI DUP1 PUSH4 0x39E7397B EQ PUSH2 0xEC JUMPI DUP1 PUSH4 0x3C51C7BB EQ PUSH2 0x108 JUMPI DUP1 PUSH4 0x4E45F095 EQ PUSH2 0x133 JUMPI PUSH2 0xA7 JUMP JUMPDEST CALLDATASIZE PUSH2 0xA7 JUMPI STOP JUMPDEST PUSH1 0x0 DUP1 REVERT JUMPDEST CALLVALUE DUP1 ISZERO PUSH2 0xB8 JUMPI PUSH1 0x0 DUP1 REVERT JUMPDEST POP PUSH2 0xC1 PUSH2 0x270 JUMP JUMPDEST STOP JUMPDEST CALLVALUE DUP1 ISZERO PUSH2 0xCF JUMPI PUSH1 0x0 DUP1 REVERT JUMPDEST POP PUSH2 0xEA PUSH1 0x4 DUP1 CALLDATASIZE SUB DUP2 ADD SWAP1 PUSH2 0xE5 SWAP2 SWAP1 PUSH2 0x1152 JUMP JUMPDEST PUSH2 0x36B JUMP JUMPDEST STOP JUMPDEST PUSH2 0x106 PUSH1 0x4 DUP1 CALLDATASIZE SUB DUP2 ADD SWAP1 PUSH2 0x101 SWAP2 SWAP1 PUSH2 0x1298 JUMP JUMPDEST PUSH2 0x42B JUMP JUMPDEST STOP JUMPDEST CALLVALUE DUP1 ISZERO PUSH2 0x114 JUMPI PUSH1 0x0 DUP1 REVERT JUMPDEST POP PUSH2 0x11D PUSH2 0x662 JUMP JUMPDEST PUSH1 0x40 MLOAD PUSH2 0x12A SWAP2 SWAP1 PUSH2 0x12D4 JUMP JUMPDEST PUSH1 0x40 MLOAD DUP1 SWAP2 SUB SWAP1 RETURN JUMPDEST CALLVALUE DUP1 ISZERO PUSH2 0x13F JUMPI PUSH1 0x0 DUP1 REVERT JUMPDEST POP PUSH2 0x15A PUSH1 0x4 DUP1 CALLDATASIZE SUB DUP2 ADD SWAP1 PUSH2 0x155 SWAP2 SWAP1 PUSH2 0x12EF JUMP JUMPDEST PUSH2 0x668 JUMP JUMPDEST PUSH1 0x40 MLOAD PUSH2 0x167 SWAP2 SWAP1 PUSH2 0x132B JUMP JUMPDEST PUSH1 0x40 MLOAD DUP1 SWAP2 SUB SWAP1 RETURN JUMPDEST CALLVALUE DUP1 ISZERO PUSH2 0x17C JUMPI PUSH1 0x0 DUP1 REVERT JUMPDEST POP PUSH2 0x197 PUSH1 0x4 DUP1 CALLDATASIZE SUB DUP2 ADD SWAP1 PUSH2 0x192 SWAP2 SWAP1 PUSH2 0x12EF JUMP JUMPDEST PUSH2 0x692 JUMP JUMPDEST PUSH1 0x40 MLOAD PUSH2 0x1A4 SWAP2 SWAP1 PUSH2 0x1387 JUMP JUMPDEST PUSH1 0x40 MLOAD DUP1 SWAP2 SUB SWAP1 RETURN JUMPDEST CALLVALUE DUP1 ISZERO PUSH2 0x1B9 JUMPI PUSH1 0x0 DUP1 REVERT JUMPDEST POP PUSH2 0x1C2 PUSH2 0x6E0 JUMP JUMPDEST PUSH1 0x40 MLOAD PUSH2 0x1CF SWAP2 SWAP1 PUSH2 0x1387 JUMP JUMPDEST PUSH1 0x40 MLOAD DUP1 SWAP2 SUB SWAP1 RETURN JUMPDEST CALLVALUE DUP1 ISZERO PUSH2 0x1E4 JUMPI PUSH1 0x0 DUP1 REVERT JUMPDEST POP PUSH2 0x1ED PUSH2 0x704 JUMP JUMPDEST STOP JUMPDEST CALLVALUE DUP1 ISZERO PUSH2 0x1FB JUMPI PUSH1 0x0 DUP1 REVERT JUMPDEST POP PUSH2 0x204 PUSH2 0x8DB JUMP JUMPDEST PUSH1 0x40 MLOAD PUSH2 0x211 SWAP2 SWAP1 PUSH2 0x13BD JUMP JUMPDEST PUSH1 0x40 MLOAD DUP1 SWAP2 SUB SWAP1 RETURN JUMPDEST CALLVALUE DUP1 ISZERO PUSH2 0x226 JUMPI PUSH1 0x0 DUP1 REVERT JUMPDEST POP PUSH2 0x22F PUSH2 0x8EE JUMP JUMPDEST PUSH1 0x40 MLOAD PUSH2 0x23C SWAP2 SWAP1 PUSH2 0x12D4 JUMP JUMPDEST PUSH1 0x40 MLOAD DUP1 SWAP2 SUB SWAP1 RETURN JUMPDEST CALLVALUE DUP1 ISZERO PUSH2 0x251 JUMPI PUSH1 0x0 DUP1 REVERT JUMPDEST POP PUSH2 0x25A PUSH2 0x8F4 JUMP JUMPDEST PUSH1 0x40 MLOAD PUSH2 0x267 SWAP2 SWAP1 PUSH2 0x12D4 JUMP JUMPDEST PUSH1 0x40 MLOAD DUP1 SWAP2 SUB SWAP1 RETURN JUMPDEST PUSH1 0x0 DUP1 SLOAD SWAP1 PUSH2 0x100 EXP SWAP1 DIV PUSH20 0xFFFFFFFFFFFFFFFFFFFFFFFFFFFFFFFFFFFFFFFF AND PUSH20 0xFFFFFFFFFFFFFFFFFFFFFFFFFFFFFFFFFFFFFFFF AND CALLER PUSH20 0xFFFFFFFFFFFFFFFFFFFFFFFFFFFFFFFFFFFFFFFF AND EQ PUSH2 0x2FE JUMPI PUSH1 0x40 MLOAD PUSH32 0x8C379A000000000000000000000000000000000000000000000000000000000 DUP2 MSTORE PUSH1 0x4 ADD PUSH2 0x2F5 SWAP1 PUSH2 0x1435 JUMP JUMPDEST PUSH1 0x40 MLOAD DUP1 SWAP2 SUB SWAP1 REVERT JUMPDEST PUSH1 0x2 PUSH1 0x0 SWAP1 SLOAD SWAP1 PUSH2 0x100 EXP SWAP1 DIV PUSH1 0xFF AND ISZERO PUSH2 0x34E JUMPI PUSH1 0x40 MLOAD PUSH32 0x8C379A000000000000000000000000000000000000000000000000000000000 DUP2 MSTORE PUSH1 0x4 ADD PUSH2 0x345 SWAP1 PUSH2 0x14A1 JUMP JUMPDEST PUSH1 0x40 MLOAD DUP1 SWAP2 SUB SWAP1 REVERT JUMPDEST PUSH1 0x1 PUSH1 0x2 PUSH1 0x0 PUSH2 0x100 EXP DUP2 SLOAD DUP2 PUSH1 0xFF MUL NOT AND SWAP1 DUP4 ISZERO ISZERO MUL OR SWAP1 SSTORE POP JUMP JUMPDEST PUSH32 0x0 PUSH20 0xFFFFFFFFFFFFFFFFFFFFFFFFFFFFFFFFFFFFFFFF AND CALLER PUSH20 0xFFFFFFFFFFFFFFFFFFFFFFFFFFFFFFFFFFFFFFFF AND EQ PUSH2 0x41D JUMPI CALLER PUSH32 0x0 PUSH1 0x40 MLOAD PUSH32 0x1CF993F400000000000000000000000000000000000000000000000000000000 DUP2 MSTORE PUSH1 0x4 ADD PUSH2 0x414 SWAP3 SWAP2 SWAP1 PUSH2 0x14C1 JUMP JUMPDEST PUSH1 0x40 MLOAD DUP1 SWAP2 SUB SWAP1 REVERT JUMPDEST PUSH2 0x427 DUP3 DUP3 PUSH2 0x8FC JUMP JUMPDEST POP POP JUMP JUMPDEST PUSH1 0x2 PUSH1 0x0 SWAP1 SLOAD SWAP1 PUSH2 0x100 EXP SWAP1 DIV PUSH1 0xFF AND PUSH2 0x47A JUMPI PUSH1 0x40 MLOAD PUSH32 0x8C379A000000000000000000000000000000000000000000000000000000000 DUP2 MSTORE PUSH1 0x4 ADD PUSH2 0x471 SWAP1 PUSH2 0x1536 JUMP JUMPDEST PUSH1 0x40 MLOAD DUP1 SWAP2 SUB SWAP1 REVERT JUMPDEST PUSH4 0x77359400 CALLVALUE EQ PUSH2 0x4C0 JUMPI PUSH1 0x40 MLOAD PUSH32 0x8C379A000000000000000000000000000000000000000000000000000000000 DUP2 MSTORE PUSH1 0x4 ADD PUSH2 0x4B7 SWAP1 PUSH2 0x15A2 JUMP JUMPDEST PUSH1 0x40 MLOAD DUP1 SWAP2 SUB SWAP1 REVERT JUMPDEST PUSH1 0x0 JUMPDEST PUSH1 0x7 DUP2 LT ISZERO PUSH2 0x564 JUMPI PUSH1 0x1 DUP3 DUP3 PUSH1 0x7 DUP2 LT PUSH2 0x4E1 JUMPI PUSH2 0x4E0 PUSH2 0x15C2 JUMP JUMPDEST JUMPDEST PUSH1 0x20 MUL ADD MLOAD PUSH1 0xFF AND LT ISZERO DUP1 ISZERO PUSH2 0x512 JUMPI POP PUSH1 0x2F DUP3 DUP3 PUSH1 0x7 DUP2 LT PUSH2 0x507 JUMPI PUSH2 0x506 PUSH2 0x15C2 JUMP JUMPDEST JUMPDEST PUSH1 0x20 MUL ADD MLOAD PUSH1 0xFF AND GT ISZERO JUMPDEST PUSH2 0x551 JUMPI PUSH1 0x40 MLOAD PUSH32 0x8C379A000000000000000000000000000000000000000000000000000000000 DUP2 MSTORE PUSH1 0x4 ADD PUSH2 0x548 SWAP1 PUSH2 0x163D JUMP JUMPDEST PUSH1 0x40 MLOAD DUP1 SWAP2 SUB SWAP1 REVERT JUMPDEST DUP1 DUP1 PUSH2 0x55C SWAP1 PUSH2 0x168C JUMP JUMPDEST SWAP2 POP POP PUSH2 0x4C3 JUMP JUMPDEST POP PUSH1 0x4 PUSH1 0x40 MLOAD DUP1 PUSH1 0x40 ADD PUSH1 0x40 MSTORE DUP1 CALLER PUSH20 0xFFFFFFFFFFFFFFFFFFFFFFFFFFFFFFFFFFFFFFFF AND DUP2 MSTORE PUSH1 0x20 ADD DUP4 DUP2 MSTORE POP SWAP1 DUP1 PUSH1 0x1 DUP2 SLOAD ADD DUP1 DUP3 SSTORE DUP1 SWAP2 POP POP PUSH1 0x1 SWAP1 SUB SWAP1 PUSH1 0x0 MSTORE PUSH1 0x20 PUSH1 0x0 KECCAK256 SWAP1 PUSH1 0x2 MUL ADD PUSH1 0x0 SWAP1 SWAP2 SWAP1 SWAP2 SWAP1 SWAP2 POP PUSH1 0x0 DUP3 ADD MLOAD DUP2 PUSH1 0x0 ADD PUSH1 0x0 PUSH2 0x100 EXP DUP2 SLOAD DUP2 PUSH20 0xFFFFFFFFFFFFFFFFFFFFFFFFFFFFFFFFFFFFFFFF MUL NOT AND SWAP1 DUP4 PUSH20 0xFFFFFFFFFFFFFFFFFFFFFFFFFFFFFFFFFFFFFFFF AND MUL OR SWAP1 SSTORE POP PUSH1 0x20 DUP3 ADD MLOAD DUP2 PUSH1 0x1 ADD SWAP1 PUSH1 0x7 PUSH2 0x619 SWAP3 SWAP2 SWAP1 PUSH2 0xE5C JUMP JUMPDEST POP POP POP CALLER PUSH20 0xFFFFFFFFFFFFFFFFFFFFFFFFFFFFFFFFFFFFFFFF AND PUSH32 0x23443AC3AFAEC974C2D4368824912F61A50FEE541BCC94EC52414BA6A9B14AAB PUSH1 0x40 MLOAD PUSH1 0x40 MLOAD DUP1 SWAP2 SUB SWAP1 LOG2 POP JUMP JUMPDEST PUSH1 0x1 SLOAD DUP2 JUMP JUMPDEST PUSH1 0x3 DUP2 PUSH1 0x7 DUP2 LT PUSH2 0x678 JUMPI PUSH1 0x0 DUP1 REVERT JUMPDEST PUSH1 0x20 SWAP2 DUP3 DUP3 DIV ADD SWAP2 SWAP1 MOD SWAP2 POP SLOAD SWAP1 PUSH2 0x100 EXP SWAP1 DIV PUSH1 0xFF AND DUP2 JUMP JUMPDEST PUSH1 0x4 DUP2 DUP2 SLOAD DUP2 LT PUSH2 0x6A2 JUMPI PUSH1 0x0 DUP1 REVERT JUMPDEST SWAP1 PUSH1 0x0 MSTORE PUSH1 0x20 PUSH1 0x0 KECCAK256 SWAP1 PUSH1 0x2 MUL ADD PUSH1 0x0 SWAP2 POP SWAP1 POP DUP1 PUSH1 0x0 ADD PUSH1 0x0 SWAP1 SLOAD SWAP1 PUSH2 0x100 EXP SWAP1 DIV PUSH20 0xFFFFFFFFFFFFFFFFFFFFFFFFFFFFFFFFFFFFFFFF AND SWAP1 POP DUP2 JUMP JUMPDEST PUSH1 0x0 DUP1 SLOAD SWAP1 PUSH2 0x100 EXP SWAP1 DIV PUSH20 0xFFFFFFFFFFFFFFFFFFFFFFFFFFFFFFFFFFFFFFFF AND DUP2 JUMP JUMPDEST PUSH1 0x0 DUP1 SLOAD SWAP1 PUSH2 0x100 EXP SWAP1 DIV PUSH20 0xFFFFFFFFFFFFFFFFFFFFFFFFFFFFFFFFFFFFFFFF AND PUSH20 0xFFFFFFFFFFFFFFFFFFFFFFFFFFFFFFFFFFFFFFFF AND CALLER PUSH20 0xFFFFFFFFFFFFFFFFFFFFFFFFFFFFFFFFFFFFFFFF AND EQ PUSH2 0x792 JUMPI PUSH1 0x40 MLOAD PUSH32 0x8C379A000000000000000000000000000000000000000000000000000000000 DUP2 MSTORE PUSH1 0x4 ADD PUSH2 0x789 SWAP1 PUSH2 0x1435 JUMP JUMPDEST PUSH1 0x40 MLOAD DUP1 SWAP2 SUB SWAP1 REVERT JUMPDEST PUSH1 0x2 PUSH1 0x0 SWAP1 SLOAD SWAP1 PUSH2 0x100 EXP SWAP1 DIV PUSH1 0xFF AND PUSH2 0x7E1 JUMPI PUSH1 0x40 MLOAD PUSH32 0x8C379A000000000000000000000000000000000000000000000000000000000 DUP2 MSTORE PUSH1 0x4 ADD PUSH2 0x7D8 SWAP1 PUSH2 0x1536 JUMP JUMPDEST PUSH1 0x40 MLOAD DUP1 SWAP2 SUB SWAP1 REVERT JUMPDEST PUSH1 0x5 PUSH1 0x0 SWAP1 SLOAD SWAP1 PUSH2 0x100 EXP SWAP1 DIV PUSH20 0xFFFFFFFFFFFFFFFFFFFFFFFFFFFFFFFFFFFFFFFF AND PUSH20 0xFFFFFFFFFFFFFFFFFFFFFFFFFFFFFFFFFFFFFFFF AND PUSH4 0x5D3B1D30 PUSH1 0x6 SLOAD PUSH1 0x5 PUSH1 0x14 SWAP1 SLOAD SWAP1 PUSH2 0x100 EXP SWAP1 DIV PUSH8 0xFFFFFFFFFFFFFFFF AND PUSH1 0x7 PUSH1 0x4 SWAP1 SLOAD SWAP1 PUSH2 0x100 EXP SWAP1 DIV PUSH2 0xFFFF AND PUSH1 0x7 PUSH1 0x0 SWAP1 SLOAD SWAP1 PUSH2 0x100 EXP SWAP1 DIV PUSH4 0xFFFFFFFF AND PUSH1 0x7 PUSH1 0x6 SWAP1 SLOAD SWAP1 PUSH2 0x100 EXP SWAP1 DIV PUSH4 0xFFFFFFFF AND PUSH1 0x40 MLOAD DUP7 PUSH4 0xFFFFFFFF AND PUSH1 0xE0 SHL DUP2 MSTORE PUSH1 0x4 ADD PUSH2 0x890 SWAP6 SWAP5 SWAP4 SWAP3 SWAP2 SWAP1 PUSH2 0x174C JUMP JUMPDEST PUSH1 0x20 PUSH1 0x40 MLOAD DUP1 DUP4 SUB DUP2 PUSH1 0x0 DUP8 GAS CALL ISZERO DUP1 ISZERO PUSH2 0x8AF JUMPI RETURNDATASIZE PUSH1 0x0 DUP1 RETURNDATACOPY RETURNDATASIZE PUSH1 0x0 REVERT JUMPDEST POP POP POP POP PUSH1 0x40 MLOAD RETURNDATASIZE PUSH1 0x1F NOT PUSH1 0x1F DUP3 ADD AND DUP3 ADD DUP1 PUSH1 0x40 MSTORE POP DUP2 ADD SWAP1 PUSH2 0x8D3 SWAP2 SWAP1 PUSH2 0x17B4 JUMP JUMPDEST PUSH1 0x8 DUP2 SWAP1 SSTORE POP JUMP JUMPDEST PUSH1 0x2 PUSH1 0x0 SWAP1 SLOAD SWAP1 PUSH2 0x100 EXP SWAP1 DIV PUSH1 0xFF AND DUP2 JUMP JUMPDEST PUSH1 0x8 SLOAD DUP2 JUMP JUMPDEST PUSH4 0x77359400 DUP2 JUMP JUMPDEST PUSH1 0x0 JUMPDEST PUSH1 0x7 DUP2 LT ISZERO PUSH2 0x982 JUMPI PUSH1 0x1 PUSH1 0x2F DUP4 DUP4 DUP2 MLOAD DUP2 LT PUSH2 0x91F JUMPI PUSH2 0x91E PUSH2 0x15C2 JUMP JUMPDEST JUMPDEST PUSH1 0x20 MUL PUSH1 0x20 ADD ADD MLOAD PUSH2 0x931 SWAP2 SWAP1 PUSH2 0x1810 JUMP JUMPDEST PUSH2 0x93B SWAP2 SWAP1 PUSH2 0x1841 JUMP JUMPDEST PUSH1 0x3 DUP3 PUSH1 0x7 DUP2 LT PUSH2 0x94F JUMPI PUSH2 0x94E PUSH2 0x15C2 JUMP JUMPDEST JUMPDEST PUSH1 0x20 SWAP2 DUP3 DUP3 DIV ADD SWAP2 SWAP1 MOD PUSH2 0x100 EXP DUP2 SLOAD DUP2 PUSH1 0xFF MUL NOT AND SWAP1 DUP4 PUSH1 0xFF AND MUL OR SWAP1 SSTORE POP DUP1 DUP1 PUSH2 0x97A SWAP1 PUSH2 0x168C JUMP JUMPDEST SWAP2 POP POP PUSH2 0x8FF JUMP JUMPDEST POP PUSH32 0xA8CF9EF783A1FE7DD773C9C3D8D5716396B2071FC1FF7C009B67B9DEFA948441 PUSH1 0x3 PUSH1 0x40 MLOAD PUSH2 0x9B3 SWAP2 SWAP1 PUSH2 0x25AF JUMP JUMPDEST PUSH1 0x40 MLOAD DUP1 SWAP2 SUB SWAP1 LOG1 PUSH2 0x9C3 PUSH2 0x9C7 JUMP JUMPDEST POP POP JUMP JUMPDEST PUSH1 0x0 SELFBALANCE SWAP1 POP PUSH1 0x0 PUSH1 0x64 PUSH1 0xA DUP4 PUSH2 0x9DD SWAP2 SWAP1 PUSH2 0x25CA JUMP JUMPDEST PUSH2 0x9E7 SWAP2 SWAP1 PUSH2 0x260C JUMP JUMPDEST SWAP1 POP PUSH1 0x0 DUP1 SLOAD SWAP1 PUSH2 0x100 EXP SWAP1 DIV PUSH20 0xFFFFFFFFFFFFFFFFFFFFFFFFFFFFFFFFFFFFFFFF AND PUSH20 0xFFFFFFFFFFFFFFFFFFFFFFFFFFFFFFFFFFFFFFFF AND PUSH2 0x8FC DUP3 SWAP1 DUP2 ISZERO MUL SWAP1 PUSH1 0x40 MLOAD PUSH1 0x0 PUSH1 0x40 MLOAD DUP1 DUP4 SUB DUP2 DUP6 DUP9 DUP9 CALL SWAP4 POP POP POP POP ISZERO DUP1 ISZERO PUSH2 0xA4F JUMPI RETURNDATASIZE PUSH1 0x0 DUP1 RETURNDATACOPY RETURNDATASIZE PUSH1 0x0 REVERT JUMPDEST POP PUSH1 0x0 DUP2 DUP4 PUSH2 0xA5E SWAP2 SWAP1 PUSH2 0x263D JUMP JUMPDEST SWAP1 POP PUSH2 0xA68 PUSH2 0xEF6 JUMP JUMPDEST PUSH1 0x0 JUMPDEST PUSH1 0x4 DUP1 SLOAD SWAP1 POP DUP2 LT ISZERO PUSH2 0xB51 JUMPI PUSH1 0x0 PUSH2 0xB09 PUSH1 0x4 DUP4 DUP2 SLOAD DUP2 LT PUSH2 0xA91 JUMPI PUSH2 0xA90 PUSH2 0x15C2 JUMP JUMPDEST JUMPDEST SWAP1 PUSH1 0x0 MSTORE PUSH1 0x20 PUSH1 0x0 KECCAK256 SWAP1 PUSH1 0x2 MUL ADD PUSH1 0x1 ADD PUSH1 0x7 DUP1 PUSH1 0x20 MUL PUSH1 0x40 MLOAD SWAP1 DUP2 ADD PUSH1 0x40 MSTORE DUP1 SWAP3 SWAP2 SWAP1 DUP3 PUSH1 0x7 DUP1 ISZERO PUSH2 0xAFF JUMPI PUSH1 0x20 MUL DUP3 ADD SWAP2 PUSH1 0x0 SWAP1 JUMPDEST DUP3 DUP3 SWAP1 SLOAD SWAP1 PUSH2 0x100 EXP SWAP1 DIV PUSH1 0xFF AND PUSH1 0xFF AND DUP2 MSTORE PUSH1 0x20 ADD SWAP1 PUSH1 0x1 ADD SWAP1 PUSH1 0x20 DUP3 PUSH1 0x0 ADD DIV SWAP3 DUP4 ADD SWAP3 PUSH1 0x1 SUB DUP3 MUL SWAP2 POP DUP1 DUP5 GT PUSH2 0xAC8 JUMPI SWAP1 POP JUMPDEST POP POP POP POP POP PUSH2 0xD5E JUMP JUMPDEST SWAP1 POP PUSH1 0x2 DUP2 LT PUSH2 0xB3D JUMPI DUP3 DUP2 PUSH1 0x8 DUP2 LT PUSH2 0xB26 JUMPI PUSH2 0xB25 PUSH2 0x15C2 JUMP JUMPDEST JUMPDEST PUSH1 0x20 MUL ADD DUP1 MLOAD DUP1 SWAP2 SWAP1 PUSH2 0xB38 SWAP1 PUSH2 0x168C JUMP JUMPDEST DUP2 MSTORE POP POP JUMPDEST POP DUP1 DUP1 PUSH2 0xB49 SWAP1 PUSH2 0x168C JUMP JUMPDEST SWAP2 POP POP PUSH2 0xA6B JUMP JUMPDEST POP PUSH1 0x0 JUMPDEST PUSH1 0x4 DUP1 SLOAD SWAP1 POP DUP2 LT ISZERO PUSH2 0xD16 JUMPI PUSH1 0x0 PUSH2 0xBF3 PUSH1 0x4 DUP4 DUP2 SLOAD DUP2 LT PUSH2 0xB7B JUMPI PUSH2 0xB7A PUSH2 0x15C2 JUMP JUMPDEST JUMPDEST SWAP1 PUSH1 0x0 MSTORE PUSH1 0x20 PUSH1 0x0 KECCAK256 SWAP1 PUSH1 0x2 MUL ADD PUSH1 0x1 ADD PUSH1 0x7 DUP1 PUSH1 0x20 MUL PUSH1 0x40 MLOAD SWAP1 DUP2 ADD PUSH1 0x40 MSTORE DUP1 SWAP3 SWAP2 SWAP1 DUP3 PUSH1 0x7 DUP1 ISZERO PUSH2 0xBE9 JUMPI PUSH1 0x20 MUL DUP3 ADD SWAP2 PUSH1 0x0 SWAP1 JUMPDEST DUP3 DUP3 SWAP1 SLOAD SWAP1 PUSH2 0x100 EXP SWAP1 DIV PUSH1 0xFF AND PUSH1 0xFF AND DUP2 MSTORE PUSH1 0x20 ADD SWAP1 PUSH1 0x1 ADD SWAP1 PUSH1 0x20 DUP3 PUSH1 0x0 ADD DIV SWAP3 DUP4 ADD SWAP3 PUSH1 0x1 SUB DUP3 MUL SWAP2 POP DUP1 DUP5 GT PUSH2 0xBB2 JUMPI SWAP1 POP JUMPDEST POP POP POP POP POP PUSH2 0xD5E JUMP JUMPDEST SWAP1 POP PUSH1 0x2 DUP2 LT ISZERO DUP1 ISZERO PUSH2 0xC1D JUMPI POP PUSH1 0x0 DUP4 DUP3 PUSH1 0x8 DUP2 LT PUSH2 0xC16 JUMPI PUSH2 0xC15 PUSH2 0x15C2 JUMP JUMPDEST JUMPDEST PUSH1 0x20 MUL ADD MLOAD GT JUMPDEST ISZERO PUSH2 0xD02 JUMPI PUSH1 0x0 PUSH2 0xC2D DUP3 PUSH2 0xDEA JUMP JUMPDEST SWAP1 POP PUSH1 0x0 PUSH1 0x64 DUP3 DUP8 PUSH2 0xC3F SWAP2 SWAP1 PUSH2 0x25CA JUMP JUMPDEST PUSH2 0xC49 SWAP2 SWAP1 PUSH2 0x260C JUMP JUMPDEST SWAP1 POP PUSH1 0x0 DUP6 DUP5 PUSH1 0x8 DUP2 LT PUSH2 0xC60 JUMPI PUSH2 0xC5F PUSH2 0x15C2 JUMP JUMPDEST JUMPDEST PUSH1 0x20 MUL ADD MLOAD DUP3 PUSH2 0xC70 SWAP2 SWAP1 PUSH2 0x260C JUMP JUMPDEST SWAP1 POP PUSH1 0x4 DUP6 DUP2 SLOAD DUP2 LT PUSH2 0xC86 JUMPI PUSH2 0xC85 PUSH2 0x15C2 JUMP JUMPDEST JUMPDEST SWAP1 PUSH1 0x0 MSTORE PUSH1 0x20 PUSH1 0x0 KECCAK256 SWAP1 PUSH1 0x2 MUL ADD PUSH1 0x0 ADD PUSH1 0x0 SWAP1 SLOAD SWAP1 PUSH2 0x100 EXP SWAP1 DIV PUSH20 0xFFFFFFFFFFFFFFFFFFFFFFFFFFFFFFFFFFFFFFFF AND PUSH20 0xFFFFFFFFFFFFFFFFFFFFFFFFFFFFFFFFFFFFFFFF AND PUSH2 0x8FC DUP3 SWAP1 DUP2 ISZERO MUL SWAP1 PUSH1 0x40 MLOAD PUSH1 0x0 PUSH1 0x40 MLOAD DUP1 DUP4 SUB DUP2 DUP6 DUP9 DUP9 CALL SWAP4 POP POP POP POP ISZERO DUP1 ISZERO PUSH2 0xCFD JUMPI RETURNDATASIZE PUSH1 0x0 DUP1 RETURNDATACOPY RETURNDATASIZE PUSH1 0x0 REVERT JUMPDEST POP POP POP POP JUMPDEST POP DUP1 DUP1 PUSH2 0xD0E SWAP1 PUSH2 0x168C JUMP JUMPDEST SWAP2 POP POP PUSH2 0xB55 JUMP JUMPDEST POP SELFBALANCE PUSH1 0x1 DUP2 SWAP1 SSTORE POP PUSH1 0x4 PUSH1 0x0 PUSH2 0xD2C SWAP2 SWAP1 PUSH2 0xF19 JUMP JUMPDEST PUSH32 0xEFEA7889CD26C56B4174D211C6B03E98A905C56C27FBD926D308E082727DE59D PUSH1 0x40 MLOAD PUSH1 0x40 MLOAD DUP1 SWAP2 SUB SWAP1 LOG1 POP POP POP POP JUMP JUMPDEST PUSH1 0x0 DUP1 PUSH1 0x0 SWAP1 POP PUSH1 0x0 JUMPDEST PUSH1 0x7 DUP2 LT ISZERO PUSH2 0xDE0 JUMPI PUSH1 0x3 DUP2 PUSH1 0x7 DUP2 LT PUSH2 0xD85 JUMPI PUSH2 0xD84 PUSH2 0x15C2 JUMP JUMPDEST JUMPDEST PUSH1 0x20 SWAP2 DUP3 DUP3 DIV ADD SWAP2 SWAP1 MOD SWAP1 SLOAD SWAP1 PUSH2 0x100 EXP SWAP1 DIV PUSH1 0xFF AND PUSH1 0xFF AND DUP5 DUP3 PUSH1 0x7 DUP2 LT PUSH2 0xDB1 JUMPI PUSH2 0xDB0 PUSH2 0x15C2 JUMP JUMPDEST JUMPDEST PUSH1 0x20 MUL ADD MLOAD PUSH1 0xFF AND SUB PUSH2 0xDCD JUMPI DUP2 DUP1 PUSH2 0xDC9 SWAP1 PUSH2 0x168C JUMP JUMPDEST SWAP3 POP POP JUMPDEST DUP1 DUP1 PUSH2 0xDD8 SWAP1 PUSH2 0x168C JUMP JUMPDEST SWAP2 POP POP PUSH2 0xD68 JUMP JUMPDEST POP DUP1 SWAP2 POP POP SWAP2 SWAP1 POP JUMP JUMPDEST PUSH1 0x0 PUSH1 0x2 DUP3 SUB PUSH2 0xDFD JUMPI PUSH1 0x5 SWAP1 POP PUSH2 0xE57 JUMP JUMPDEST PUSH1 0x3 DUP3 SUB PUSH2 0xE0E JUMPI PUSH1 0xA SWAP1 POP PUSH2 0xE57 JUMP JUMPDEST PUSH1 0x4 DUP3 SUB PUSH2 0xE1F JUMPI PUSH1 0xF SWAP1 POP PUSH2 0xE57 JUMP JUMPDEST PUSH1 0x5 DUP3 SUB PUSH2 0xE30 JUMPI PUSH1 0x14 SWAP1 POP PUSH2 0xE57 JUMP JUMPDEST PUSH1 0x6 DUP3 SUB PUSH2 0xE41 JUMPI PUSH1 0x14 SWAP1 POP PUSH2 0xE57 JUMP JUMPDEST PUSH1 0x7 DUP3 SUB PUSH2 0xE52 JUMPI PUSH1 0x1E SWAP1 POP PUSH2 0xE57 JUMP JUMPDEST PUSH1 0x0 SWAP1 POP JUMPDEST SWAP2 SWAP1 POP JUMP JUMPDEST DUP3 PUSH1 0x7 PUSH1 0x1F ADD PUSH1 0x20 SWAP1 DIV DUP2 ADD SWAP3 DUP3 ISZERO PUSH2 0xEE5 JUMPI SWAP2 PUSH1 0x20 MUL DUP3 ADD PUSH1 0x0 JUMPDEST DUP4 DUP3 GT ISZERO PUSH2 0xEB6 JUMPI DUP4 MLOAD DUP4 DUP3 PUSH2 0x100 EXP DUP2 SLOAD DUP2 PUSH1 0xFF MUL NOT AND SWAP1 DUP4 PUSH1 0xFF AND MUL OR SWAP1 SSTORE POP SWAP3 PUSH1 0x20 ADD SWAP3 PUSH1 0x1 ADD PUSH1 0x20 DUP2 PUSH1 0x0 ADD DIV SWAP3 DUP4 ADD SWAP3 PUSH1 0x1 SUB MUL PUSH2 0xE78 JUMP JUMPDEST DUP1 ISZERO PUSH2 0xEE3 JUMPI DUP3 DUP2 PUSH2 0x100 EXP DUP2 SLOAD SWAP1 PUSH1 0xFF MUL NOT AND SWAP1 SSTORE PUSH1 0x1 ADD PUSH1 0x20 DUP2 PUSH1 0x0 ADD DIV SWAP3 DUP4 ADD SWAP3 PUSH1 0x1 SUB MUL PUSH2 0xEB6 JUMP JUMPDEST POP JUMPDEST POP SWAP1 POP PUSH2 0xEF2 SWAP2 SWAP1 PUSH2 0xF3D JUMP JUMPDEST POP SWAP1 JUMP JUMPDEST PUSH1 0x40 MLOAD DUP1 PUSH2 0x100 ADD PUSH1 0x40 MSTORE DUP1 PUSH1 0x8 SWAP1 PUSH1 0x20 DUP3 MUL DUP1 CALLDATASIZE DUP4 CALLDATACOPY DUP1 DUP3 ADD SWAP2 POP POP SWAP1 POP POP SWAP1 JUMP JUMPDEST POP DUP1 SLOAD PUSH1 0x0 DUP3 SSTORE PUSH1 0x2 MUL SWAP1 PUSH1 0x0 MSTORE PUSH1 0x20 PUSH1 0x0 KECCAK256 SWAP1 DUP2 ADD SWAP1 PUSH2 0xF3A SWAP2 SWAP1 PUSH2 0xF5A JUMP JUMPDEST POP JUMP JUMPDEST JUMPDEST DUP1 DUP3 GT ISZERO PUSH2 0xF56 JUMPI PUSH1 0x0 DUP2 PUSH1 0x0 SWAP1 SSTORE POP PUSH1 0x1 ADD PUSH2 0xF3E JUMP JUMPDEST POP SWAP1 JUMP JUMPDEST JUMPDEST DUP1 DUP3 GT ISZERO PUSH2 0xFA4 JUMPI PUSH1 0x0 DUP1 DUP3 ADD PUSH1 0x0 PUSH2 0x100 EXP DUP2 SLOAD SWAP1 PUSH20 0xFFFFFFFFFFFFFFFFFFFFFFFFFFFFFFFFFFFFFFFF MUL NOT AND SWAP1 SSTORE PUSH1 0x1 DUP3 ADD PUSH1 0x0 PUSH2 0xF9B SWAP2 SWAP1 PUSH2 0xFA8 JUMP JUMPDEST POP PUSH1 0x2 ADD PUSH2 0xF5B JUMP JUMPDEST POP SWAP1 JUMP JUMPDEST POP PUSH1 0x0 SWAP1 SSTORE JUMP JUMPDEST PUSH1 0x0 PUSH1 0x40 MLOAD SWAP1 POP SWAP1 JUMP JUMPDEST PUSH1 0x0 DUP1 REVERT JUMPDEST PUSH1 0x0 DUP1 REVERT JUMPDEST PUSH1 0x0 DUP2 SWAP1 POP SWAP2 SWAP1 POP JUMP JUMPDEST PUSH2 0xFD6 DUP2 PUSH2 0xFC3 JUMP JUMPDEST DUP2 EQ PUSH2 0xFE1 JUMPI PUSH1 0x0 DUP1 REVERT JUMPDEST POP JUMP JUMPDEST PUSH1 0x0 DUP2 CALLDATALOAD SWAP1 POP PUSH2 0xFF3 DUP2 PUSH2 0xFCD JUMP JUMPDEST SWAP3 SWAP2 POP POP JUMP JUMPDEST PUSH1 0x0 DUP1 REVERT JUMPDEST PUSH1 0x0 PUSH1 0x1F NOT PUSH1 0x1F DUP4 ADD AND SWAP1 POP SWAP2 SWAP1 POP JUMP JUMPDEST PUSH32 0x4E487B7100000000000000000000000000000000000000000000000000000000 PUSH1 0x0 MSTORE PUSH1 0x41 PUSH1 0x4 MSTORE PUSH1 0x24 PUSH1 0x0 REVERT JUMPDEST PUSH2 0x1047 DUP3 PUSH2 0xFFE JUMP JUMPDEST DUP2 ADD DUP2 DUP2 LT PUSH8 0xFFFFFFFFFFFFFFFF DUP3 GT OR ISZERO PUSH2 0x1066 JUMPI PUSH2 0x1065 PUSH2 0x100F JUMP JUMPDEST JUMPDEST DUP1 PUSH1 0x40 MSTORE POP POP POP JUMP JUMPDEST PUSH1 0x0 PUSH2 0x1079 PUSH2 0xFAF JUMP JUMPDEST SWAP1 POP PUSH2 0x1085 DUP3 DUP3 PUSH2 0x103E JUMP JUMPDEST SWAP2 SWAP1 POP JUMP JUMPDEST PUSH1 0x0 PUSH8 0xFFFFFFFFFFFFFFFF DUP3 GT ISZERO PUSH2 0x10A5 JUMPI PUSH2 0x10A4 PUSH2 0x100F JUMP JUMPDEST JUMPDEST PUSH1 0x20 DUP3 MUL SWAP1 POP PUSH1 0x20 DUP2 ADD SWAP1 POP SWAP2 SWAP1 POP JUMP JUMPDEST PUSH1 0x0 DUP1 REVERT JUMPDEST PUSH1 0x0 PUSH2 0x10CE PUSH2 0x10C9 DUP5 PUSH2 0x108A JUMP JUMPDEST PUSH2 0x106F JUMP JUMPDEST SWAP1 POP DUP1 DUP4 DUP3 MSTORE PUSH1 0x20 DUP3 ADD SWAP1 POP PUSH1 0x20 DUP5 MUL DUP4 ADD DUP6 DUP2 GT ISZERO PUSH2 0x10F1 JUMPI PUSH2 0x10F0 PUSH2 0x10B6 JUMP JUMPDEST JUMPDEST DUP4 JUMPDEST DUP2 DUP2 LT ISZERO PUSH2 0x111A JUMPI DUP1 PUSH2 0x1106 DUP9 DUP3 PUSH2 0xFE4 JUMP JUMPDEST DUP5 MSTORE PUSH1 0x20 DUP5 ADD SWAP4 POP POP PUSH1 0x20 DUP2 ADD SWAP1 POP PUSH2 0x10F3 JUMP JUMPDEST POP POP POP SWAP4 SWAP3 POP POP POP JUMP JUMPDEST PUSH1 0x0 DUP3 PUSH1 0x1F DUP4 ADD SLT PUSH2 0x1139 JUMPI PUSH2 0x1138 PUSH2 0xFF9 JUMP JUMPDEST JUMPDEST DUP2 CALLDATALOAD PUSH2 0x1149 DUP5 DUP3 PUSH1 0x20 DUP7 ADD PUSH2 0x10BB JUMP JUMPDEST SWAP2 POP POP SWAP3 SWAP2 POP POP JUMP JUMPDEST PUSH1 0x0 DUP1 PUSH1 0x40 DUP4 DUP6 SUB SLT ISZERO PUSH2 0x1169 JUMPI PUSH2 0x1168 PUSH2 0xFB9 JUMP JUMPDEST JUMPDEST PUSH1 0x0 PUSH2 0x1177 DUP6 DUP3 DUP7 ADD PUSH2 0xFE4 JUMP JUMPDEST SWAP3 POP POP PUSH1 0x20 DUP4 ADD CALLDATALOAD PUSH8 0xFFFFFFFFFFFFFFFF DUP2 GT ISZERO PUSH2 0x1198 JUMPI PUSH2 0x1197 PUSH2 0xFBE JUMP JUMPDEST JUMPDEST PUSH2 0x11A4 DUP6 DUP3 DUP7 ADD PUSH2 0x1124 JUMP JUMPDEST SWAP2 POP POP SWAP3 POP SWAP3 SWAP1 POP JUMP JUMPDEST PUSH1 0x0 PUSH8 0xFFFFFFFFFFFFFFFF DUP3 GT ISZERO PUSH2 0x11C9 JUMPI PUSH2 0x11C8 PUSH2 0x100F JUMP JUMPDEST JUMPDEST PUSH1 0x20 DUP3 MUL SWAP1 POP SWAP2 SWAP1 POP JUMP JUMPDEST PUSH1 0x0 PUSH1 0xFF DUP3 AND SWAP1 POP SWAP2 SWAP1 POP JUMP JUMPDEST PUSH2 0x11EA DUP2 PUSH2 0x11D4 JUMP JUMPDEST DUP2 EQ PUSH2 0x11F5 JUMPI PUSH1 0x0 DUP1 REVERT JUMPDEST POP JUMP JUMPDEST PUSH1 0x0 DUP2 CALLDATALOAD SWAP1 POP PUSH2 0x1207 DUP2 PUSH2 0x11E1 JUMP JUMPDEST SWAP3 SWAP2 POP POP JUMP JUMPDEST PUSH1 0x0 PUSH2 0x1220 PUSH2 0x121B DUP5 PUSH2 0x11AE JUMP JUMPDEST PUSH2 0x106F JUMP JUMPDEST SWAP1 POP DUP1 PUSH1 0x20 DUP5 MUL DUP4 ADD DUP6 DUP2 GT ISZERO PUSH2 0x123A JUMPI PUSH2 0x1239 PUSH2 0x10B6 JUMP JUMPDEST JUMPDEST DUP4 JUMPDEST DUP2 DUP2 LT ISZERO PUSH2 0x1263 JUMPI DUP1 PUSH2 0x124F DUP9 DUP3 PUSH2 0x11F8 JUMP JUMPDEST DUP5 MSTORE PUSH1 0x20 DUP5 ADD SWAP4 POP POP PUSH1 0x20 DUP2 ADD SWAP1 POP PUSH2 0x123C JUMP JUMPDEST POP POP POP SWAP4 SWAP3 POP POP POP JUMP JUMPDEST PUSH1 0x0 DUP3 PUSH1 0x1F DUP4 ADD SLT PUSH2 0x1282 JUMPI PUSH2 0x1281 PUSH2 0xFF9 JUMP JUMPDEST JUMPDEST PUSH1 0x7 PUSH2 0x128F DUP5 DUP3 DUP6 PUSH2 0x120D JUMP JUMPDEST SWAP2 POP POP SWAP3 SWAP2 POP POP JUMP JUMPDEST PUSH1 0x0 PUSH1 0xE0 DUP3 DUP5 SUB SLT ISZERO PUSH2 0x12AE JUMPI PUSH2 0x12AD PUSH2 0xFB9 JUMP JUMPDEST JUMPDEST PUSH1 0x0 PUSH2 0x12BC DUP5 DUP3 DUP6 ADD PUSH2 0x126D JUMP JUMPDEST SWAP2 POP POP SWAP3 SWAP2 POP POP JUMP JUMPDEST PUSH2 0x12CE DUP2 PUSH2 0xFC3 JUMP JUMPDEST DUP3 MSTORE POP POP JUMP JUMPDEST PUSH1 0x0 PUSH1 0x20 DUP3 ADD SWAP1 POP PUSH2 0x12E9 PUSH1 0x0 DUP4 ADD DUP5 PUSH2 0x12C5 JUMP JUMPDEST SWAP3 SWAP2 POP POP JUMP JUMPDEST PUSH1 0x0 PUSH1 0x20 DUP3 DUP5 SUB SLT ISZERO PUSH2 0x1305 JUMPI PUSH2 0x1304 PUSH2 0xFB9 JUMP JUMPDEST JUMPDEST PUSH1 0x0 PUSH2 0x1313 DUP5 DUP3 DUP6 ADD PUSH2 0xFE4 JUMP JUMPDEST SWAP2 POP POP SWAP3 SWAP2 POP POP JUMP JUMPDEST PUSH2 0x1325 DUP2 PUSH2 0x11D4 JUMP JUMPDEST DUP3 MSTORE POP POP JUMP JUMPDEST PUSH1 0x0 PUSH1 0x20 DUP3 ADD SWAP1 POP PUSH2 0x1340 PUSH1 0x0 DUP4 ADD DUP5 PUSH2 0x131C JUMP JUMPDEST SWAP3 SWAP2 POP POP JUMP JUMPDEST PUSH1 0x0 PUSH20 0xFFFFFFFFFFFFFFFFFFFFFFFFFFFFFFFFFFFFFFFF DUP3 AND SWAP1 POP SWAP2 SWAP1 POP JUMP JUMPDEST PUSH1 0x0 PUSH2 0x1371 DUP3 PUSH2 0x1346 JUMP JUMPDEST SWAP1 POP SWAP2 SWAP1 POP JUMP JUMPDEST PUSH2 0x1381 DUP2 PUSH2 0x1366 JUMP JUMPDEST DUP3 MSTORE POP POP JUMP JUMPDEST PUSH1 0x0 PUSH1 0x20 DUP3 ADD SWAP1 POP PUSH2 0x139C PUSH1 0x0 DUP4 ADD DUP5 PUSH2 0x1378 JUMP JUMPDEST SWAP3 SWAP2 POP POP JUMP JUMPDEST PUSH1 0x0 DUP2 ISZERO ISZERO SWAP1 POP SWAP2 SWAP1 POP JUMP JUMPDEST PUSH2 0x13B7 DUP2 PUSH2 0x13A2 JUMP JUMPDEST DUP3 MSTORE POP POP JUMP JUMPDEST PUSH1 0x0 PUSH1 0x20 DUP3 ADD SWAP1 POP PUSH2 0x13D2 PUSH1 0x0 DUP4 ADD DUP5 PUSH2 0x13AE JUMP JUMPDEST SWAP3 SWAP2 POP POP JUMP JUMPDEST PUSH1 0x0 DUP3 DUP3 MSTORE PUSH1 0x20 DUP3 ADD SWAP1 POP SWAP3 SWAP2 POP POP JUMP JUMPDEST PUSH32 0x4E6F74206F776E65720000000000000000000000000000000000000000000000 PUSH1 0x0 DUP3 ADD MSTORE POP JUMP JUMPDEST PUSH1 0x0 PUSH2 0x141F PUSH1 0x9 DUP4 PUSH2 0x13D8 JUMP JUMPDEST SWAP2 POP PUSH2 0x142A DUP3 PUSH2 0x13E9 JUMP JUMPDEST PUSH1 0x20 DUP3 ADD SWAP1 POP SWAP2 SWAP1 POP JUMP JUMPDEST PUSH1 0x0 PUSH1 0x20 DUP3 ADD SWAP1 POP DUP2 DUP2 SUB PUSH1 0x0 DUP4 ADD MSTORE PUSH2 0x144E DUP2 PUSH2 0x1412 JUMP JUMPDEST SWAP1 POP SWAP2 SWAP1 POP JUMP JUMPDEST PUSH32 0x416C7265616479206F70656E0000000000000000000000000000000000000000 PUSH1 0x0 DUP3 ADD MSTORE POP JUMP JUMPDEST PUSH1 0x0 PUSH2 0x148B PUSH1 0xC DUP4 PUSH2 0x13D8 JUMP JUMPDEST SWAP2 POP PUSH2 0x1496 DUP3 PUSH2 0x1455 JUMP JUMPDEST PUSH1 0x20 DUP3 ADD SWAP1 POP SWAP2 SWAP1 POP JUMP JUMPDEST PUSH1 0x0 PUSH1 0x20 DUP3 ADD SWAP1 POP DUP2 DUP2 SUB PUSH1 0x0 DUP4 ADD MSTORE PUSH2 0x14BA DUP2 PUSH2 0x147E JUMP JUMPDEST SWAP1 POP SWAP2 SWAP1 POP JUMP JUMPDEST PUSH1 0x0 PUSH1 0x40 DUP3 ADD SWAP1 POP PUSH2 0x14D6 PUSH1 0x0 DUP4 ADD DUP6 PUSH2 0x1378 JUMP JUMPDEST PUSH2 0x14E3 PUSH1 0x20 DUP4 ADD DUP5 PUSH2 0x1378 JUMP JUMPDEST SWAP4 SWAP3 POP POP POP JUMP JUMPDEST PUSH32 0x4C6F747465727920636C6F736564000000000000000000000000000000000000 PUSH1 0x0 DUP3 ADD MSTORE POP JUMP JUMPDEST PUSH1 0x0 PUSH2 0x1520 PUSH1 0xE DUP4 PUSH2 0x13D8 JUMP JUMPDEST SWAP2 POP PUSH2 0x152B DUP3 PUSH2 0x14EA JUMP JUMPDEST PUSH1 0x20 DUP3 ADD SWAP1 POP SWAP2 SWAP1 POP JUMP JUMPDEST PUSH1 0x0 PUSH1 0x20 DUP3 ADD SWAP1 POP DUP2 DUP2 SUB PUSH1 0x0 DUP4 ADD MSTORE PUSH2 0x154F DUP2 PUSH2 0x1513 JUMP JUMPDEST SWAP1 POP SWAP2 SWAP1 POP JUMP JUMPDEST PUSH32 0x496E636F727265637420656E7472792066656500000000000000000000000000 PUSH1 0x0 DUP3 ADD MSTORE POP JUMP JUMPDEST PUSH1 0x0 PUSH2 0x158C PUSH1 0x13 DUP4 PUSH2 0x13D8 JUMP JUMPDEST SWAP2 POP PUSH2 0x1597 DUP3 PUSH2 0x1556 JUMP JUMPDEST PUSH1 0x20 DUP3 ADD SWAP1 POP SWAP2 SWAP1 POP JUMP JUMPDEST PUSH1 0x0 PUSH1 0x20 DUP3 ADD SWAP1 POP DUP2 DUP2 SUB PUSH1 0x0 DUP4 ADD MSTORE PUSH2 0x15BB DUP2 PUSH2 0x157F JUMP JUMPDEST SWAP1 POP SWAP2 SWAP1 POP JUMP JUMPDEST PUSH32 0x4E487B7100000000000000000000000000000000000000000000000000000000 PUSH1 0x0 MSTORE PUSH1 0x32 PUSH1 0x4 MSTORE PUSH1 0x24 PUSH1 0x0 REVERT JUMPDEST PUSH32 0x496E76616C6964206E756D626572000000000000000000000000000000000000 PUSH1 0x0 DUP3 ADD MSTORE POP JUMP JUMPDEST PUSH1 0x0 PUSH2 0x1627 PUSH1 0xE DUP4 PUSH2 0x13D8 JUMP JUMPDEST SWAP2 POP PUSH2 0x1632 DUP3 PUSH2 0x15F1 JUMP JUMPDEST PUSH1 0x20 DUP3 ADD SWAP1 POP SWAP2 SWAP1 POP JUMP JUMPDEST PUSH1 0x0 PUSH1 0x20 DUP3 ADD SWAP1 POP DUP2 DUP2 SUB PUSH1 0x0 DUP4 ADD MSTORE PUSH2 0x1656 DUP2 PUSH2 0x161A JUMP JUMPDEST SWAP1 POP SWAP2 SWAP1 POP JUMP JUMPDEST PUSH32 0x4E487B7100000000000000000000000000000000000000000000000000000000 PUSH1 0x0 MSTORE PUSH1 0x11 PUSH1 0x4 MSTORE PUSH1 0x24 PUSH1 0x0 REVERT JUMPDEST PUSH1 0x0 PUSH2 0x1697 DUP3 PUSH2 0xFC3 JUMP JUMPDEST SWAP2 POP PUSH32 0xFFFFFFFFFFFFFFFFFFFFFFFFFFFFFFFFFFFFFFFFFFFFFFFFFFFFFFFFFFFFFFFF DUP3 SUB PUSH2 0x16C9 JUMPI PUSH2 0x16C8 PUSH2 0x165D JUMP JUMPDEST JUMPDEST PUSH1 0x1 DUP3 ADD SWAP1 POP SWAP2 SWAP1 POP JUMP JUMPDEST PUSH1 0x0 DUP2 SWAP1 POP SWAP2 SWAP1 POP JUMP JUMPDEST PUSH2 0x16E7 DUP2 PUSH2 0x16D4 JUMP JUMPDEST DUP3 MSTORE POP POP JUMP JUMPDEST PUSH1 0x0 PUSH8 0xFFFFFFFFFFFFFFFF DUP3 AND SWAP1 POP SWAP2 SWAP1 POP JUMP JUMPDEST PUSH2 0x170A DUP2 PUSH2 0x16ED JUMP JUMPDEST DUP3 MSTORE POP POP JUMP JUMPDEST PUSH1 0x0 PUSH2 0xFFFF DUP3 AND SWAP1 POP SWAP2 SWAP1 POP JUMP JUMPDEST PUSH2 0x1727 DUP2 PUSH2 0x1710 JUMP JUMPDEST DUP3 MSTORE POP POP JUMP JUMPDEST PUSH1 0x0 PUSH4 0xFFFFFFFF DUP3 AND SWAP1 POP SWAP2 SWAP1 POP JUMP JUMPDEST PUSH2 0x1746 DUP2 PUSH2 0x172D JUMP JUMPDEST DUP3 MSTORE POP POP JUMP JUMPDEST PUSH1 0x0 PUSH1 0xA0 DUP3 ADD SWAP1 POP PUSH2 0x1761 PUSH1 0x0 DUP4 ADD DUP9 PUSH2 0x16DE JUMP JUMPDEST PUSH2 0x176E PUSH1 0x20 DUP4 ADD DUP8 PUSH2 0x1701 JUMP JUMPDEST PUSH2 0x177B PUSH1 0x40 DUP4 ADD DUP7 PUSH2 0x171E JUMP JUMPDEST PUSH2 0x1788 PUSH1 0x60 DUP4 ADD DUP6 PUSH2 0x173D JUMP JUMPDEST PUSH2 0x1795 PUSH1 0x80 DUP4 ADD DUP5 PUSH2 0x173D JUMP JUMPDEST SWAP7 SWAP6 POP POP POP POP POP POP JUMP JUMPDEST PUSH1 0x0 DUP2 MLOAD SWAP1 POP PUSH2 0x17AE DUP2 PUSH2 0xFCD JUMP JUMPDEST SWAP3 SWAP2 POP POP JUMP JUMPDEST PUSH1 0x0 PUSH1 0x20 DUP3 DUP5 SUB SLT ISZERO PUSH2 0x17CA JUMPI PUSH2 0x17C9 PUSH2 0xFB9 JUMP JUMPDEST JUMPDEST PUSH1 0x0 PUSH2 0x17D8 DUP5 DUP3 DUP6 ADD PUSH2 0x179F JUMP JUMPDEST SWAP2 POP POP SWAP3 SWAP2 POP POP JUMP JUMPDEST PUSH32 0x4E487B7100000000000000000000000000000000000000000000000000000000 PUSH1 0x0 MSTORE PUSH1 0x12 PUSH1 0x4 MSTORE PUSH1 0x24 PUSH1 0x0 REVERT JUMPDEST PUSH1 0x0 PUSH2 0x181B DUP3 PUSH2 0xFC3 JUMP JUMPDEST SWAP2 POP PUSH2 0x1826 DUP4 PUSH2 0xFC3 JUMP JUMPDEST SWAP3 POP DUP3 PUSH2 0x1836 JUMPI PUSH2 0x1835 PUSH2 0x17E1 JUMP JUMPDEST JUMPDEST DUP3 DUP3 MOD SWAP1 POP SWAP3 SWAP2 POP POP JUMP JUMPDEST PUSH1 0x0 PUSH2 0x184C DUP3 PUSH2 0xFC3 JUMP JUMPDEST SWAP2 POP PUSH2 0x1857 DUP4 PUSH2 0xFC3 JUMP JUMPDEST SWAP3 POP DUP3 DUP3 ADD SWAP1 POP DUP1 DUP3 GT ISZERO PUSH2 0x186F JUMPI PUSH2 0x186E PUSH2 0x165D JUMP JUMPDEST JUMPDEST SWAP3 SWAP2 POP POP JUMP JUMPDEST PUSH1 0x0 PUSH1 0x7 SWAP1 POP SWAP2 SWAP1 POP JUMP JUMPDEST PUSH1 0x0 DUP2 SWAP1 POP SWAP3 SWAP2 POP POP JUMP JUMPDEST PUSH1 0x0 DUP2 SWAP1 POP SWAP2 SWAP1 POP JUMP JUMPDEST PUSH2 0x189E DUP2 PUSH2 0x11D4 JUMP JUMPDEST DUP3 MSTORE POP POP JUMP JUMPDEST PUSH1 0x0 DUP2 PUSH1 0x0 SHR SWAP1 POP SWAP2 SWAP1 POP JUMP JUMPDEST PUSH1 0x0 PUSH1 0xFF DUP3 AND SWAP1 POP SWAP2 SWAP1 POP JUMP JUMPDEST PUSH1 0x0 PUSH2 0x18D1 PUSH2 0x18CC DUP4 PUSH2 0x18A4 JUMP JUMPDEST PUSH2 0x18B1 JUMP JUMPDEST SWAP1 POP SWAP2 SWAP1 POP JUMP JUMPDEST PUSH1 0x0 DUP2 PUSH1 0x8 SHR SWAP1 POP SWAP2 SWAP1 POP JUMP JUMPDEST PUSH1 0x0 PUSH2 0x18F8 PUSH2 0x18F3 DUP4 PUSH2 0x18D8 JUMP JUMPDEST PUSH2 0x18B1 JUMP JUMPDEST SWAP1 POP SWAP2 SWAP1 POP JUMP JUMPDEST PUSH1 0x0 DUP2 PUSH1 0x10 SHR SWAP1 POP SWAP2 SWAP1 POP JUMP JUMPDEST PUSH1 0x0 PUSH2 0x191F PUSH2 0x191A DUP4 PUSH2 0x18FF JUMP JUMPDEST PUSH2 0x18B1 JUMP JUMPDEST SWAP1 POP SWAP2 SWAP1 POP JUMP JUMPDEST PUSH1 0x0 DUP2 PUSH1 0x18 SHR SWAP1 POP SWAP2 SWAP1 POP JUMP JUMPDEST PUSH1 0x0 PUSH2 0x1946 PUSH2 0x1941 DUP4 PUSH2 0x1926 JUMP JUMPDEST PUSH2 0x18B1 JUMP JUMPDEST SWAP1 POP SWAP2 SWAP1 POP JUMP JUMPDEST PUSH1 0x0 DUP2 PUSH1 0x20 SHR SWAP1 POP SWAP2 SWAP1 POP JUMP JUMPDEST PUSH1 0x0 PUSH2 0x196D PUSH2 0x1968 DUP4 PUSH2 0x194D JUMP JUMPDEST PUSH2 0x18B1 JUMP JUMPDEST SWAP1 POP SWAP2 SWAP1 POP JUMP JUMPDEST PUSH1 0x0 DUP2 PUSH1 0x28 SHR SWAP1 POP SWAP2 SWAP1 POP JUMP JUMPDEST PUSH1 0x0 PUSH2 0x1994 PUSH2 0x198F DUP4 PUSH2 0x1974 JUMP JUMPDEST PUSH2 0x18B1 JUMP JUMPDEST SWAP1 POP SWAP2 SWAP1 POP JUMP JUMPDEST PUSH1 0x0 DUP2 PUSH1 0x30 SHR SWAP1 POP SWAP2 SWAP1 POP JUMP JUMPDEST PUSH1 0x0 PUSH2 0x19BB PUSH2 0x19B6 DUP4 PUSH2 0x199B JUMP JUMPDEST PUSH2 0x18B1 JUMP JUMPDEST SWAP1 POP SWAP2 SWAP1 POP JUMP JUMPDEST PUSH1 0x0 DUP2 PUSH1 0x38 SHR SWAP1 POP SWAP2 SWAP1 POP JUMP JUMPDEST PUSH1 0x0 PUSH2 0x19E2 PUSH2 0x19DD DUP4 PUSH2 0x19C2 JUMP JUMPDEST PUSH2 0x18B1 JUMP JUMPDEST SWAP1 POP SWAP2 SWAP1 POP JUMP JUMPDEST PUSH1 0x0 DUP2 PUSH1 0x40 SHR SWAP1 POP SWAP2 SWAP1 POP JUMP JUMPDEST PUSH1 0x0 PUSH2 0x1A09 PUSH2 0x1A04 DUP4 PUSH2 0x19E9 JUMP JUMPDEST PUSH2 0x18B1 JUMP JUMPDEST SWAP1 POP SWAP2 SWAP1 POP JUMP JUMPDEST PUSH1 0x0 DUP2 PUSH1 0x48 SHR SWAP1 POP SWAP2 SWAP1 POP JUMP JUMPDEST PUSH1 0x0 PUSH2 0x1A30 PUSH2 0x1A2B DUP4 PUSH2 0x1A10 JUMP JUMPDEST PUSH2 0x18B1 JUMP JUMPDEST SWAP1 POP SWAP2 SWAP1 POP JUMP JUMPDEST PUSH1 0x0 DUP2 PUSH1 0x50 SHR SWAP1 POP SWAP2 SWAP1 POP JUMP JUMPDEST PUSH1 0x0 PUSH2 0x1A57 PUSH2 0x1A52 DUP4 PUSH2 0x1A37 JUMP JUMPDEST PUSH2 0x18B1 JUMP JUMPDEST SWAP1 POP SWAP2 SWAP1 POP JUMP JUMPDEST PUSH1 0x0 DUP2 PUSH1 0x58 SHR SWAP1 POP SWAP2 SWAP1 POP JUMP JUMPDEST PUSH1 0x0 PUSH2 0x1A7E PUSH2 0x1A79 DUP4 PUSH2 0x1A5E JUMP JUMPDEST PUSH2 0x18B1 JUMP JUMPDEST SWAP1 POP SWAP2 SWAP1 POP JUMP JUMPDEST PUSH1 0x0 DUP2 PUSH1 0x60 SHR SWAP1 POP SWAP2 SWAP1 POP JUMP JUMPDEST PUSH1 0x0 PUSH2 0x1AA5 PUSH2 0x1AA0 DUP4 PUSH2 0x1A85 JUMP JUMPDEST PUSH2 0x18B1 JUMP JUMPDEST SWAP1 POP SWAP2 SWAP1 POP JUMP JUMPDEST PUSH1 0x0 DUP2 PUSH1 0x68 SHR SWAP1 POP SWAP2 SWAP1 POP JUMP JUMPDEST PUSH1 0x0 PUSH2 0x1ACC PUSH2 0x1AC7 DUP4 PUSH2 0x1AAC JUMP JUMPDEST PUSH2 0x18B1 JUMP JUMPDEST SWAP1 POP SWAP2 SWAP1 POP JUMP JUMPDEST PUSH1 0x0 DUP2 PUSH1 0x70 SHR SWAP1 POP SWAP2 SWAP1 POP JUMP JUMPDEST PUSH1 0x0 PUSH2 0x1AF3 PUSH2 0x1AEE DUP4 PUSH2 0x1AD3 JUMP JUMPDEST PUSH2 0x18B1 JUMP JUMPDEST SWAP1 POP SWAP2 SWAP1 POP JUMP JUMPDEST PUSH1 0x0 DUP2 PUSH1 0x78 SHR SWAP1 POP SWAP2 SWAP1 POP JUMP JUMPDEST PUSH1 0x0 PUSH2 0x1B1A PUSH2 0x1B15 DUP4 PUSH2 0x1AFA JUMP JUMPDEST PUSH2 0x18B1 JUMP JUMPDEST SWAP1 POP SWAP2 SWAP1 POP JUMP JUMPDEST PUSH1 0x0 DUP2 PUSH1 0x80 SHR SWAP1 POP SWAP2 SWAP1 POP JUMP JUMPDEST PUSH1 0x0 PUSH2 0x1B41 PUSH2 0x1B3C DUP4 PUSH2 0x1B21 JUMP JUMPDEST PUSH2 0x18B1 JUMP JUMPDEST SWAP1 POP SWAP2 SWAP1 POP JUMP JUMPDEST PUSH1 0x0 DUP2 PUSH1 0x88 SHR SWAP1 POP SWAP2 SWAP1 POP JUMP JUMPDEST PUSH1 0x0 PUSH2 0x1B68 PUSH2 0x1B63 DUP4 PUSH2 0x1B48 JUMP JUMPDEST PUSH2 0x18B1 JUMP JUMPDEST SWAP1 POP SWAP2 SWAP1 POP JUMP JUMPDEST PUSH1 0x0 DUP2 PUSH1 0x90 SHR SWAP1 POP SWAP2 SWAP1 POP JUMP JUMPDEST PUSH1 0x0 PUSH2 0x1B8F PUSH2 0x1B8A DUP4 PUSH2 0x1B6F JUMP JUMPDEST PUSH2 0x18B1 JUMP JUMPDEST SWAP1 POP SWAP2 SWAP1 POP JUMP JUMPDEST PUSH1 0x0 DUP2 PUSH1 0x98 SHR SWAP1 POP SWAP2 SWAP1 POP JUMP JUMPDEST PUSH1 0x0 PUSH2 0x1BB6 PUSH2 0x1BB1 DUP4 PUSH2 0x1B96 JUMP JUMPDEST PUSH2 0x18B1 JUMP JUMPDEST SWAP1 POP SWAP2 SWAP1 POP JUMP JUMPDEST PUSH1 0x0 DUP2 PUSH1 0xA0 SHR SWAP1 POP SWAP2 SWAP1 POP JUMP JUMPDEST PUSH1 0x0 PUSH2 0x1BDD PUSH2 0x1BD8 DUP4 PUSH2 0x1BBD JUMP JUMPDEST PUSH2 0x18B1 JUMP JUMPDEST SWAP1 POP SWAP2 SWAP1 POP JUMP JUMPDEST PUSH1 0x0 DUP2 PUSH1 0xA8 SHR SWAP1 POP SWAP2 SWAP1 POP JUMP JUMPDEST PUSH1 0x0 PUSH2 0x1C04 PUSH2 0x1BFF DUP4 PUSH2 0x1BE4 JUMP JUMPDEST PUSH2 0x18B1 JUMP JUMPDEST SWAP1 POP SWAP2 SWAP1 POP JUMP JUMPDEST PUSH1 0x0 DUP2 PUSH1 0xB0 SHR SWAP1 POP SWAP2 SWAP1 POP JUMP JUMPDEST PUSH1 0x0 PUSH2 0x1C2B PUSH2 0x1C26 DUP4 PUSH2 0x1C0B JUMP JUMPDEST PUSH2 0x18B1 JUMP JUMPDEST SWAP1 POP SWAP2 SWAP1 POP JUMP JUMPDEST PUSH1 0x0 DUP2 PUSH1 0xB8 SHR SWAP1 POP SWAP2 SWAP1 POP JUMP JUMPDEST PUSH1 0x0 PUSH2 0x1C52 PUSH2 0x1C4D DUP4 PUSH2 0x1C32 JUMP JUMPDEST PUSH2 0x18B1 JUMP JUMPDEST SWAP1 POP SWAP2 SWAP1 POP JUMP JUMPDEST PUSH1 0x0 DUP2 PUSH1 0xC0 SHR SWAP1 POP SWAP2 SWAP1 POP JUMP JUMPDEST PUSH1 0x0 PUSH2 0x1C79 PUSH2 0x1C74 DUP4 PUSH2 0x1C59 JUMP JUMPDEST PUSH2 0x18B1 JUMP JUMPDEST SWAP1 POP SWAP2 SWAP1 POP JUMP JUMPDEST PUSH1 0x0 DUP2 PUSH1 0xC8 SHR SWAP1 POP SWAP2 SWAP1 POP JUMP JUMPDEST PUSH1 0x0 PUSH2 0x1CA0 PUSH2 0x1C9B DUP4 PUSH2 0x1C80 JUMP JUMPDEST PUSH2 0x18B1 JUMP JUMPDEST SWAP1 POP SWAP2 SWAP1 POP JUMP JUMPDEST PUSH1 0x0 DUP2 PUSH1 0xD0 SHR SWAP1 POP SWAP2 SWAP1 POP JUMP JUMPDEST PUSH1 0x0 PUSH2 0x1CC7 PUSH2 0x1CC2 DUP4 PUSH2 0x1CA7 JUMP JUMPDEST PUSH2 0x18B1 JUMP JUMPDEST SWAP1 POP SWAP2 SWAP1 POP JUMP JUMPDEST PUSH1 0x0 DUP2 PUSH1 0xD8 SHR SWAP1 POP SWAP2 SWAP1 POP JUMP JUMPDEST PUSH1 0x0 PUSH2 0x1CEE PUSH2 0x1CE9 DUP4 PUSH2 0x1CCE JUMP JUMPDEST PUSH2 0x18B1 JUMP JUMPDEST SWAP1 POP SWAP2 SWAP1 POP JUMP JUMPDEST PUSH1 0x0 DUP2 PUSH1 0xE0 SHR SWAP1 POP SWAP2 SWAP1 POP JUMP JUMPDEST PUSH1 0x0 PUSH2 0x1D15 PUSH2 0x1D10 DUP4 PUSH2 0x1CF5 JUMP JUMPDEST PUSH2 0x18B1 JUMP JUMPDEST SWAP1 POP SWAP2 SWAP1 POP JUMP JUMPDEST PUSH1 0x0 DUP2 PUSH1 0xE8 SHR SWAP1 POP SWAP2 SWAP1 POP JUMP JUMPDEST PUSH1 0x0 PUSH2 0x1D3C PUSH2 0x1D37 DUP4 PUSH2 0x1D1C JUMP JUMPDEST PUSH2 0x18B1 JUMP JUMPDEST SWAP1 POP SWAP2 SWAP1 POP JUMP JUMPDEST PUSH1 0x0 DUP2 PUSH1 0xF0 SHR SWAP1 POP SWAP2 SWAP1 POP JUMP JUMPDEST PUSH1 0x0 PUSH2 0x1D63 PUSH2 0x1D5E DUP4 PUSH2 0x1D43 JUMP JUMPDEST PUSH2 0x18B1 JUMP JUMPDEST SWAP1 POP SWAP2 SWAP1 POP JUMP JUMPDEST PUSH1 0x0 DUP2 PUSH1 0xF8 SHR SWAP1 POP SWAP2 SWAP1 POP JUMP JUMPDEST PUSH1 0x0 PUSH2 0x1D8A PUSH2 0x1D85 DUP4 PUSH2 0x1D6A JUMP JUMPDEST PUSH2 0x18B1 JUMP JUMPDEST SWAP1 POP SWAP2 SWAP1 POP JUMP JUMPDEST PUSH2 0x1D9A DUP2 PUSH2 0x1875 JUMP JUMPDEST PUSH2 0x1DA4 DUP2 DUP5 PUSH2 0x1880 JUMP JUMPDEST SWAP3 POP DUP3 PUSH2 0x1DB0 DUP4 PUSH2 0x188B JUMP JUMPDEST PUSH1 0x0 DUP1 ISZERO PUSH2 0x20DC JUMPI JUMPDEST DUP4 PUSH1 0x1 PUSH1 0x20 SUB DUP3 ADD LT ISZERO PUSH2 0x20DB JUMPI DUP2 SLOAD PUSH2 0x1DDB DUP8 PUSH2 0x1DD6 DUP4 PUSH2 0x18BE JUMP JUMPDEST PUSH2 0x1895 JUMP JUMPDEST PUSH1 0x20 DUP8 ADD SWAP7 POP PUSH2 0x1DF3 DUP8 PUSH2 0x1DEE DUP4 PUSH2 0x18E5 JUMP JUMPDEST PUSH2 0x1895 JUMP JUMPDEST PUSH1 0x20 DUP8 ADD SWAP7 POP PUSH2 0x1E0B DUP8 PUSH2 0x1E06 DUP4 PUSH2 0x190C JUMP JUMPDEST PUSH2 0x1895 JUMP JUMPDEST PUSH1 0x20 DUP8 ADD SWAP7 POP PUSH2 0x1E23 DUP8 PUSH2 0x1E1E DUP4 PUSH2 0x1933 JUMP JUMPDEST PUSH2 0x1895 JUMP JUMPDEST PUSH1 0x20 DUP8 ADD SWAP7 POP PUSH2 0x1E3B DUP8 PUSH2 0x1E36 DUP4 PUSH2 0x195A JUMP JUMPDEST PUSH2 0x1895 JUMP JUMPDEST PUSH1 0x20 DUP8 ADD SWAP7 POP PUSH2 0x1E53 DUP8 PUSH2 0x1E4E DUP4 PUSH2 0x1981 JUMP JUMPDEST PUSH2 0x1895 JUMP JUMPDEST PUSH1 0x20 DUP8 ADD SWAP7 POP PUSH2 0x1E6B DUP8 PUSH2 0x1E66 DUP4 PUSH2 0x19A8 JUMP JUMPDEST PUSH2 0x1895 JUMP JUMPDEST PUSH1 0x20 DUP8 ADD SWAP7 POP PUSH2 0x1E83 DUP8 PUSH2 0x1E7E DUP4 PUSH2 0x19CF JUMP JUMPDEST PUSH2 0x1895 JUMP JUMPDEST PUSH1 0x20 DUP8 ADD SWAP7 POP PUSH2 0x1E9B DUP8 PUSH2 0x1E96 DUP4 PUSH2 0x19F6 JUMP JUMPDEST PUSH2 0x1895 JUMP JUMPDEST PUSH1 0x20 DUP8 ADD SWAP7 POP PUSH2 0x1EB3 DUP8 PUSH2 0x1EAE DUP4 PUSH2 0x1A1D JUMP JUMPDEST PUSH2 0x1895 JUMP JUMPDEST PUSH1 0x20 DUP8 ADD SWAP7 POP PUSH2 0x1ECB DUP8 PUSH2 0x1EC6 DUP4 PUSH2 0x1A44 JUMP JUMPDEST PUSH2 0x1895 JUMP JUMPDEST PUSH1 0x20 DUP8 ADD SWAP7 POP PUSH2 0x1EE3 DUP8 PUSH2 0x1EDE DUP4 PUSH2 0x1A6B JUMP JUMPDEST PUSH2 0x1895 JUMP JUMPDEST PUSH1 0x20 DUP8 ADD SWAP7 POP PUSH2 0x1EFB DUP8 PUSH2 0x1EF6 DUP4 PUSH2 0x1A92 JUMP JUMPDEST PUSH2 0x1895 JUMP JUMPDEST PUSH1 0x20 DUP8 ADD SWAP7 POP PUSH2 0x1F13 DUP8 PUSH2 0x1F0E DUP4 PUSH2 0x1AB9 JUMP JUMPDEST PUSH2 0x1895 JUMP JUMPDEST PUSH1 0x20 DUP8 ADD SWAP7 POP PUSH2 0x1F2B DUP8 PUSH2 0x1F26 DUP4 PUSH2 0x1AE0 JUMP JUMPDEST PUSH2 0x1895 JUMP JUMPDEST PUSH1 0x20 DUP8 ADD SWAP7 POP PUSH2 0x1F43 DUP8 PUSH2 0x1F3E DUP4 PUSH2 0x1B07 JUMP JUMPDEST PUSH2 0x1895 JUMP JUMPDEST PUSH1 0x20 DUP8 ADD SWAP7 POP PUSH2 0x1F5B DUP8 PUSH2 0x1F56 DUP4 PUSH2 0x1B2E JUMP JUMPDEST PUSH2 0x1895 JUMP JUMPDEST PUSH1 0x20 DUP8 ADD SWAP7 POP PUSH2 0x1F73 DUP8 PUSH2 0x1F6E DUP4 PUSH2 0x1B55 JUMP JUMPDEST PUSH2 0x1895 JUMP JUMPDEST PUSH1 0x20 DUP8 ADD SWAP7 POP PUSH2 0x1F8B DUP8 PUSH2 0x1F86 DUP4 PUSH2 0x1B7C JUMP JUMPDEST PUSH2 0x1895 JUMP JUMPDEST PUSH1 0x20 DUP8 ADD SWAP7 POP PUSH2 0x1FA3 DUP8 PUSH2 0x1F9E DUP4 PUSH2 0x1BA3 JUMP JUMPDEST PUSH2 0x1895 JUMP JUMPDEST PUSH1 0x20 DUP8 ADD SWAP7 POP PUSH2 0x1FBB DUP8 PUSH2 0x1FB6 DUP4 PUSH2 0x1BCA JUMP JUMPDEST PUSH2 0x1895 JUMP JUMPDEST PUSH1 0x20 DUP8 ADD SWAP7 POP PUSH2 0x1FD3 DUP8 PUSH2 0x1FCE DUP4 PUSH2 0x1BF1 JUMP JUMPDEST PUSH2 0x1895 JUMP JUMPDEST PUSH1 0x20 DUP8 ADD SWAP7 POP PUSH2 0x1FEB DUP8 PUSH2 0x1FE6 DUP4 PUSH2 0x1C18 JUMP JUMPDEST PUSH2 0x1895 JUMP JUMPDEST PUSH1 0x20 DUP8 ADD SWAP7 POP PUSH2 0x2003 DUP8 PUSH2 0x1FFE DUP4 PUSH2 0x1C3F JUMP JUMPDEST PUSH2 0x1895 JUMP JUMPDEST PUSH1 0x20 DUP8 ADD SWAP7 POP PUSH2 0x201B DUP8 PUSH2 0x2016 DUP4 PUSH2 0x1C66 JUMP JUMPDEST PUSH2 0x1895 JUMP JUMPDEST PUSH1 0x20 DUP8 ADD SWAP7 POP PUSH2 0x2033 DUP8 PUSH2 0x202E DUP4 PUSH2 0x1C8D JUMP JUMPDEST PUSH2 0x1895 JUMP JUMPDEST PUSH1 0x20 DUP8 ADD SWAP7 POP PUSH2 0x204B DUP8 PUSH2 0x2046 DUP4 PUSH2 0x1CB4 JUMP JUMPDEST PUSH2 0x1895 JUMP JUMPDEST PUSH1 0x20 DUP8 ADD SWAP7 POP PUSH2 0x2063 DUP8 PUSH2 0x205E DUP4 PUSH2 0x1CDB JUMP JUMPDEST PUSH2 0x1895 JUMP JUMPDEST PUSH1 0x20 DUP8 ADD SWAP7 POP PUSH2 0x207B DUP8 PUSH2 0x2076 DUP4 PUSH2 0x1D02 JUMP JUMPDEST PUSH2 0x1895 JUMP JUMPDEST PUSH1 0x20 DUP8 ADD SWAP7 POP PUSH2 0x2093 DUP8 PUSH2 0x208E DUP4 PUSH2 0x1D29 JUMP JUMPDEST PUSH2 0x1895 JUMP JUMPDEST PUSH1 0x20 DUP8 ADD SWAP7 POP PUSH2 0x20AB DUP8 PUSH2 0x20A6 DUP4 PUSH2 0x1D50 JUMP JUMPDEST PUSH2 0x1895 JUMP JUMPDEST PUSH1 0x20 DUP8 ADD SWAP7 POP PUSH2 0x20C3 DUP8 PUSH2 0x20BE DUP4 PUSH2 0x1D77 JUMP JUMPDEST PUSH2 0x1895 JUMP JUMPDEST PUSH1 0x20 DUP8 ADD SWAP7 POP PUSH1 0x1 DUP4 ADD SWAP3 POP POP PUSH1 0x20 DUP2 ADD SWAP1 POP PUSH2 0x1DB9 JUMP JUMPDEST JUMPDEST PUSH1 0x1 ISZERO PUSH2 0x25A7 JUMPI DUP2 SLOAD PUSH1 0x1 ISZERO PUSH2 0x210B JUMPI PUSH2 0x20FE DUP8 PUSH2 0x20F9 DUP4 PUSH2 0x18BE JUMP JUMPDEST PUSH2 0x1895 JUMP JUMPDEST PUSH1 0x20 DUP8 ADD SWAP7 POP PUSH1 0x1 DUP3 ADD SWAP2 POP JUMPDEST PUSH1 0x1 ISZERO PUSH2 0x2131 JUMPI PUSH2 0x2124 DUP8 PUSH2 0x211F DUP4 PUSH2 0x18E5 JUMP JUMPDEST PUSH2 0x1895 JUMP JUMPDEST PUSH1 0x20 DUP8 ADD SWAP7 POP PUSH1 0x1 DUP3 ADD SWAP2 POP JUMPDEST PUSH1 0x1 ISZERO PUSH2 0x2157 JUMPI PUSH2 0x214A DUP8 PUSH2 0x2145 DUP4 PUSH2 0x190C JUMP JUMPDEST PUSH2 0x1895 JUMP JUMPDEST PUSH1 0x20 DUP8 ADD SWAP7 POP PUSH1 0x1 DUP3 ADD SWAP2 POP JUMPDEST PUSH1 0x1 ISZERO PUSH2 0x217D JUMPI PUSH2 0x2170 DUP8 PUSH2 0x216B DUP4 PUSH2 0x1933 JUMP JUMPDEST PUSH2 0x1895 JUMP JUMPDEST PUSH1 0x20 DUP8 ADD SWAP7 POP PUSH1 0x1 DUP3 ADD SWAP2 POP JUMPDEST PUSH1 0x1 ISZERO PUSH2 0x21A3 JUMPI PUSH2 0x2196 DUP8 PUSH2 0x2191 DUP4 PUSH2 0x195A JUMP JUMPDEST PUSH2 0x1895 JUMP JUMPDEST PUSH1 0x20 DUP8 ADD SWAP7 POP PUSH1 0x1 DUP3 ADD SWAP2 POP JUMPDEST PUSH1 0x1 ISZERO PUSH2 0x21C9 JUMPI PUSH2 0x21BC DUP8 PUSH2 0x21B7 DUP4 PUSH2 0x1981 JUMP JUMPDEST PUSH2 0x1895 JUMP JUMPDEST PUSH1 0x20 DUP8 ADD SWAP7 POP PUSH1 0x1 DUP3 ADD SWAP2 POP JUMPDEST PUSH1 0x1 ISZERO PUSH2 0x21EF JUMPI PUSH2 0x21E2 DUP8 PUSH2 0x21DD DUP4 PUSH2 0x19A8 JUMP JUMPDEST PUSH2 0x1895 JUMP JUMPDEST PUSH1 0x20 DUP8 ADD SWAP7 POP PUSH1 0x1 DUP3 ADD SWAP2 POP JUMPDEST PUSH1 0x0 ISZERO PUSH2 0x2215 JUMPI PUSH2 0x2208 DUP8 PUSH2 0x2203 DUP4 PUSH2 0x19CF JUMP JUMPDEST PUSH2 0x1895 JUMP JUMPDEST PUSH1 0x20 DUP8 ADD SWAP7 POP PUSH1 0x1 DUP3 ADD SWAP2 POP JUMPDEST PUSH1 0x0 ISZERO PUSH2 0x223B JUMPI PUSH2 0x222E DUP8 PUSH2 0x2229 DUP4 PUSH2 0x19F6 JUMP JUMPDEST PUSH2 0x1895 JUMP JUMPDEST PUSH1 0x20 DUP8 ADD SWAP7 POP PUSH1 0x1 DUP3 ADD SWAP2 POP JUMPDEST PUSH1 0x0 ISZERO PUSH2 0x2261 JUMPI PUSH2 0x2254 DUP8 PUSH2 0x224F DUP4 PUSH2 0x1A1D JUMP JUMPDEST PUSH2 0x1895 JUMP JUMPDEST PUSH1 0x20 DUP8 ADD SWAP7 POP PUSH1 0x1 DUP3 ADD SWAP2 POP JUMPDEST PUSH1 0x0 ISZERO PUSH2 0x2287 JUMPI PUSH2 0x227A DUP8 PUSH2 0x2275 DUP4 PUSH2 0x1A44 JUMP JUMPDEST PUSH2 0x1895 JUMP JUMPDEST PUSH1 0x20 DUP8 ADD SWAP7 POP PUSH1 0x1 DUP3 ADD SWAP2 POP JUMPDEST PUSH1 0x0 ISZERO PUSH2 0x22AD JUMPI PUSH2 0x22A0 DUP8 PUSH2 0x229B DUP4 PUSH2 0x1A6B JUMP JUMPDEST PUSH2 0x1895 JUMP JUMPDEST PUSH1 0x20 DUP8 ADD SWAP7 POP PUSH1 0x1 DUP3 ADD SWAP2 POP JUMPDEST PUSH1 0x0 ISZERO PUSH2 0x22D3 JUMPI PUSH2 0x22C6 DUP8 PUSH2 0x22C1 DUP4 PUSH2 0x1A92 JUMP JUMPDEST PUSH2 0x1895 JUMP JUMPDEST PUSH1 0x20 DUP8 ADD SWAP7 POP PUSH1 0x1 DUP3 ADD SWAP2 POP JUMPDEST PUSH1 0x0 ISZERO PUSH2 0x22F9 JUMPI PUSH2 0x22EC DUP8 PUSH2 0x22E7 DUP4 PUSH2 0x1AB9 JUMP JUMPDEST PUSH2 0x1895 JUMP JUMPDEST PUSH1 0x20 DUP8 ADD SWAP7 POP PUSH1 0x1 DUP3 ADD SWAP2 POP JUMPDEST PUSH1 0x0 ISZERO PUSH2 0x231F JUMPI PUSH2 0x2312 DUP8 PUSH2 0x230D DUP4 PUSH2 0x1AE0 JUMP JUMPDEST PUSH2 0x1895 JUMP JUMPDEST PUSH1 0x20 DUP8 ADD SWAP7 POP PUSH1 0x1 DUP3 ADD SWAP2 POP JUMPDEST PUSH1 0x0 ISZERO PUSH2 0x2345 JUMPI PUSH2 0x2338 DUP8 PUSH2 0x2333 DUP4 PUSH2 0x1B07 JUMP JUMPDEST PUSH2 0x1895 JUMP JUMPDEST PUSH1 0x20 DUP8 ADD SWAP7 POP PUSH1 0x1 DUP3 ADD SWAP2 POP JUMPDEST PUSH1 0x0 ISZERO PUSH2 0x236B JUMPI PUSH2 0x235E DUP8 PUSH2 0x2359 DUP4 PUSH2 0x1B2E JUMP JUMPDEST PUSH2 0x1895 JUMP JUMPDEST PUSH1 0x20 DUP8 ADD SWAP7 POP PUSH1 0x1 DUP3 ADD SWAP2 POP JUMPDEST PUSH1 0x0 ISZERO PUSH2 0x2391 JUMPI PUSH2 0x2384 DUP8 PUSH2 0x237F DUP4 PUSH2 0x1B55 JUMP JUMPDEST PUSH2 0x1895 JUMP JUMPDEST PUSH1 0x20 DUP8 ADD SWAP7 POP PUSH1 0x1 DUP3 ADD SWAP2 POP JUMPDEST PUSH1 0x0 ISZERO PUSH2 0x23B7 JUMPI PUSH2 0x23AA DUP8 PUSH2 0x23A5 DUP4 PUSH2 0x1B7C JUMP JUMPDEST PUSH2 0x1895 JUMP JUMPDEST PUSH1 0x20 DUP8 ADD SWAP7 POP PUSH1 0x1 DUP3 ADD SWAP2 POP JUMPDEST PUSH1 0x0 ISZERO PUSH2 0x23DD JUMPI PUSH2 0x23D0 DUP8 PUSH2 0x23CB DUP4 PUSH2 0x1BA3 JUMP JUMPDEST PUSH2 0x1895 JUMP JUMPDEST PUSH1 0x20 DUP8 ADD SWAP7 POP PUSH1 0x1 DUP3 ADD SWAP2 POP JUMPDEST PUSH1 0x0 ISZERO PUSH2 0x2403 JUMPI PUSH2 0x23F6 DUP8 PUSH2 0x23F1 DUP4 PUSH2 0x1BCA JUMP JUMPDEST PUSH2 0x1895 JUMP JUMPDEST PUSH1 0x20 DUP8 ADD SWAP7 POP PUSH1 0x1 DUP3 ADD SWAP2 POP JUMPDEST PUSH1 0x0 ISZERO PUSH2 0x2429 JUMPI PUSH2 0x241C DUP8 PUSH2 0x2417 DUP4 PUSH2 0x1BF1 JUMP JUMPDEST PUSH2 0x1895 JUMP JUMPDEST PUSH1 0x20 DUP8 ADD SWAP7 POP PUSH1 0x1 DUP3 ADD SWAP2 POP JUMPDEST PUSH1 0x0 ISZERO PUSH2 0x244F JUMPI PUSH2 0x2442 DUP8 PUSH2 0x243D DUP4 PUSH2 0x1C18 JUMP JUMPDEST PUSH2 0x1895 JUMP JUMPDEST PUSH1 0x20 DUP8 ADD SWAP7 POP PUSH1 0x1 DUP3 ADD SWAP2 POP JUMPDEST PUSH1 0x0 ISZERO PUSH2 0x2475 JUMPI PUSH2 0x2468 DUP8 PUSH2 0x2463 DUP4 PUSH2 0x1C3F JUMP JUMPDEST PUSH2 0x1895 JUMP JUMPDEST PUSH1 0x20 DUP8 ADD SWAP7 POP PUSH1 0x1 DUP3 ADD SWAP2 POP JUMPDEST PUSH1 0x0 ISZERO PUSH2 0x249B JUMPI PUSH2 0x248E DUP8 PUSH2 0x2489 DUP4 PUSH2 0x1C66 JUMP JUMPDEST PUSH2 0x1895 JUMP JUMPDEST PUSH1 0x20 DUP8 ADD SWAP7 POP PUSH1 0x1 DUP3 ADD SWAP2 POP JUMPDEST PUSH1 0x0 ISZERO PUSH2 0x24C1 JUMPI PUSH2 0x24B4 DUP8 PUSH2 0x24AF DUP4 PUSH2 0x1C8D JUMP JUMPDEST PUSH2 0x1895 JUMP JUMPDEST PUSH1 0x20 DUP8 ADD SWAP7 POP PUSH1 0x1 DUP3 ADD SWAP2 POP JUMPDEST PUSH1 0x0 ISZERO PUSH2 0x24E7 JUMPI PUSH2 0x24DA DUP8 PUSH2 0x24D5 DUP4 PUSH2 0x1CB4 JUMP JUMPDEST PUSH2 0x1895 JUMP JUMPDEST PUSH1 0x20 DUP8 ADD SWAP7 POP PUSH1 0x1 DUP3 ADD SWAP2 POP JUMPDEST PUSH1 0x0 ISZERO PUSH2 0x250D JUMPI PUSH2 0x2500 DUP8 PUSH2 0x24FB DUP4 PUSH2 0x1CDB JUMP JUMPDEST PUSH2 0x1895 JUMP JUMPDEST PUSH1 0x20 DUP8 ADD SWAP7 POP PUSH1 0x1 DUP3 ADD SWAP2 POP JUMPDEST PUSH1 0x0 ISZERO PUSH2 0x2533 JUMPI PUSH2 0x2526 DUP8 PUSH2 0x2521 DUP4 PUSH2 0x1D02 JUMP JUMPDEST PUSH2 0x1895 JUMP JUMPDEST PUSH1 0x20 DUP8 ADD SWAP7 POP PUSH1 0x1 DUP3 ADD SWAP2 POP JUMPDEST PUSH1 0x0 ISZERO PUSH2 0x2559 JUMPI PUSH2 0x254C DUP8 PUSH2 0x2547 DUP4 PUSH2 0x1D29 JUMP JUMPDEST PUSH2 0x1895 JUMP JUMPDEST PUSH1 0x20 DUP8 ADD SWAP7 POP PUSH1 0x1 DUP3 ADD SWAP2 POP JUMPDEST PUSH1 0x0 ISZERO PUSH2 0x257F JUMPI PUSH2 0x2572 DUP8 PUSH2 0x256D DUP4 PUSH2 0x1D50 JUMP JUMPDEST PUSH2 0x1895 JUMP JUMPDEST PUSH1 0x20 DUP8 ADD SWAP7 POP PUSH1 0x1 DUP3 ADD SWAP2 POP JUMPDEST PUSH1 0x0 ISZERO PUSH2 0x25A5 JUMPI PUSH2 0x2598 DUP8 PUSH2 0x2593 DUP4 PUSH2 0x1D77 JUMP JUMPDEST PUSH2 0x1895 JUMP JUMPDEST PUSH1 0x20 DUP8 ADD SWAP7 POP PUSH1 0x1 DUP3 ADD SWAP2 POP JUMPDEST POP JUMPDEST POP POP POP POP POP POP JUMP JUMPDEST PUSH1 0x0 PUSH1 0xE0 DUP3 ADD SWAP1 POP PUSH2 0x25C4 PUSH1 0x0 DUP4 ADD DUP5 PUSH2 0x1D91 JUMP JUMPDEST SWAP3 SWAP2 POP POP JUMP JUMPDEST PUSH1 0x0 PUSH2 0x25D5 DUP3 PUSH2 0xFC3 JUMP JUMPDEST SWAP2 POP PUSH2 0x25E0 DUP4 PUSH2 0xFC3 JUMP JUMPDEST SWAP3 POP DUP3 DUP3 MUL PUSH2 0x25EE DUP2 PUSH2 0xFC3 JUMP JUMPDEST SWAP2 POP DUP3 DUP3 DIV DUP5 EQ DUP4 ISZERO OR PUSH2 0x2605 JUMPI PUSH2 0x2604 PUSH2 0x165D JUMP JUMPDEST JUMPDEST POP SWAP3 SWAP2 POP POP JUMP JUMPDEST PUSH1 0x0 PUSH2 0x2617 DUP3 PUSH2 0xFC3 JUMP JUMPDEST SWAP2 POP PUSH2 0x2622 DUP4 PUSH2 0xFC3 JUMP JUMPDEST SWAP3 POP DUP3 PUSH2 0x2632 JUMPI PUSH2 0x2631 PUSH2 0x17E1 JUMP JUMPDEST JUMPDEST DUP3 DUP3 DIV SWAP1 POP SWAP3 SWAP2 POP POP JUMP JUMPDEST PUSH1 0x0 PUSH2 0x2648 DUP3 PUSH2 0xFC3 JUMP JUMPDEST SWAP2 POP PUSH2 0x2653 DUP4 PUSH2 0xFC3 JUMP JUMPDEST SWAP3 POP DUP3 DUP3 SUB SWAP1 POP DUP2 DUP2 GT ISZERO PUSH2 0x266B JUMPI PUSH2 0x266A PUSH2 0x165D JUMP JUMPDEST JUMPDEST SWAP3 SWAP2 POP POP JUMP INVALID LOG2 PUSH5 0x6970667358 0x22 SLT KECCAK256 JUMP LT 0xBF 0xE9 0x5C OR CALLDATASIZE PUSH21 0x1FCE69CB06B46CD37B7CF126B54FA8C8D9565D6637 ADD 0xEE 0xAF PUSH5 0x736F6C6343 STOP ADDMOD EQ STOP CALLER "},"methodIdentifiers":{"ENTRY_FEE()":"f6d361cc","buyTicket(uint8[7])":"39e7397b","lotteryOpen()":"c60c4ae9","owner()":"8da5cb5b","rawFulfillRandomWords(uint256,uint256[])":"1fe543e3","reopenLottery()":"0a7a7da6","requestWinningNumbers()":"afbc25f5","rolloverPool()":"3c51c7bb","s_requestId()":"e89e106a","tickets(uint256)":"50b44712","winningNumbers(uint256)":"4e45f095"}}}}}