{
  "_format": "hh-sol-artifact-1",
  "contractName": "lotteryGame",
  "sourceName": "contracts/lotteryGame.sol",
  "abi": [
    {
      "inputs": [
        {
          "internalType": "uint256",
          "name": "_subscriptionId",
          "type": "uint256"
        }
      ],
      "stateMutability": "nonpayable",
      "type": "constructor"
    },
    {
      "inputs": [
        {
          "internalType": "address",
          "name": "have",
          "type": "address"
        },
        {
          "internalType": "address",
          "name": "want",
          "type": "address"
        }
      ],
      "name": "OnlyCoordinatorCanFulfill",
      "type": "error"
    },
    {
      "inputs": [
        {
          "internalType": "address",
          "name": "have",
          "type": "address"
        },
        {
          "internalType": "address",
          "name": "owner",
          "type": "address"
        },
        {
          "internalType": "address",
          "name": "coordinator",
          "type": "address"
        }
      ],
      "name": "OnlyOwnerOrCoordinator",
      "type": "error"
    },
    {
      "inputs": [],
      "name": "ZeroAddress",
      "type": "error"
    },
    {
      "anonymous": false,
      "inputs": [
        {
          "indexed": false,
          "internalType": "address",
          "name": "vrfCoordinator",
          "type": "address"
        }
      ],
      "name": "CoordinatorSet",
      "type": "event"
    },
    {
      "anonymous": false,
      "inputs": [
        {
          "indexed": true,
          "internalType": "address",
          "name": "from",
          "type": "address"
        },
        {
          "indexed": true,
          "internalType": "address",
          "name": "to",
          "type": "address"
        }
      ],
      "name": "OwnershipTransferRequested",
      "type": "event"
    },
    {
      "anonymous": false,
      "inputs": [
        {
          "indexed": true,
          "internalType": "address",
          "name": "from",
          "type": "address"
        },
        {
          "indexed": true,
          "internalType": "address",
          "name": "to",
          "type": "address"
        }
      ],
      "name": "OwnershipTransferred",
      "type": "event"
    },
    {
      "anonymous": false,
      "inputs": [
        {
          "indexed": false,
          "internalType": "uint256",
          "name": "requestId",
          "type": "uint256"
        }
      ],
      "name": "RequestSent",
      "type": "event"
    },
    {
      "anonymous": false,
      "inputs": [
        {
          "indexed": true,
          "internalType": "address",
          "name": "player",
          "type": "address"
        },
        {
          "indexed": false,
          "internalType": "uint256",
          "name": "amount",
          "type": "uint256"
        }
      ],
      "name": "RewardClaimed",
      "type": "event"
    },
    {
      "anonymous": false,
      "inputs": [
        {
          "indexed": true,
          "internalType": "address",
          "name": "player",
          "type": "address"
        }
      ],
      "name": "TicketPurchased",
      "type": "event"
    },
    {
      "anonymous": false,
      "inputs": [
        {
          "indexed": false,
          "internalType": "uint8[7]",
          "name": "numbers",
          "type": "uint8[7]"
        }
      ],
      "name": "WinningNumbersGenerated",
      "type": "event"
    },
    {
      "inputs": [],
      "name": "ENTRY_FEE",
      "outputs": [
        {
          "internalType": "uint256",
          "name": "",
          "type": "uint256"
        }
      ],
      "stateMutability": "view",
      "type": "function"
    },
    {
      "inputs": [],
      "name": "ROUND_DURATION",
      "outputs": [
        {
          "internalType": "uint256",
          "name": "",
          "type": "uint256"
        }
      ],
      "stateMutability": "view",
      "type": "function"
    },
    {
      "inputs": [],
      "name": "acceptOwnership",
      "outputs": [],
      "stateMutability": "nonpayable",
      "type": "function"
    },
    {
      "inputs": [
        {
          "internalType": "uint8[7]",
          "name": "numbers",
          "type": "uint8[7]"
        }
      ],
      "name": "buyTicket",
      "outputs": [],
      "stateMutability": "payable",
      "type": "function"
    },
    {
      "inputs": [],
      "name": "callbackGasLimit",
      "outputs": [
        {
          "internalType": "uint32",
          "name": "",
          "type": "uint32"
        }
      ],
      "stateMutability": "view",
      "type": "function"
    },
    {
      "inputs": [],
      "name": "claimReward",
      "outputs": [],
      "stateMutability": "nonpayable",
      "type": "function"
    },
    {
      "inputs": [],
      "name": "drawWinner",
      "outputs": [
        {
          "internalType": "uint256",
          "name": "requestId",
          "type": "uint256"
        }
      ],
      "stateMutability": "nonpayable",
      "type": "function"
    },
    {
      "inputs": [],
      "name": "keyHash",
      "outputs": [
        {
          "internalType": "bytes32",
          "name": "",
          "type": "bytes32"
        }
      ],
      "stateMutability": "view",
      "type": "function"
    },
    {
      "inputs": [],
      "name": "lastRequestId",
      "outputs": [
        {
          "internalType": "uint256",
          "name": "",
          "type": "uint256"
        }
      ],
      "stateMutability": "view",
      "type": "function"
    },
    {
      "inputs": [],
      "name": "lotteryOpen",
      "outputs": [
        {
          "internalType": "bool",
          "name": "",
          "type": "bool"
        }
      ],
      "stateMutability": "view",
      "type": "function"
    },
    {
      "inputs": [],
      "name": "numWords",
      "outputs": [
        {
          "internalType": "uint32",
          "name": "",
          "type": "uint32"
        }
      ],
      "stateMutability": "view",
      "type": "function"
    },
    {
      "inputs": [],
      "name": "owner",
      "outputs": [
        {
          "internalType": "address",
          "name": "",
          "type": "address"
        }
      ],
      "stateMutability": "view",
      "type": "function"
    },
    {
      "inputs": [
        {
          "internalType": "address",
          "name": "",
          "type": "address"
        }
      ],
      "name": "pendingRewards",
      "outputs": [
        {
          "internalType": "uint256",
          "name": "",
          "type": "uint256"
        }
      ],
      "stateMutability": "view",
      "type": "function"
    },
    {
      "inputs": [
        {
          "internalType": "uint256",
          "name": "requestId",
          "type": "uint256"
        },
        {
          "internalType": "uint256[]",
          "name": "randomWords",
          "type": "uint256[]"
        }
      ],
      "name": "rawFulfillRandomWords",
      "outputs": [],
      "stateMutability": "nonpayable",
      "type": "function"
    },
    {
      "inputs": [],
      "name": "requestConfirmations",
      "outputs": [
        {
          "internalType": "uint16",
          "name": "",
          "type": "uint16"
        }
      ],
      "stateMutability": "view",
      "type": "function"
    },
    {
      "inputs": [],
      "name": "roundStartTime",
      "outputs": [
        {
          "internalType": "uint256",
          "name": "",
          "type": "uint256"
        }
      ],
      "stateMutability": "view",
      "type": "function"
    },
    {
      "inputs": [
        {
          "internalType": "uint256",
          "name": "",
          "type": "uint256"
        }
      ],
      "name": "s_requests",
      "outputs": [
        {
          "internalType": "bool",
          "name": "fulfilled",
          "type": "bool"
        },
        {
          "internalType": "bool",
          "name": "exists",
          "type": "bool"
        }
      ],
      "stateMutability": "view",
      "type": "function"
    },
    {
      "inputs": [],
      "name": "s_vrfCoordinator",
      "outputs": [
        {
          "internalType": "contract IVRFCoordinatorV2Plus",
          "name": "",
          "type": "address"
        }
      ],
      "stateMutability": "view",
      "type": "function"
    },
    {
      "inputs": [
        {
          "internalType": "address",
          "name": "_vrfCoordinator",
          "type": "address"
        }
      ],
      "name": "setCoordinator",
      "outputs": [],
      "stateMutability": "nonpayable",
      "type": "function"
    },
    {
      "inputs": [],
      "name": "subscriptionId",
      "outputs": [
        {
          "internalType": "uint256",
          "name": "",
          "type": "uint256"
        }
      ],
      "stateMutability": "view",
      "type": "function"
    },
    {
      "inputs": [
        {
          "internalType": "uint256",
          "name": "",
          "type": "uint256"
        }
      ],
      "name": "tickets",
      "outputs": [
        {
          "internalType": "address",
          "name": "player",
          "type": "address"
        }
      ],
      "stateMutability": "view",
      "type": "function"
    },
    {
      "inputs": [
        {
          "internalType": "address",
          "name": "to",
          "type": "address"
        }
      ],
      "name": "transferOwnership",
      "outputs": [],
      "stateMutability": "nonpayable",
      "type": "function"
    },
    {
      "inputs": [
        {
          "internalType": "uint256",
          "name": "",
          "type": "uint256"
        }
      ],
      "name": "winningNumbers",
      "outputs": [
        {
          "internalType": "uint8",
          "name": "",
          "type": "uint8"
        }
      ],
      "stateMutability": "view",
      "type": "function"
    },
    {
      "stateMutability": "payable",
      "type": "receive"
    }
  ],
  "bytecode": "0x60806040527f787d74caea10b2b357790d5b5247c2f63d1d91572a9846f780606e4d953677ae60001b600855622625a0600a60006101000a81548163ffffffff021916908363ffffffff1602179055506003600a60046101000a81548161ffff021916908361ffff1602179055506007600a60066101000a81548163ffffffff021916908363ffffffff1602179055503480156200009c57600080fd5b5060405162003c2538038062003c258339818101604052810190620000c29190620003fc565b739ddfaca8183c41ad55329bdeed9f6a8d53168b1b338060008073ffffffffffffffffffffffffffffffffffffffff168273ffffffffffffffffffffffffffffffffffffffff16036200014c576040517f08c379a000000000000000000000000000000000000000000000000000000000815260040162000143906200048f565b60405180910390fd5b816000806101000a81548173ffffffffffffffffffffffffffffffffffffffff021916908373ffffffffffffffffffffffffffffffffffffffff160217905550600073ffffffffffffffffffffffffffffffffffffffff168173ffffffffffffffffffffffffffffffffffffffff1614620001d357620001d2816200028d60201b60201c565b5b505050600073ffffffffffffffffffffffffffffffffffffffff168173ffffffffffffffffffffffffffffffffffffffff16036200023d576040517fd92e233d00000000000000000000000000000000000000000000000000000000815260040160405180910390fd5b80600260006101000a81548173ffffffffffffffffffffffffffffffffffffffff021916908373ffffffffffffffffffffffffffffffffffffffff16021790555050806009819055505062000523565b3373ffffffffffffffffffffffffffffffffffffffff168173ffffffffffffffffffffffffffffffffffffffff1603620002fe576040517f08c379a0000000000000000000000000000000000000000000000000000000008152600401620002f59062000501565b60405180910390fd5b80600160006101000a81548173ffffffffffffffffffffffffffffffffffffffff021916908373ffffffffffffffffffffffffffffffffffffffff1602179055508073ffffffffffffffffffffffffffffffffffffffff1660008054906101000a900473ffffffffffffffffffffffffffffffffffffffff1673ffffffffffffffffffffffffffffffffffffffff167fed8889f560326eb138920d842192f0eb3dd22b4f139c87a2c57538e05bae127860405160405180910390a350565b600080fd5b6000819050919050565b620003d681620003c1565b8114620003e257600080fd5b50565b600081519050620003f681620003cb565b92915050565b600060208284031215620004155762000414620003bc565b5b60006200042584828501620003e5565b91505092915050565b600082825260208201905092915050565b7f43616e6e6f7420736574206f776e657220746f207a65726f0000000000000000600082015250565b6000620004776018836200042e565b915062000484826200043f565b602082019050919050565b60006020820190508181036000830152620004aa8162000468565b9050919050565b7f43616e6e6f74207472616e7366657220746f2073656c66000000000000000000600082015250565b6000620004e96017836200042e565b9150620004f682620004b1565b602082019050919050565b600060208201905081810360008301526200051c81620004da565b9050919050565b6136f280620005336000396000f3fe6080604052600436106101445760003560e01c80638da5cb5b116100b6578063b88a802f1161006f578063b88a802f1461044d578063c60c4ae914610464578063dd4f8f741461048f578063f2fde38b146104ba578063f6d361cc146104e3578063fc2a88c31461050e5761014b565b80638da5cb5b1461033a5780638ea98117146103655780639eccacf61461038e578063a168fa89146103b9578063b0fb162f146103f7578063b2185bb1146104225761014b565b80634e45f095116101085780634e45f0951461022857806350b447121461026557806361728f39146102a25780636641ea08146102cd57806379ba5097146102f85780637ccfd7fc1461030f5761014b565b806309c1ba2e146101505780631fe543e31461017b57806324f74697146101a457806331d7a262146101cf57806339e7397b1461020c5761014b565b3661014b57005b600080fd5b34801561015c57600080fd5b50610165610539565b6040516101729190611b35565b60405180910390f35b34801561018757600080fd5b506101a2600480360381019061019d9190611bf5565b61053f565b005b3480156101b057600080fd5b506101b9610605565b6040516101c69190611c74565b60405180910390f35b3480156101db57600080fd5b506101f660048036038101906101f19190611ced565b61061b565b6040516102039190611b35565b60405180910390f35b61022660048036038101906102219190611e90565b610633565b005b34801561023457600080fd5b5061024f600480360381019061024a9190611ebd565b6108a1565b60405161025c9190611ef9565b60405180910390f35b34801561027157600080fd5b5061028c60048036038101906102879190611ebd565b6108cb565b6040516102999190611f23565b60405180910390f35b3480156102ae57600080fd5b506102b7610919565b6040516102c49190611f57565b60405180910390f35b3480156102d957600080fd5b506102e261091f565b6040516102ef9190611b35565b60405180910390f35b34801561030457600080fd5b5061030d610925565b005b34801561031b57600080fd5b50610324610aba565b6040516103319190611c74565b60405180910390f35b34801561034657600080fd5b5061034f610ad0565b60405161035c9190611f23565b60405180910390f35b34801561037157600080fd5b5061038c60048036038101906103879190611ced565b610af9565b005b34801561039a57600080fd5b506103a3610cda565b6040516103b09190611fd1565b60405180910390f35b3480156103c557600080fd5b506103e060048036038101906103db9190611ebd565b610d00565b6040516103ee929190612007565b60405180910390f35b34801561040357600080fd5b5061040c610d3e565b604051610419919061204d565b60405180910390f35b34801561042e57600080fd5b50610437610d52565b6040516104449190611b35565b60405180910390f35b34801561045957600080fd5b5061046261103f565b005b34801561047057600080fd5b506104796111a3565b6040516104869190612068565b60405180910390f35b34801561049b57600080fd5b506104a46111b6565b6040516104b19190611b35565b60405180910390f35b3480156104c657600080fd5b506104e160048036038101906104dc9190611ced565b6111bc565b005b3480156104ef57600080fd5b506104f86111d0565b6040516105059190611b35565b60405180910390f35b34801561051a57600080fd5b506105236111d5565b6040516105309190611b35565b60405180910390f35b60095481565b600260009054906101000a900473ffffffffffffffffffffffffffffffffffffffff1673ffffffffffffffffffffffffffffffffffffffff163373ffffffffffffffffffffffffffffffffffffffff16146105f55733600260009054906101000a900473ffffffffffffffffffffffffffffffffffffffff166040517f1cf993f40000000000000000000000000000000000000000000000000000000081526004016105ec929190612083565b60405180910390fd5b6106008383836111db565b505050565b600a60009054906101000a900463ffffffff1681565b60076020528060005260406000206000915090505481565b60013414610676576040517f08c379a000000000000000000000000000000000000000000000000000000000815260040161066d90612109565b60405180910390fd5b600560009054906101000a900460ff166106ad576001600560006101000a81548160ff021916908315150217905550426004819055505b61012c6004546106bd9190612158565b4211156106ff576040517f08c379a00000000000000000000000000000000000000000000000000000000081526004016106f6906121d8565b60405180910390fd5b60005b60078110156107a35760018282600781106107205761071f6121f8565b5b602002015160ff161015801561075157506031828260078110610746576107456121f8565b5b602002015160ff1611155b610790576040517f08c379a000000000000000000000000000000000000000000000000000000000815260040161078790612273565b60405180910390fd5b808061079b90612293565b915050610702565b50600660405180604001604052803373ffffffffffffffffffffffffffffffffffffffff16815260200183815250908060018154018082558091505060019003906000526020600020906002020160009091909190915060008201518160000160006101000a81548173ffffffffffffffffffffffffffffffffffffffff021916908373ffffffffffffffffffffffffffffffffffffffff1602179055506020820151816001019060076108589291906119c9565b5050503373ffffffffffffffffffffffffffffffffffffffff167f23443ac3afaec974c2d4368824912f61a50fee541bcc94ec52414ba6a9b14aab60405160405180910390a250565b600381600781106108b157600080fd5b60209182820401919006915054906101000a900460ff1681565b600681815481106108db57600080fd5b90600052602060002090600202016000915090508060000160009054906101000a900473ffffffffffffffffffffffffffffffffffffffff16905081565b60085481565b61012c81565b600160009054906101000a900473ffffffffffffffffffffffffffffffffffffffff1673ffffffffffffffffffffffffffffffffffffffff163373ffffffffffffffffffffffffffffffffffffffff16146109b5576040517f08c379a00000000000000000000000000000000000000000000000000000000081526004016109ac90612327565b60405180910390fd5b60008060009054906101000a900473ffffffffffffffffffffffffffffffffffffffff169050336000806101000a81548173ffffffffffffffffffffffffffffffffffffffff021916908373ffffffffffffffffffffffffffffffffffffffff1602179055506000600160006101000a81548173ffffffffffffffffffffffffffffffffffffffff021916908373ffffffffffffffffffffffffffffffffffffffff1602179055503373ffffffffffffffffffffffffffffffffffffffff168173ffffffffffffffffffffffffffffffffffffffff167f8be0079c531659141344cd1fd0a4f28419497f9722a3daafe3b4186f6b6457e060405160405180910390a350565b600a60069054906101000a900463ffffffff1681565b60008060009054906101000a900473ffffffffffffffffffffffffffffffffffffffff16905090565b610b01610ad0565b73ffffffffffffffffffffffffffffffffffffffff163373ffffffffffffffffffffffffffffffffffffffff1614158015610b8a5750600260009054906101000a900473ffffffffffffffffffffffffffffffffffffffff1673ffffffffffffffffffffffffffffffffffffffff163373ffffffffffffffffffffffffffffffffffffffff1614155b15610bf95733610b98610ad0565b600260009054906101000a900473ffffffffffffffffffffffffffffffffffffffff166040517f061db9c1000000000000000000000000000000000000000000000000000000008152600401610bf093929190612347565b60405180910390fd5b600073ffffffffffffffffffffffffffffffffffffffff168173ffffffffffffffffffffffffffffffffffffffff1603610c5f576040517fd92e233d00000000000000000000000000000000000000000000000000000000815260040160405180910390fd5b80600260006101000a81548173ffffffffffffffffffffffffffffffffffffffff021916908373ffffffffffffffffffffffffffffffffffffffff1602179055507fd1a6a14209a385a964d036e404cb5cfb71f4000cdb03c9366292430787261be681604051610ccf9190611f23565b60405180910390a150565b600260009054906101000a900473ffffffffffffffffffffffffffffffffffffffff1681565b600b6020528060005260406000206000915090508060000160009054906101000a900460ff16908060000160019054906101000a900460ff16905082565b600a60049054906101000a900461ffff1681565b6000610d5c611338565b600560009054906101000a900460ff16610dab576040517f08c379a0000000000000000000000000000000000000000000000000000000008152600401610da2906123ca565b60405180910390fd5b61012c600454610dbb9190612158565b421015610dfd576040517f08c379a0000000000000000000000000000000000000000000000000000000008152600401610df490612436565b60405180910390fd5b600060068054905011610e45576040517f08c379a0000000000000000000000000000000000000000000000000000000008152600401610e3c906124a2565b60405180910390fd5b6000600560006101000a81548160ff021916908315150217905550600260009054906101000a900473ffffffffffffffffffffffffffffffffffffffff1673ffffffffffffffffffffffffffffffffffffffff16639b1c385e6040518060c0016040528060085481526020016009548152602001600a60049054906101000a900461ffff1661ffff168152602001600a60009054906101000a900463ffffffff1663ffffffff168152602001600a60069054906101000a900463ffffffff1663ffffffff168152602001610f296040518060200160405280600015158152506113c8565b8152506040518263ffffffff1660e01b8152600401610f489190612606565b6020604051808303816000875af1158015610f67573d6000803e3d6000fd5b505050506040513d601f19601f82011682018060405250810190610f8b919061263d565b9050604051806040016040528060001515815260200160011515815250600b600083815260200190815260200160002060008201518160000160006101000a81548160ff02191690831515021790555060208201518160000160016101000a81548160ff02191690831515021790555090505080600c819055507f0cd21a41891ff04ecd9a8754bec97e2fb85d2a4e7694329d4dc364c796f23d06816040516110349190611b35565b60405180910390a190565b6000600760003373ffffffffffffffffffffffffffffffffffffffff1673ffffffffffffffffffffffffffffffffffffffff168152602001908152602001600020549050600081116110c6576040517f08c379a00000000000000000000000000000000000000000000000000000000081526004016110bd906126b6565b60405180910390fd5b6000600760003373ffffffffffffffffffffffffffffffffffffffff1673ffffffffffffffffffffffffffffffffffffffff168152602001908152602001600020819055503373ffffffffffffffffffffffffffffffffffffffff166108fc829081150290604051600060405180830381858888f19350505050158015611151573d6000803e3d6000fd5b503373ffffffffffffffffffffffffffffffffffffffff167f106f923f993c2149d49b4255ff723acafa1f2d94393f561d3eda32ae348f7241826040516111989190611b35565b60405180910390a250565b600560009054906101000a900460ff1681565b60045481565b6111c4611338565b6111cd81611460565b50565b600181565b600c5481565b600b600084815260200190815260200160002060000160019054906101000a900460ff1661123e576040517f08c379a000000000000000000000000000000000000000000000000000000000815260040161123590612722565b60405180910390fd5b6001600b600085815260200190815260200160002060000160006101000a81548160ff02191690831515021790555060005b60078110156112f257600160318484848181106112905761128f6121f8565b5b905060200201356112a19190612771565b6112ab9190612158565b600382600781106112bf576112be6121f8565b5b602091828204019190066101000a81548160ff021916908360ff16021790555080806112ea90612293565b915050611270565b507fdcb2893ac8d49d1e4863703a25298c680a0bcd0d5e61b4342b2e57bb7097705c600360405161132391906134dc565b60405180910390a161133361158c565b505050565b60008054906101000a900473ffffffffffffffffffffffffffffffffffffffff1673ffffffffffffffffffffffffffffffffffffffff163373ffffffffffffffffffffffffffffffffffffffff16146113c6576040517f08c379a00000000000000000000000000000000000000000000000000000000081526004016113bd90613543565b60405180910390fd5b565b60607f92fd13387c7fe7befbc38d303d6468778fb9731bc4583f17d92989c6fcfdeaaa826040516024016113fc919061358e565b604051602081830303815290604052907bffffffffffffffffffffffffffffffffffffffffffffffffffffffff19166020820180517bffffffffffffffffffffffffffffffffffffffffffffffffffffffff83818316178352505050509050919050565b3373ffffffffffffffffffffffffffffffffffffffff168173ffffffffffffffffffffffffffffffffffffffff16036114ce576040517f08c379a00000000000000000000000000000000000000000000000000000000081526004016114c5906135f5565b60405180910390fd5b80600160006101000a81548173ffffffffffffffffffffffffffffffffffffffff021916908373ffffffffffffffffffffffffffffffffffffffff1602179055508073ffffffffffffffffffffffffffffffffffffffff1660008054906101000a900473ffffffffffffffffffffffffffffffffffffffff1673ffffffffffffffffffffffffffffffffffffffff167fed8889f560326eb138920d842192f0eb3dd22b4f139c87a2c57538e05bae127860405160405180910390a350565b600047905060006064600a836115a29190613615565b6115ac9190613657565b90506115b6610ad0565b73ffffffffffffffffffffffffffffffffffffffff166108fc829081150290604051600060405180830381858888f193505050501580156115fb573d6000803e3d6000fd5b506000818361160a9190613688565b9050611614611a63565b60005b6006805490508110156116fd5760006116b56006838154811061163d5761163c6121f8565b5b90600052602060002090600202016001016007806020026040519081016040528092919082600780156116ab576020028201916000905b82829054906101000a900460ff1660ff16815260200190600101906020826000010492830192600103820291508084116116745790505b50505050506118da565b9050600281106116e9578281600881106116d2576116d16121f8565b5b6020020180518091906116e490612293565b815250505b5080806116f590612293565b915050611617565b5060005b6006805490508110156118c557600061179f60068381548110611727576117266121f8565b5b9060005260206000209060020201600101600780602002604051908101604052809291908260078015611795576020028201916000905b82829054906101000a900460ff1660ff168152602001906001019060208260000104928301926001038202915080841161175e5790505b50505050506118da565b9050600281101580156117c9575060008382600881106117c2576117c16121f8565b5b6020020151115b156118b15760008382600881106117e3576117e26121f8565b5b602002015160646117f384611962565b876117fe9190613615565b6118089190613657565b6118129190613657565b905080600760006006868154811061182d5761182c6121f8565b5b906000526020600020906002020160000160009054906101000a900473ffffffffffffffffffffffffffffffffffffffff1673ffffffffffffffffffffffffffffffffffffffff1673ffffffffffffffffffffffffffffffffffffffff16815260200190815260200160002060008282546118a89190612158565b92505081905550505b5080806118bd90612293565b915050611701565b50600660006118d49190611a86565b50505050565b60008060005b600781101561195857600381600781106118fd576118fc6121f8565b5b602091828204019190069054906101000a900460ff1660ff16848260078110611929576119286121f8565b5b602002015160ff160361194557818061194190612293565b9250505b808061195090612293565b9150506118e0565b5080915050919050565b600080604051806101000160405280600081526020016000815260200160058152602001600a8152602001600f81526020016014815260200160148152602001601e81525090508083600881106119bc576119bb6121f8565b5b6020020151915050919050565b826007601f01602090048101928215611a525791602002820160005b83821115611a2357835183826101000a81548160ff021916908360ff16021790555092602001926001016020816000010492830192600103026119e5565b8015611a505782816101000a81549060ff0219169055600101602081600001049283019260010302611a23565b505b509050611a5f9190611aaa565b5090565b604051806101000160405280600890602082028036833780820191505090505090565b5080546000825560020290600052602060002090810190611aa79190611ac7565b50565b5b80821115611ac3576000816000905550600101611aab565b5090565b5b80821115611b1157600080820160006101000a81549073ffffffffffffffffffffffffffffffffffffffff0219169055600182016000611b089190611b15565b50600201611ac8565b5090565b5060009055565b6000819050919050565b611b2f81611b1c565b82525050565b6000602082019050611b4a6000830184611b26565b92915050565b6000604051905090565b600080fd5b600080fd5b611b6d81611b1c565b8114611b7857600080fd5b50565b600081359050611b8a81611b64565b92915050565b600080fd5b600080fd5b600080fd5b60008083601f840112611bb557611bb4611b90565b5b8235905067ffffffffffffffff811115611bd257611bd1611b95565b5b602083019150836020820283011115611bee57611bed611b9a565b5b9250929050565b600080600060408486031215611c0e57611c0d611b5a565b5b6000611c1c86828701611b7b565b935050602084013567ffffffffffffffff811115611c3d57611c3c611b5f565b5b611c4986828701611b9f565b92509250509250925092565b600063ffffffff82169050919050565b611c6e81611c55565b82525050565b6000602082019050611c896000830184611c65565b92915050565b600073ffffffffffffffffffffffffffffffffffffffff82169050919050565b6000611cba82611c8f565b9050919050565b611cca81611caf565b8114611cd557600080fd5b50565b600081359050611ce781611cc1565b92915050565b600060208284031215611d0357611d02611b5a565b5b6000611d1184828501611cd8565b91505092915050565b6000601f19601f8301169050919050565b7f4e487b7100000000000000000000000000000000000000000000000000000000600052604160045260246000fd5b611d6382611d1a565b810181811067ffffffffffffffff82111715611d8257611d81611d2b565b5b80604052505050565b6000611d95611b50565b9050611da18282611d5a565b919050565b600067ffffffffffffffff821115611dc157611dc0611d2b565b5b602082029050919050565b600060ff82169050919050565b611de281611dcc565b8114611ded57600080fd5b50565b600081359050611dff81611dd9565b92915050565b6000611e18611e1384611da6565b611d8b565b90508060208402830185811115611e3257611e31611b9a565b5b835b81811015611e5b5780611e478882611df0565b845260208401935050602081019050611e34565b5050509392505050565b600082601f830112611e7a57611e79611b90565b5b6007611e87848285611e05565b91505092915050565b600060e08284031215611ea657611ea5611b5a565b5b6000611eb484828501611e65565b91505092915050565b600060208284031215611ed357611ed2611b5a565b5b6000611ee184828501611b7b565b91505092915050565b611ef381611dcc565b82525050565b6000602082019050611f0e6000830184611eea565b92915050565b611f1d81611caf565b82525050565b6000602082019050611f386000830184611f14565b92915050565b6000819050919050565b611f5181611f3e565b82525050565b6000602082019050611f6c6000830184611f48565b92915050565b6000819050919050565b6000611f97611f92611f8d84611c8f565b611f72565b611c8f565b9050919050565b6000611fa982611f7c565b9050919050565b6000611fbb82611f9e565b9050919050565b611fcb81611fb0565b82525050565b6000602082019050611fe66000830184611fc2565b92915050565b60008115159050919050565b61200181611fec565b82525050565b600060408201905061201c6000830185611ff8565b6120296020830184611ff8565b9392505050565b600061ffff82169050919050565b61204781612030565b82525050565b6000602082019050612062600083018461203e565b92915050565b600060208201905061207d6000830184611ff8565b92915050565b60006040820190506120986000830185611f14565b6120a56020830184611f14565b9392505050565b600082825260208201905092915050565b7f57726f6e67206665650000000000000000000000000000000000000000000000600082015250565b60006120f36009836120ac565b91506120fe826120bd565b602082019050919050565b60006020820190508181036000830152612122816120e6565b9050919050565b7f4e487b7100000000000000000000000000000000000000000000000000000000600052601160045260246000fd5b600061216382611b1c565b915061216e83611b1c565b925082820190508082111561218657612185612129565b5b92915050565b7f526f756e6420656e646564000000000000000000000000000000000000000000600082015250565b60006121c2600b836120ac565b91506121cd8261218c565b602082019050919050565b600060208201905081810360008301526121f1816121b5565b9050919050565b7f4e487b7100000000000000000000000000000000000000000000000000000000600052603260045260246000fd5b7f496e76616c6964206e756d626572000000000000000000000000000000000000600082015250565b600061225d600e836120ac565b915061226882612227565b602082019050919050565b6000602082019050818103600083015261228c81612250565b9050919050565b600061229e82611b1c565b91507fffffffffffffffffffffffffffffffffffffffffffffffffffffffffffffffff82036122d0576122cf612129565b5b600182019050919050565b7f4d7573742062652070726f706f736564206f776e657200000000000000000000600082015250565b60006123116016836120ac565b915061231c826122db565b602082019050919050565b6000602082019050818103600083015261234081612304565b9050919050565b600060608201905061235c6000830186611f14565b6123696020830185611f14565b6123766040830184611f14565b949350505050565b7f4c6f7474657279206e6f74206f70656e00000000000000000000000000000000600082015250565b60006123b46010836120ac565b91506123bf8261237e565b602082019050919050565b600060208201905081810360008301526123e3816123a7565b9050919050565b7f526f756e64206e6f742066696e69736865640000000000000000000000000000600082015250565b60006124206012836120ac565b915061242b826123ea565b602082019050919050565b6000602082019050818103600083015261244f81612413565b9050919050565b7f4e6f20706c617965727300000000000000000000000000000000000000000000600082015250565b600061248c600a836120ac565b915061249782612456565b602082019050919050565b600060208201905081810360008301526124bb8161247f565b9050919050565b6124cb81611f3e565b82525050565b6124da81611b1c565b82525050565b6124e981612030565b82525050565b6124f881611c55565b82525050565b600081519050919050565b600082825260208201905092915050565b60005b8381101561253857808201518184015260208101905061251d565b60008484015250505050565b600061254f826124fe565b6125598185612509565b935061256981856020860161251a565b61257281611d1a565b840191505092915050565b600060c08301600083015161259560008601826124c2565b5060208301516125a860208601826124d1565b5060408301516125bb60408601826124e0565b5060608301516125ce60608601826124ef565b5060808301516125e160808601826124ef565b5060a083015184820360a08601526125f98282612544565b9150508091505092915050565b60006020820190508181036000830152612620818461257d565b905092915050565b60008151905061263781611b64565b92915050565b60006020828403121561265357612652611b5a565b5b600061266184828501612628565b91505092915050565b7f4e6f207265776172640000000000000000000000000000000000000000000000600082015250565b60006126a06009836120ac565b91506126ab8261266a565b602082019050919050565b600060208201905081810360008301526126cf81612693565b9050919050565b7f52657175657374206e6f7420666f756e64000000000000000000000000000000600082015250565b600061270c6011836120ac565b9150612717826126d6565b602082019050919050565b6000602082019050818103600083015261273b816126ff565b9050919050565b7f4e487b7100000000000000000000000000000000000000000000000000000000600052601260045260246000fd5b600061277c82611b1c565b915061278783611b1c565b92508261279757612796612742565b5b828206905092915050565b600060079050919050565b600081905092915050565b6000819050919050565b6127cb81611dcc565b82525050565b60008160001c9050919050565b600060ff82169050919050565b60006127fe6127f9836127d1565b6127de565b9050919050565b60008160081c9050919050565b600061282561282083612805565b6127de565b9050919050565b60008160101c9050919050565b600061284c6128478361282c565b6127de565b9050919050565b60008160181c9050919050565b600061287361286e83612853565b6127de565b9050919050565b60008160201c9050919050565b600061289a6128958361287a565b6127de565b9050919050565b60008160281c9050919050565b60006128c16128bc836128a1565b6127de565b9050919050565b60008160301c9050919050565b60006128e86128e3836128c8565b6127de565b9050919050565b60008160381c9050919050565b600061290f61290a836128ef565b6127de565b9050919050565b60008160401c9050919050565b600061293661293183612916565b6127de565b9050919050565b60008160481c9050919050565b600061295d6129588361293d565b6127de565b9050919050565b60008160501c9050919050565b600061298461297f83612964565b6127de565b9050919050565b60008160581c9050919050565b60006129ab6129a68361298b565b6127de565b9050919050565b60008160601c9050919050565b60006129d26129cd836129b2565b6127de565b9050919050565b60008160681c9050919050565b60006129f96129f4836129d9565b6127de565b9050919050565b60008160701c9050919050565b6000612a20612a1b83612a00565b6127de565b9050919050565b60008160781c9050919050565b6000612a47612a4283612a27565b6127de565b9050919050565b60008160801c9050919050565b6000612a6e612a6983612a4e565b6127de565b9050919050565b60008160881c9050919050565b6000612a95612a9083612a75565b6127de565b9050919050565b60008160901c9050919050565b6000612abc612ab783612a9c565b6127de565b9050919050565b60008160981c9050919050565b6000612ae3612ade83612ac3565b6127de565b9050919050565b60008160a01c9050919050565b6000612b0a612b0583612aea565b6127de565b9050919050565b60008160a81c9050919050565b6000612b31612b2c83612b11565b6127de565b9050919050565b60008160b01c9050919050565b6000612b58612b5383612b38565b6127de565b9050919050565b60008160b81c9050919050565b6000612b7f612b7a83612b5f565b6127de565b9050919050565b60008160c01c9050919050565b6000612ba6612ba183612b86565b6127de565b9050919050565b60008160c81c9050919050565b6000612bcd612bc883612bad565b6127de565b9050919050565b60008160d01c9050919050565b6000612bf4612bef83612bd4565b6127de565b9050919050565b60008160d81c9050919050565b6000612c1b612c1683612bfb565b6127de565b9050919050565b60008160e01c9050919050565b6000612c42612c3d83612c22565b6127de565b9050919050565b60008160e81c9050919050565b6000612c69612c6483612c49565b6127de565b9050919050565b60008160f01c9050919050565b6000612c90612c8b83612c70565b6127de565b9050919050565b60008160f81c9050919050565b6000612cb7612cb283612c97565b6127de565b9050919050565b612cc7816127a2565b612cd181846127ad565b925082612cdd836127b8565b60008015613009575b83600160200382011015613008578154612d0887612d03836127eb565b6127c2565b602087019650612d2087612d1b83612812565b6127c2565b602087019650612d3887612d3383612839565b6127c2565b602087019650612d5087612d4b83612860565b6127c2565b602087019650612d6887612d6383612887565b6127c2565b602087019650612d8087612d7b836128ae565b6127c2565b602087019650612d9887612d93836128d5565b6127c2565b602087019650612db087612dab836128fc565b6127c2565b602087019650612dc887612dc383612923565b6127c2565b602087019650612de087612ddb8361294a565b6127c2565b602087019650612df887612df383612971565b6127c2565b602087019650612e1087612e0b83612998565b6127c2565b602087019650612e2887612e23836129bf565b6127c2565b602087019650612e4087612e3b836129e6565b6127c2565b602087019650612e5887612e5383612a0d565b6127c2565b602087019650612e7087612e6b83612a34565b6127c2565b602087019650612e8887612e8383612a5b565b6127c2565b602087019650612ea087612e9b83612a82565b6127c2565b602087019650612eb887612eb383612aa9565b6127c2565b602087019650612ed087612ecb83612ad0565b6127c2565b602087019650612ee887612ee383612af7565b6127c2565b602087019650612f0087612efb83612b1e565b6127c2565b602087019650612f1887612f1383612b45565b6127c2565b602087019650612f3087612f2b83612b6c565b6127c2565b602087019650612f4887612f4383612b93565b6127c2565b602087019650612f6087612f5b83612bba565b6127c2565b602087019650612f7887612f7383612be1565b6127c2565b602087019650612f9087612f8b83612c08565b6127c2565b602087019650612fa887612fa383612c2f565b6127c2565b602087019650612fc087612fbb83612c56565b6127c2565b602087019650612fd887612fd383612c7d565b6127c2565b602087019650612ff087612feb83612ca4565b6127c2565b60208701965060018301925050602081019050612ce6565b5b6001156134d45781546001156130385761302b87613026836127eb565b6127c2565b6020870196506001820191505b60011561305e576130518761304c83612812565b6127c2565b6020870196506001820191505b600115613084576130778761307283612839565b6127c2565b6020870196506001820191505b6001156130aa5761309d8761309883612860565b6127c2565b6020870196506001820191505b6001156130d0576130c3876130be83612887565b6127c2565b6020870196506001820191505b6001156130f6576130e9876130e4836128ae565b6127c2565b6020870196506001820191505b60011561311c5761310f8761310a836128d5565b6127c2565b6020870196506001820191505b6000156131425761313587613130836128fc565b6127c2565b6020870196506001820191505b6000156131685761315b8761315683612923565b6127c2565b6020870196506001820191505b60001561318e576131818761317c8361294a565b6127c2565b6020870196506001820191505b6000156131b4576131a7876131a283612971565b6127c2565b6020870196506001820191505b6000156131da576131cd876131c883612998565b6127c2565b6020870196506001820191505b600015613200576131f3876131ee836129bf565b6127c2565b6020870196506001820191505b6000156132265761321987613214836129e6565b6127c2565b6020870196506001820191505b60001561324c5761323f8761323a83612a0d565b6127c2565b6020870196506001820191505b600015613272576132658761326083612a34565b6127c2565b6020870196506001820191505b6000156132985761328b8761328683612a5b565b6127c2565b6020870196506001820191505b6000156132be576132b1876132ac83612a82565b6127c2565b6020870196506001820191505b6000156132e4576132d7876132d283612aa9565b6127c2565b6020870196506001820191505b60001561330a576132fd876132f883612ad0565b6127c2565b6020870196506001820191505b600015613330576133238761331e83612af7565b6127c2565b6020870196506001820191505b600015613356576133498761334483612b1e565b6127c2565b6020870196506001820191505b60001561337c5761336f8761336a83612b45565b6127c2565b6020870196506001820191505b6000156133a2576133958761339083612b6c565b6127c2565b6020870196506001820191505b6000156133c8576133bb876133b683612b93565b6127c2565b6020870196506001820191505b6000156133ee576133e1876133dc83612bba565b6127c2565b6020870196506001820191505b600015613414576134078761340283612be1565b6127c2565b6020870196506001820191505b60001561343a5761342d8761342883612c08565b6127c2565b6020870196506001820191505b600015613460576134538761344e83612c2f565b6127c2565b6020870196506001820191505b600015613486576134798761347483612c56565b6127c2565b6020870196506001820191505b6000156134ac5761349f8761349a83612c7d565b6127c2565b6020870196506001820191505b6000156134d2576134c5876134c083612ca4565b6127c2565b6020870196506001820191505b505b505050505050565b600060e0820190506134f16000830184612cbe565b92915050565b7f4f6e6c792063616c6c61626c65206279206f776e657200000000000000000000600082015250565b600061352d6016836120ac565b9150613538826134f7565b602082019050919050565b6000602082019050818103600083015261355c81613520565b9050919050565b61356c81611fec565b82525050565b6020820160008201516135886000850182613563565b50505050565b60006020820190506135a36000830184613572565b92915050565b7f43616e6e6f74207472616e7366657220746f2073656c66000000000000000000600082015250565b60006135df6017836120ac565b91506135ea826135a9565b602082019050919050565b6000602082019050818103600083015261360e816135d2565b9050919050565b600061362082611b1c565b915061362b83611b1c565b925082820261363981611b1c565b915082820484148315176136505761364f612129565b5b5092915050565b600061366282611b1c565b915061366d83611b1c565b92508261367d5761367c612742565b5b828204905092915050565b600061369382611b1c565b915061369e83611b1c565b92508282039050818111156136b6576136b5612129565b5b9291505056fea2646970667358221220d84a96d8bd9a77ffb318a5f6919341bfed52560b9b3460427bc3aad014f6ddbb64736f6c63430008140033",
  "linkReferences": {},
  "deployedLinkReferences": {}
}