{
  "_format": "hh-sol-artifact-1",
  "contractName": "lotteryGame",
  "sourceName": "contracts/lotteryGame.sol",
  "abi": [
    {
      "inputs": [
        {
          "internalType": "address",
          "name": "vrfCoordinator",
          "type": "address"
        },
        {
          "internalType": "bytes32",
          "name": "_keyHash",
          "type": "bytes32"
        },
        {
          "internalType": "uint64",
          "name": "subscriptionId",
          "type": "uint64"
        }
      ],
      "stateMutability": "nonpayable",
      "type": "constructor"
    },
    {
      "inputs": [
        {
          "internalType": "address",
          "name": "have",
          "type": "address"
        },
        {
          "internalType": "address",
          "name": "want",
          "type": "address"
        }
      ],
      "name": "OnlyCoordinatorCanFulfill",
      "type": "error"
    },
    {
      "anonymous": false,
      "inputs": [],
      "name": "RewardsDistributed",
      "type": "event"
    },
    {
      "anonymous": false,
      "inputs": [
        {
          "indexed": true,
          "internalType": "address",
          "name": "player",
          "type": "address"
        }
      ],
      "name": "TicketPurchased",
      "type": "event"
    },
    {
      "anonymous": false,
      "inputs": [
        {
          "indexed": false,
          "internalType": "uint8[7]",
          "name": "winningNumbers",
          "type": "uint8[7]"
        }
      ],
      "name": "WinnerNumbersGenerated",
      "type": "event"
    },
    {
      "inputs": [],
      "name": "ENTRY_FEE",
      "outputs": [
        {
          "internalType": "uint256",
          "name": "",
          "type": "uint256"
        }
      ],
      "stateMutability": "view",
      "type": "function"
    },
    {
      "inputs": [
        {
          "internalType": "uint8[7]",
          "name": "_numbers",
          "type": "uint8[7]"
        }
      ],
      "name": "buyTicket",
      "outputs": [],
      "stateMutability": "payable",
      "type": "function"
    },
    {
      "inputs": [],
      "name": "lotteryOpen",
      "outputs": [
        {
          "internalType": "bool",
          "name": "",
          "type": "bool"
        }
      ],
      "stateMutability": "view",
      "type": "function"
    },
    {
      "inputs": [],
      "name": "owner",
      "outputs": [
        {
          "internalType": "address",
          "name": "",
          "type": "address"
        }
      ],
      "stateMutability": "view",
      "type": "function"
    },
    {
      "inputs": [
        {
          "internalType": "uint256",
          "name": "requestId",
          "type": "uint256"
        },
        {
          "internalType": "uint256[]",
          "name": "randomWords",
          "type": "uint256[]"
        }
      ],
      "name": "rawFulfillRandomWords",
      "outputs": [],
      "stateMutability": "nonpayable",
      "type": "function"
    },
    {
      "inputs": [],
      "name": "reopenLottery",
      "outputs": [],
      "stateMutability": "nonpayable",
      "type": "function"
    },
    {
      "inputs": [],
      "name": "requestWinningNumbers",
      "outputs": [],
      "stateMutability": "nonpayable",
      "type": "function"
    },
    {
      "inputs": [],
      "name": "rolloverPool",
      "outputs": [
        {
          "internalType": "uint256",
          "name": "",
          "type": "uint256"
        }
      ],
      "stateMutability": "view",
      "type": "function"
    },
    {
      "inputs": [],
      "name": "s_requestId",
      "outputs": [
        {
          "internalType": "uint256",
          "name": "",
          "type": "uint256"
        }
      ],
      "stateMutability": "view",
      "type": "function"
    },
    {
      "inputs": [
        {
          "internalType": "uint256",
          "name": "",
          "type": "uint256"
        }
      ],
      "name": "tickets",
      "outputs": [
        {
          "internalType": "address",
          "name": "player",
          "type": "address"
        }
      ],
      "stateMutability": "view",
      "type": "function"
    },
    {
      "inputs": [
        {
          "internalType": "uint256",
          "name": "",
          "type": "uint256"
        }
      ],
      "name": "winningNumbers",
      "outputs": [
        {
          "internalType": "uint8",
          "name": "",
          "type": "uint8"
        }
      ],
      "stateMutability": "view",
      "type": "function"
    },
    {
      "stateMutability": "payable",
      "type": "receive"
    }
  ],
  "bytecode": "0x60a060405262030d40600760006101000a81548163ffffffff021916908363ffffffff1602179055506003600760046101000a81548161ffff021916908361ffff16021790555060078060066101000a81548163ffffffff021916908363ffffffff1602179055503480156200007457600080fd5b50604051620029b5380380620029b583398181016040528101906200009a91906200028f565b828073ffffffffffffffffffffffffffffffffffffffff1660808173ffffffffffffffffffffffffffffffffffffffff168152505050336000806101000a81548173ffffffffffffffffffffffffffffffffffffffff021916908373ffffffffffffffffffffffffffffffffffffffff1602179055506001600260006101000a81548160ff02191690831515021790555082600560006101000a81548173ffffffffffffffffffffffffffffffffffffffff021916908373ffffffffffffffffffffffffffffffffffffffff1602179055508160068190555080600560146101000a81548167ffffffffffffffff021916908367ffffffffffffffff160217905550505050620002eb565b600080fd5b600073ffffffffffffffffffffffffffffffffffffffff82169050919050565b6000620001d782620001aa565b9050919050565b620001e981620001ca565b8114620001f557600080fd5b50565b6000815190506200020981620001de565b92915050565b6000819050919050565b62000224816200020f565b81146200023057600080fd5b50565b600081519050620002448162000219565b92915050565b600067ffffffffffffffff82169050919050565b62000269816200024a565b81146200027557600080fd5b50565b60008151905062000289816200025e565b92915050565b600080600060608486031215620002ab57620002aa620001a5565b5b6000620002bb86828701620001f8565b9350506020620002ce8682870162000233565b9250506040620002e18682870162000278565b9150509250925092565b6080516126a76200030e6000396000818161036d01526103c101526126a76000f3fe6080604052600436106100a05760003560e01c806350b447121161006457806350b44712146101705780638da5cb5b146101ad578063afbc25f5146101d8578063c60c4ae9146101ef578063e89e106a1461021a578063f6d361cc14610245576100a7565b80630a7a7da6146100ac5780631fe543e3146100c357806339e7397b146100ec5780633c51c7bb146101085780634e45f09514610133576100a7565b366100a757005b600080fd5b3480156100b857600080fd5b506100c1610270565b005b3480156100cf57600080fd5b506100ea60048036038101906100e59190611152565b61036b565b005b61010660048036038101906101019190611298565b61042b565b005b34801561011457600080fd5b5061011d610662565b60405161012a91906112d4565b60405180910390f35b34801561013f57600080fd5b5061015a600480360381019061015591906112ef565b610668565b604051610167919061132b565b60405180910390f35b34801561017c57600080fd5b50610197600480360381019061019291906112ef565b610692565b6040516101a49190611387565b60405180910390f35b3480156101b957600080fd5b506101c26106e0565b6040516101cf9190611387565b60405180910390f35b3480156101e457600080fd5b506101ed610704565b005b3480156101fb57600080fd5b506102046108db565b60405161021191906113bd565b60405180910390f35b34801561022657600080fd5b5061022f6108ee565b60405161023c91906112d4565b60405180910390f35b34801561025157600080fd5b5061025a6108f4565b60405161026791906112d4565b60405180910390f35b60008054906101000a900473ffffffffffffffffffffffffffffffffffffffff1673ffffffffffffffffffffffffffffffffffffffff163373ffffffffffffffffffffffffffffffffffffffff16146102fe576040517f08c379a00000000000000000000000000000000000000000000000000000000081526004016102f590611435565b60405180910390fd5b600260009054906101000a900460ff161561034e576040517f08c379a0000000000000000000000000000000000000000000000000000000008152600401610345906114a1565b60405180910390fd5b6001600260006101000a81548160ff021916908315150217905550565b7f000000000000000000000000000000000000000000000000000000000000000073ffffffffffffffffffffffffffffffffffffffff163373ffffffffffffffffffffffffffffffffffffffff161461041d57337f00000000000000000000000000000000000000000000000000000000000000006040517f1cf993f40000000000000000000000000000000000000000000000000000000081526004016104149291906114c1565b60405180910390fd5b61042782826108fc565b5050565b600260009054906101000a900460ff1661047a576040517f08c379a000000000000000000000000000000000000000000000000000000000815260040161047190611536565b60405180910390fd5b637735940034146104c0576040517f08c379a00000000000000000000000000000000000000000000000000000000081526004016104b7906115a2565b60405180910390fd5b60005b60078110156105645760018282600781106104e1576104e06115c2565b5b602002015160ff16101580156105125750602f828260078110610507576105066115c2565b5b602002015160ff1611155b610551576040517f08c379a00000000000000000000000000000000000000000000000000000000081526004016105489061163d565b60405180910390fd5b808061055c9061168c565b9150506104c3565b50600460405180604001604052803373ffffffffffffffffffffffffffffffffffffffff16815260200183815250908060018154018082558091505060019003906000526020600020906002020160009091909190915060008201518160000160006101000a81548173ffffffffffffffffffffffffffffffffffffffff021916908373ffffffffffffffffffffffffffffffffffffffff160217905550602082015181600101906007610619929190610e5c565b5050503373ffffffffffffffffffffffffffffffffffffffff167f23443ac3afaec974c2d4368824912f61a50fee541bcc94ec52414ba6a9b14aab60405160405180910390a250565b60015481565b6003816007811061067857600080fd5b60209182820401919006915054906101000a900460ff1681565b600481815481106106a257600080fd5b90600052602060002090600202016000915090508060000160009054906101000a900473ffffffffffffffffffffffffffffffffffffffff16905081565b60008054906101000a900473ffffffffffffffffffffffffffffffffffffffff1681565b60008054906101000a900473ffffffffffffffffffffffffffffffffffffffff1673ffffffffffffffffffffffffffffffffffffffff163373ffffffffffffffffffffffffffffffffffffffff1614610792576040517f08c379a000000000000000000000000000000000000000000000000000000000815260040161078990611435565b60405180910390fd5b600260009054906101000a900460ff166107e1576040517f08c379a00000000000000000000000000000000000000000000000000000000081526004016107d890611536565b60405180910390fd5b600560009054906101000a900473ffffffffffffffffffffffffffffffffffffffff1673ffffffffffffffffffffffffffffffffffffffff16635d3b1d30600654600560149054906101000a900467ffffffffffffffff16600760049054906101000a900461ffff16600760009054906101000a900463ffffffff16600760069054906101000a900463ffffffff166040518663ffffffff1660e01b815260040161089095949392919061174c565b6020604051808303816000875af11580156108af573d6000803e3d6000fd5b505050506040513d601f19601f820116820180604052508101906108d391906117b4565b600881905550565b600260009054906101000a900460ff1681565b60085481565b637735940081565b60005b6007811015610982576001602f83838151811061091f5761091e6115c2565b5b60200260200101516109319190611810565b61093b9190611841565b6003826007811061094f5761094e6115c2565b5b602091828204019190066101000a81548160ff021916908360ff160217905550808061097a9061168c565b9150506108ff565b507fa8cf9ef783a1fe7dd773c9c3d8d5716396b2071fc1ff7c009b67b9defa94844160036040516109b391906125af565b60405180910390a16109c36109c7565b5050565b600047905060006064600a836109dd91906125ca565b6109e7919061260c565b905060008054906101000a900473ffffffffffffffffffffffffffffffffffffffff1673ffffffffffffffffffffffffffffffffffffffff166108fc829081150290604051600060405180830381858888f19350505050158015610a4f573d6000803e3d6000fd5b5060008183610a5e919061263d565b9050610a68610ef6565b60005b600480549050811015610b51576000610b0960048381548110610a9157610a906115c2565b5b9060005260206000209060020201600101600780602002604051908101604052809291908260078015610aff576020028201916000905b82829054906101000a900460ff1660ff1681526020019060010190602082600001049283019260010382029150808411610ac85790505b5050505050610d5e565b905060028110610b3d57828160088110610b2657610b256115c2565b5b602002018051809190610b389061168c565b815250505b508080610b499061168c565b915050610a6b565b5060005b600480549050811015610d16576000610bf360048381548110610b7b57610b7a6115c2565b5b9060005260206000209060020201600101600780602002604051908101604052809291908260078015610be9576020028201916000905b82829054906101000a900460ff1660ff1681526020019060010190602082600001049283019260010382029150808411610bb25790505b5050505050610d5e565b905060028110158015610c1d57506000838260088110610c1657610c156115c2565b5b6020020151115b15610d02576000610c2d82610dea565b9050600060648287610c3f91906125ca565b610c49919061260c565b90506000858460088110610c6057610c5f6115c2565b5b602002015182610c70919061260c565b905060048581548110610c8657610c856115c2565b5b906000526020600020906002020160000160009054906101000a900473ffffffffffffffffffffffffffffffffffffffff1673ffffffffffffffffffffffffffffffffffffffff166108fc829081150290604051600060405180830381858888f19350505050158015610cfd573d6000803e3d6000fd5b505050505b508080610d0e9061168c565b915050610b55565b504760018190555060046000610d2c9190610f19565b7fefea7889cd26c56b4174d211c6b03e98a905c56c27fbd926d308e082727de59d60405160405180910390a150505050565b6000806000905060005b6007811015610de05760038160078110610d8557610d846115c2565b5b602091828204019190069054906101000a900460ff1660ff16848260078110610db157610db06115c2565b5b602002015160ff1603610dcd578180610dc99061168c565b9250505b8080610dd89061168c565b915050610d68565b5080915050919050565b600060028203610dfd5760059050610e57565b60038203610e0e57600a9050610e57565b60048203610e1f57600f9050610e57565b60058203610e305760149050610e57565b60068203610e415760149050610e57565b60078203610e5257601e9050610e57565b600090505b919050565b826007601f01602090048101928215610ee55791602002820160005b83821115610eb657835183826101000a81548160ff021916908360ff1602179055509260200192600101602081600001049283019260010302610e78565b8015610ee35782816101000a81549060ff0219169055600101602081600001049283019260010302610eb6565b505b509050610ef29190610f3d565b5090565b604051806101000160405280600890602082028036833780820191505090505090565b5080546000825560020290600052602060002090810190610f3a9190610f5a565b50565b5b80821115610f56576000816000905550600101610f3e565b5090565b5b80821115610fa457600080820160006101000a81549073ffffffffffffffffffffffffffffffffffffffff0219169055600182016000610f9b9190610fa8565b50600201610f5b565b5090565b5060009055565b6000604051905090565b600080fd5b600080fd5b6000819050919050565b610fd681610fc3565b8114610fe157600080fd5b50565b600081359050610ff381610fcd565b92915050565b600080fd5b6000601f19601f8301169050919050565b7f4e487b7100000000000000000000000000000000000000000000000000000000600052604160045260246000fd5b61104782610ffe565b810181811067ffffffffffffffff821117156110665761106561100f565b5b80604052505050565b6000611079610faf565b9050611085828261103e565b919050565b600067ffffffffffffffff8211156110a5576110a461100f565b5b602082029050602081019050919050565b600080fd5b60006110ce6110c98461108a565b61106f565b905080838252602082019050602084028301858111156110f1576110f06110b6565b5b835b8181101561111a57806111068882610fe4565b8452602084019350506020810190506110f3565b5050509392505050565b600082601f83011261113957611138610ff9565b5b81356111498482602086016110bb565b91505092915050565b6000806040838503121561116957611168610fb9565b5b600061117785828601610fe4565b925050602083013567ffffffffffffffff81111561119857611197610fbe565b5b6111a485828601611124565b9150509250929050565b600067ffffffffffffffff8211156111c9576111c861100f565b5b602082029050919050565b600060ff82169050919050565b6111ea816111d4565b81146111f557600080fd5b50565b600081359050611207816111e1565b92915050565b600061122061121b846111ae565b61106f565b9050806020840283018581111561123a576112396110b6565b5b835b81811015611263578061124f88826111f8565b84526020840193505060208101905061123c565b5050509392505050565b600082601f83011261128257611281610ff9565b5b600761128f84828561120d565b91505092915050565b600060e082840312156112ae576112ad610fb9565b5b60006112bc8482850161126d565b91505092915050565b6112ce81610fc3565b82525050565b60006020820190506112e960008301846112c5565b92915050565b60006020828403121561130557611304610fb9565b5b600061131384828501610fe4565b91505092915050565b611325816111d4565b82525050565b6000602082019050611340600083018461131c565b92915050565b600073ffffffffffffffffffffffffffffffffffffffff82169050919050565b600061137182611346565b9050919050565b61138181611366565b82525050565b600060208201905061139c6000830184611378565b92915050565b60008115159050919050565b6113b7816113a2565b82525050565b60006020820190506113d260008301846113ae565b92915050565b600082825260208201905092915050565b7f4e6f74206f776e65720000000000000000000000000000000000000000000000600082015250565b600061141f6009836113d8565b915061142a826113e9565b602082019050919050565b6000602082019050818103600083015261144e81611412565b9050919050565b7f416c7265616479206f70656e0000000000000000000000000000000000000000600082015250565b600061148b600c836113d8565b915061149682611455565b602082019050919050565b600060208201905081810360008301526114ba8161147e565b9050919050565b60006040820190506114d66000830185611378565b6114e36020830184611378565b9392505050565b7f4c6f747465727920636c6f736564000000000000000000000000000000000000600082015250565b6000611520600e836113d8565b915061152b826114ea565b602082019050919050565b6000602082019050818103600083015261154f81611513565b9050919050565b7f496e636f727265637420656e7472792066656500000000000000000000000000600082015250565b600061158c6013836113d8565b915061159782611556565b602082019050919050565b600060208201905081810360008301526115bb8161157f565b9050919050565b7f4e487b7100000000000000000000000000000000000000000000000000000000600052603260045260246000fd5b7f496e76616c6964206e756d626572000000000000000000000000000000000000600082015250565b6000611627600e836113d8565b9150611632826115f1565b602082019050919050565b600060208201905081810360008301526116568161161a565b9050919050565b7f4e487b7100000000000000000000000000000000000000000000000000000000600052601160045260246000fd5b600061169782610fc3565b91507fffffffffffffffffffffffffffffffffffffffffffffffffffffffffffffffff82036116c9576116c861165d565b5b600182019050919050565b6000819050919050565b6116e7816116d4565b82525050565b600067ffffffffffffffff82169050919050565b61170a816116ed565b82525050565b600061ffff82169050919050565b61172781611710565b82525050565b600063ffffffff82169050919050565b6117468161172d565b82525050565b600060a08201905061176160008301886116de565b61176e6020830187611701565b61177b604083018661171e565b611788606083018561173d565b611795608083018461173d565b9695505050505050565b6000815190506117ae81610fcd565b92915050565b6000602082840312156117ca576117c9610fb9565b5b60006117d88482850161179f565b91505092915050565b7f4e487b7100000000000000000000000000000000000000000000000000000000600052601260045260246000fd5b600061181b82610fc3565b915061182683610fc3565b925082611836576118356117e1565b5b828206905092915050565b600061184c82610fc3565b915061185783610fc3565b925082820190508082111561186f5761186e61165d565b5b92915050565b600060079050919050565b600081905092915050565b6000819050919050565b61189e816111d4565b82525050565b60008160001c9050919050565b600060ff82169050919050565b60006118d16118cc836118a4565b6118b1565b9050919050565b60008160081c9050919050565b60006118f86118f3836118d8565b6118b1565b9050919050565b60008160101c9050919050565b600061191f61191a836118ff565b6118b1565b9050919050565b60008160181c9050919050565b600061194661194183611926565b6118b1565b9050919050565b60008160201c9050919050565b600061196d6119688361194d565b6118b1565b9050919050565b60008160281c9050919050565b600061199461198f83611974565b6118b1565b9050919050565b60008160301c9050919050565b60006119bb6119b68361199b565b6118b1565b9050919050565b60008160381c9050919050565b60006119e26119dd836119c2565b6118b1565b9050919050565b60008160401c9050919050565b6000611a09611a04836119e9565b6118b1565b9050919050565b60008160481c9050919050565b6000611a30611a2b83611a10565b6118b1565b9050919050565b60008160501c9050919050565b6000611a57611a5283611a37565b6118b1565b9050919050565b60008160581c9050919050565b6000611a7e611a7983611a5e565b6118b1565b9050919050565b60008160601c9050919050565b6000611aa5611aa083611a85565b6118b1565b9050919050565b60008160681c9050919050565b6000611acc611ac783611aac565b6118b1565b9050919050565b60008160701c9050919050565b6000611af3611aee83611ad3565b6118b1565b9050919050565b60008160781c9050919050565b6000611b1a611b1583611afa565b6118b1565b9050919050565b60008160801c9050919050565b6000611b41611b3c83611b21565b6118b1565b9050919050565b60008160881c9050919050565b6000611b68611b6383611b48565b6118b1565b9050919050565b60008160901c9050919050565b6000611b8f611b8a83611b6f565b6118b1565b9050919050565b60008160981c9050919050565b6000611bb6611bb183611b96565b6118b1565b9050919050565b60008160a01c9050919050565b6000611bdd611bd883611bbd565b6118b1565b9050919050565b60008160a81c9050919050565b6000611c04611bff83611be4565b6118b1565b9050919050565b60008160b01c9050919050565b6000611c2b611c2683611c0b565b6118b1565b9050919050565b60008160b81c9050919050565b6000611c52611c4d83611c32565b6118b1565b9050919050565b60008160c01c9050919050565b6000611c79611c7483611c59565b6118b1565b9050919050565b60008160c81c9050919050565b6000611ca0611c9b83611c80565b6118b1565b9050919050565b60008160d01c9050919050565b6000611cc7611cc283611ca7565b6118b1565b9050919050565b60008160d81c9050919050565b6000611cee611ce983611cce565b6118b1565b9050919050565b60008160e01c9050919050565b6000611d15611d1083611cf5565b6118b1565b9050919050565b60008160e81c9050919050565b6000611d3c611d3783611d1c565b6118b1565b9050919050565b60008160f01c9050919050565b6000611d63611d5e83611d43565b6118b1565b9050919050565b60008160f81c9050919050565b6000611d8a611d8583611d6a565b6118b1565b9050919050565b611d9a81611875565b611da48184611880565b925082611db08361188b565b600080156120dc575b836001602003820110156120db578154611ddb87611dd6836118be565b611895565b602087019650611df387611dee836118e5565b611895565b602087019650611e0b87611e068361190c565b611895565b602087019650611e2387611e1e83611933565b611895565b602087019650611e3b87611e368361195a565b611895565b602087019650611e5387611e4e83611981565b611895565b602087019650611e6b87611e66836119a8565b611895565b602087019650611e8387611e7e836119cf565b611895565b602087019650611e9b87611e96836119f6565b611895565b602087019650611eb387611eae83611a1d565b611895565b602087019650611ecb87611ec683611a44565b611895565b602087019650611ee387611ede83611a6b565b611895565b602087019650611efb87611ef683611a92565b611895565b602087019650611f1387611f0e83611ab9565b611895565b602087019650611f2b87611f2683611ae0565b611895565b602087019650611f4387611f3e83611b07565b611895565b602087019650611f5b87611f5683611b2e565b611895565b602087019650611f7387611f6e83611b55565b611895565b602087019650611f8b87611f8683611b7c565b611895565b602087019650611fa387611f9e83611ba3565b611895565b602087019650611fbb87611fb683611bca565b611895565b602087019650611fd387611fce83611bf1565b611895565b602087019650611feb87611fe683611c18565b611895565b60208701965061200387611ffe83611c3f565b611895565b60208701965061201b8761201683611c66565b611895565b6020870196506120338761202e83611c8d565b611895565b60208701965061204b8761204683611cb4565b611895565b6020870196506120638761205e83611cdb565b611895565b60208701965061207b8761207683611d02565b611895565b6020870196506120938761208e83611d29565b611895565b6020870196506120ab876120a683611d50565b611895565b6020870196506120c3876120be83611d77565b611895565b60208701965060018301925050602081019050611db9565b5b6001156125a757815460011561210b576120fe876120f9836118be565b611895565b6020870196506001820191505b600115612131576121248761211f836118e5565b611895565b6020870196506001820191505b6001156121575761214a876121458361190c565b611895565b6020870196506001820191505b60011561217d576121708761216b83611933565b611895565b6020870196506001820191505b6001156121a357612196876121918361195a565b611895565b6020870196506001820191505b6001156121c9576121bc876121b783611981565b611895565b6020870196506001820191505b6001156121ef576121e2876121dd836119a8565b611895565b6020870196506001820191505b6000156122155761220887612203836119cf565b611895565b6020870196506001820191505b60001561223b5761222e87612229836119f6565b611895565b6020870196506001820191505b600015612261576122548761224f83611a1d565b611895565b6020870196506001820191505b6000156122875761227a8761227583611a44565b611895565b6020870196506001820191505b6000156122ad576122a08761229b83611a6b565b611895565b6020870196506001820191505b6000156122d3576122c6876122c183611a92565b611895565b6020870196506001820191505b6000156122f9576122ec876122e783611ab9565b611895565b6020870196506001820191505b60001561231f576123128761230d83611ae0565b611895565b6020870196506001820191505b600015612345576123388761233383611b07565b611895565b6020870196506001820191505b60001561236b5761235e8761235983611b2e565b611895565b6020870196506001820191505b600015612391576123848761237f83611b55565b611895565b6020870196506001820191505b6000156123b7576123aa876123a583611b7c565b611895565b6020870196506001820191505b6000156123dd576123d0876123cb83611ba3565b611895565b6020870196506001820191505b600015612403576123f6876123f183611bca565b611895565b6020870196506001820191505b6000156124295761241c8761241783611bf1565b611895565b6020870196506001820191505b60001561244f576124428761243d83611c18565b611895565b6020870196506001820191505b600015612475576124688761246383611c3f565b611895565b6020870196506001820191505b60001561249b5761248e8761248983611c66565b611895565b6020870196506001820191505b6000156124c1576124b4876124af83611c8d565b611895565b6020870196506001820191505b6000156124e7576124da876124d583611cb4565b611895565b6020870196506001820191505b60001561250d57612500876124fb83611cdb565b611895565b6020870196506001820191505b600015612533576125268761252183611d02565b611895565b6020870196506001820191505b6000156125595761254c8761254783611d29565b611895565b6020870196506001820191505b60001561257f576125728761256d83611d50565b611895565b6020870196506001820191505b6000156125a5576125988761259383611d77565b611895565b6020870196506001820191505b505b505050505050565b600060e0820190506125c46000830184611d91565b92915050565b60006125d582610fc3565b91506125e083610fc3565b92508282026125ee81610fc3565b915082820484148315176126055761260461165d565b5b5092915050565b600061261782610fc3565b915061262283610fc3565b925082612632576126316117e1565b5b828204905092915050565b600061264882610fc3565b915061265383610fc3565b925082820390508181111561266b5761266a61165d565b5b9291505056fea2646970667358221220ee28df062eb476448d3a586060de1fabece05b5a11fb9edb3ecac50ece8a47e864736f6c63430008140033",
  "linkReferences": {},
  "deployedLinkReferences": {}
}