{
  "_format": "hh-sol-artifact-1",
  "contractName": "lotteryGame",
  "sourceName": "contracts/lotteryGame.sol",
  "abi": [
    {
      "inputs": [],
      "stateMutability": "nonpayable",
      "type": "constructor"
    },
    {
      "inputs": [
        {
          "internalType": "address",
          "name": "have",
          "type": "address"
        },
        {
          "internalType": "address",
          "name": "want",
          "type": "address"
        }
      ],
      "name": "OnlyCoordinatorCanFulfill",
      "type": "error"
    },
    {
      "inputs": [
        {
          "internalType": "address",
          "name": "have",
          "type": "address"
        },
        {
          "internalType": "address",
          "name": "owner",
          "type": "address"
        },
        {
          "internalType": "address",
          "name": "coordinator",
          "type": "address"
        }
      ],
      "name": "OnlyOwnerOrCoordinator",
      "type": "error"
    },
    {
      "inputs": [],
      "name": "ZeroAddress",
      "type": "error"
    },
    {
      "anonymous": false,
      "inputs": [
        {
          "indexed": false,
          "internalType": "address",
          "name": "vrfCoordinator",
          "type": "address"
        }
      ],
      "name": "CoordinatorSet",
      "type": "event"
    },
    {
      "anonymous": false,
      "inputs": [
        {
          "indexed": true,
          "internalType": "address",
          "name": "from",
          "type": "address"
        },
        {
          "indexed": true,
          "internalType": "address",
          "name": "to",
          "type": "address"
        }
      ],
      "name": "OwnershipTransferRequested",
      "type": "event"
    },
    {
      "anonymous": false,
      "inputs": [
        {
          "indexed": true,
          "internalType": "address",
          "name": "from",
          "type": "address"
        },
        {
          "indexed": true,
          "internalType": "address",
          "name": "to",
          "type": "address"
        }
      ],
      "name": "OwnershipTransferred",
      "type": "event"
    },
    {
      "anonymous": false,
      "inputs": [
        {
          "indexed": true,
          "internalType": "address",
          "name": "player",
          "type": "address"
        },
        {
          "indexed": false,
          "internalType": "uint256",
          "name": "amount",
          "type": "uint256"
        }
      ],
      "name": "RewardClaimed",
      "type": "event"
    },
    {
      "anonymous": false,
      "inputs": [
        {
          "indexed": true,
          "internalType": "address",
          "name": "player",
          "type": "address"
        }
      ],
      "name": "TicketPurchased",
      "type": "event"
    },
    {
      "anonymous": false,
      "inputs": [
        {
          "indexed": false,
          "internalType": "uint8[7]",
          "name": "numbers",
          "type": "uint8[7]"
        }
      ],
      "name": "WinningNumbersGenerated",
      "type": "event"
    },
    {
      "inputs": [],
      "name": "ENTRY_FEE",
      "outputs": [
        {
          "internalType": "uint256",
          "name": "",
          "type": "uint256"
        }
      ],
      "stateMutability": "view",
      "type": "function"
    },
    {
      "inputs": [],
      "name": "acceptOwnership",
      "outputs": [],
      "stateMutability": "nonpayable",
      "type": "function"
    },
    {
      "inputs": [
        {
          "internalType": "uint8[7]",
          "name": "numbers",
          "type": "uint8[7]"
        }
      ],
      "name": "buyTicket",
      "outputs": [],
      "stateMutability": "payable",
      "type": "function"
    },
    {
      "inputs": [],
      "name": "callbackGasLimit",
      "outputs": [
        {
          "internalType": "uint32",
          "name": "",
          "type": "uint32"
        }
      ],
      "stateMutability": "view",
      "type": "function"
    },
    {
      "inputs": [],
      "name": "claimReward",
      "outputs": [],
      "stateMutability": "nonpayable",
      "type": "function"
    },
    {
      "inputs": [],
      "name": "keyHash",
      "outputs": [
        {
          "internalType": "bytes32",
          "name": "",
          "type": "bytes32"
        }
      ],
      "stateMutability": "view",
      "type": "function"
    },
    {
      "inputs": [],
      "name": "lotteryOpen",
      "outputs": [
        {
          "internalType": "bool",
          "name": "",
          "type": "bool"
        }
      ],
      "stateMutability": "view",
      "type": "function"
    },
    {
      "inputs": [],
      "name": "numWords",
      "outputs": [
        {
          "internalType": "uint32",
          "name": "",
          "type": "uint32"
        }
      ],
      "stateMutability": "view",
      "type": "function"
    },
    {
      "inputs": [],
      "name": "owner",
      "outputs": [
        {
          "internalType": "address",
          "name": "",
          "type": "address"
        }
      ],
      "stateMutability": "view",
      "type": "function"
    },
    {
      "inputs": [
        {
          "internalType": "address",
          "name": "",
          "type": "address"
        }
      ],
      "name": "pendingRewards",
      "outputs": [
        {
          "internalType": "uint256",
          "name": "",
          "type": "uint256"
        }
      ],
      "stateMutability": "view",
      "type": "function"
    },
    {
      "inputs": [
        {
          "internalType": "uint256",
          "name": "requestId",
          "type": "uint256"
        },
        {
          "internalType": "uint256[]",
          "name": "randomWords",
          "type": "uint256[]"
        }
      ],
      "name": "rawFulfillRandomWords",
      "outputs": [],
      "stateMutability": "nonpayable",
      "type": "function"
    },
    {
      "inputs": [],
      "name": "requestConfirmations",
      "outputs": [
        {
          "internalType": "uint16",
          "name": "",
          "type": "uint16"
        }
      ],
      "stateMutability": "view",
      "type": "function"
    },
    {
      "inputs": [],
      "name": "roundStartTime",
      "outputs": [
        {
          "internalType": "uint256",
          "name": "",
          "type": "uint256"
        }
      ],
      "stateMutability": "view",
      "type": "function"
    },
    {
      "inputs": [],
      "name": "s_vrfCoordinator",
      "outputs": [
        {
          "internalType": "contract IVRFCoordinatorV2Plus",
          "name": "",
          "type": "address"
        }
      ],
      "stateMutability": "view",
      "type": "function"
    },
    {
      "inputs": [
        {
          "internalType": "address",
          "name": "_vrfCoordinator",
          "type": "address"
        }
      ],
      "name": "setCoordinator",
      "outputs": [],
      "stateMutability": "nonpayable",
      "type": "function"
    },
    {
      "inputs": [],
      "name": "subscriptionId",
      "outputs": [
        {
          "internalType": "uint256",
          "name": "",
          "type": "uint256"
        }
      ],
      "stateMutability": "view",
      "type": "function"
    },
    {
      "inputs": [
        {
          "internalType": "uint256",
          "name": "",
          "type": "uint256"
        }
      ],
      "name": "tickets",
      "outputs": [
        {
          "internalType": "address",
          "name": "player",
          "type": "address"
        }
      ],
      "stateMutability": "view",
      "type": "function"
    },
    {
      "inputs": [
        {
          "internalType": "address",
          "name": "to",
          "type": "address"
        }
      ],
      "name": "transferOwnership",
      "outputs": [],
      "stateMutability": "nonpayable",
      "type": "function"
    },
    {
      "inputs": [
        {
          "internalType": "uint256",
          "name": "",
          "type": "uint256"
        }
      ],
      "name": "winningNumbers",
      "outputs": [
        {
          "internalType": "uint8",
          "name": "",
          "type": "uint8"
        }
      ],
      "stateMutability": "view",
      "type": "function"
    },
    {
      "stateMutability": "payable",
      "type": "receive"
    }
  ],
  "bytecode": "0x60806040527f787d74caea10b2b357790d5b5247c2f63d1d91572a9846f780606e4d953677ae60001b6008557f1d1d42569ec31d787e74d497efe00546d84a8e0283f0f065794a3548e85cb162600955620aae60600a60006101000a81548163ffffffff021916908363ffffffff1602179055506003600a60046101000a81548161ffff021916908361ffff1602179055506007600a60066101000a81548163ffffffff021916908363ffffffff160217905550348015620000c057600080fd5b50739ddfaca8183c41ad55329bdeed9f6a8d53168b1b338060008073ffffffffffffffffffffffffffffffffffffffff168273ffffffffffffffffffffffffffffffffffffffff16036200014b576040517f08c379a000000000000000000000000000000000000000000000000000000000815260040162000142906200042f565b60405180910390fd5b816000806101000a81548173ffffffffffffffffffffffffffffffffffffffff021916908373ffffffffffffffffffffffffffffffffffffffff160217905550600073ffffffffffffffffffffffffffffffffffffffff168173ffffffffffffffffffffffffffffffffffffffff1614620001d257620001d1816200029f60201b60201c565b5b505050600073ffffffffffffffffffffffffffffffffffffffff168173ffffffffffffffffffffffffffffffffffffffff16036200023c576040517fd92e233d00000000000000000000000000000000000000000000000000000000815260040160405180910390fd5b80600260006101000a81548173ffffffffffffffffffffffffffffffffffffffff021916908373ffffffffffffffffffffffffffffffffffffffff160217905550506000600560006101000a81548160ff021916908315150217905550620004c3565b3373ffffffffffffffffffffffffffffffffffffffff168173ffffffffffffffffffffffffffffffffffffffff160362000310576040517f08c379a00000000000000000000000000000000000000000000000000000000081526004016200030790620004a1565b60405180910390fd5b80600160006101000a81548173ffffffffffffffffffffffffffffffffffffffff021916908373ffffffffffffffffffffffffffffffffffffffff1602179055508073ffffffffffffffffffffffffffffffffffffffff1660008054906101000a900473ffffffffffffffffffffffffffffffffffffffff1673ffffffffffffffffffffffffffffffffffffffff167fed8889f560326eb138920d842192f0eb3dd22b4f139c87a2c57538e05bae127860405160405180910390a350565b600082825260208201905092915050565b7f43616e6e6f7420736574206f776e657220746f207a65726f0000000000000000600082015250565b600062000417601883620003ce565b91506200042482620003df565b602082019050919050565b600060208201905081810360008301526200044a8162000408565b9050919050565b7f43616e6e6f74207472616e7366657220746f2073656c66000000000000000000600082015250565b600062000489601783620003ce565b9150620004968262000451565b602082019050919050565b60006020820190508181036000830152620004bc816200047a565b9050919050565b61314a80620004d36000396000f3fe6080604052600436106101185760003560e01c80637ccfd7fc116100a0578063b88a802f11610064578063b88a802f1461038d578063c60c4ae9146103a4578063dd4f8f74146103cf578063f2fde38b146103fa578063f6d361cc146104235761011f565b80637ccfd7fc146102b85780638da5cb5b146102e35780638ea981171461030e5780639eccacf614610337578063b0fb162f146103625761011f565b806339e7397b116100e757806339e7397b146101e05780634e45f095146101fc57806350b447121461023957806361728f391461027657806379ba5097146102a15761011f565b806309c1ba2e146101245780631fe543e31461014f57806324f746971461017857806331d7a262146101a35761011f565b3661011f57005b600080fd5b34801561013057600080fd5b5061013961044e565b60405161014691906117d2565b60405180910390f35b34801561015b57600080fd5b5061017660048036038101906101719190611892565b610454565b005b34801561018457600080fd5b5061018d61051a565b60405161019a9190611911565b60405180910390f35b3480156101af57600080fd5b506101ca60048036038101906101c5919061198a565b610530565b6040516101d791906117d2565b60405180910390f35b6101fa60048036038101906101f59190611b2d565b610548565b005b34801561020857600080fd5b50610223600480360381019061021e9190611b5a565b6107be565b6040516102309190611b96565b60405180910390f35b34801561024557600080fd5b50610260600480360381019061025b9190611b5a565b6107e8565b60405161026d9190611bc0565b60405180910390f35b34801561028257600080fd5b5061028b610836565b6040516102989190611bf4565b60405180910390f35b3480156102ad57600080fd5b506102b661083c565b005b3480156102c457600080fd5b506102cd6109d1565b6040516102da9190611911565b60405180910390f35b3480156102ef57600080fd5b506102f86109e7565b6040516103059190611bc0565b60405180910390f35b34801561031a57600080fd5b506103356004803603810190610330919061198a565b610a10565b005b34801561034357600080fd5b5061034c610bf1565b6040516103599190611c6e565b60405180910390f35b34801561036e57600080fd5b50610377610c17565b6040516103849190611ca6565b60405180910390f35b34801561039957600080fd5b506103a2610c2b565b005b3480156103b057600080fd5b506103b9610d8f565b6040516103c69190611cdc565b60405180910390f35b3480156103db57600080fd5b506103e4610da2565b6040516103f191906117d2565b60405180910390f35b34801561040657600080fd5b50610421600480360381019061041c919061198a565b610da8565b005b34801561042f57600080fd5b50610438610dbc565b60405161044591906117d2565b60405180910390f35b60095481565b600260009054906101000a900473ffffffffffffffffffffffffffffffffffffffff1673ffffffffffffffffffffffffffffffffffffffff163373ffffffffffffffffffffffffffffffffffffffff161461050a5733600260009054906101000a900473ffffffffffffffffffffffffffffffffffffffff166040517f1cf993f4000000000000000000000000000000000000000000000000000000008152600401610501929190611cf7565b60405180910390fd5b610515838383610dc1565b505050565b600a60009054906101000a900463ffffffff1681565b60076020528060005260406000206000915090505481565b6001341461058b576040517f08c379a000000000000000000000000000000000000000000000000000000000815260040161058290611d7d565b60405180910390fd5b600560009054906101000a900460ff166105c2576001600560006101000a81548160ff021916908315150217905550426004819055505b600560009054906101000a900460ff1680156105ec575061012c6004546105e99190611dcc565b42115b1561061b576000600560006101000a81548160ff0219169083151502179055506106166001610e8c565b6107bb565b60005b60078110156106bf57600182826007811061063c5761063b611e00565b5b602002015160ff161015801561066d5750602f82826007811061066257610661611e00565b5b602002015160ff1611155b6106ac576040517f08c379a00000000000000000000000000000000000000000000000000000000081526004016106a390611e7b565b60405180910390fd5b80806106b790611e9b565b91505061061e565b50600660405180604001604052803373ffffffffffffffffffffffffffffffffffffffff16815260200183815250908060018154018082558091505060019003906000526020600020906002020160009091909190915060008201518160000160006101000a81548173ffffffffffffffffffffffffffffffffffffffff021916908373ffffffffffffffffffffffffffffffffffffffff160217905550602082015181600101906007610774929190611666565b5050503373ffffffffffffffffffffffffffffffffffffffff167f23443ac3afaec974c2d4368824912f61a50fee541bcc94ec52414ba6a9b14aab60405160405180910390a25b50565b600381600781106107ce57600080fd5b60209182820401919006915054906101000a900460ff1681565b600681815481106107f857600080fd5b90600052602060002090600202016000915090508060000160009054906101000a900473ffffffffffffffffffffffffffffffffffffffff16905081565b60085481565b600160009054906101000a900473ffffffffffffffffffffffffffffffffffffffff1673ffffffffffffffffffffffffffffffffffffffff163373ffffffffffffffffffffffffffffffffffffffff16146108cc576040517f08c379a00000000000000000000000000000000000000000000000000000000081526004016108c390611f2f565b60405180910390fd5b60008060009054906101000a900473ffffffffffffffffffffffffffffffffffffffff169050336000806101000a81548173ffffffffffffffffffffffffffffffffffffffff021916908373ffffffffffffffffffffffffffffffffffffffff1602179055506000600160006101000a81548173ffffffffffffffffffffffffffffffffffffffff021916908373ffffffffffffffffffffffffffffffffffffffff1602179055503373ffffffffffffffffffffffffffffffffffffffff168173ffffffffffffffffffffffffffffffffffffffff167f8be0079c531659141344cd1fd0a4f28419497f9722a3daafe3b4186f6b6457e060405160405180910390a350565b600a60069054906101000a900463ffffffff1681565b60008060009054906101000a900473ffffffffffffffffffffffffffffffffffffffff16905090565b610a186109e7565b73ffffffffffffffffffffffffffffffffffffffff163373ffffffffffffffffffffffffffffffffffffffff1614158015610aa15750600260009054906101000a900473ffffffffffffffffffffffffffffffffffffffff1673ffffffffffffffffffffffffffffffffffffffff163373ffffffffffffffffffffffffffffffffffffffff1614155b15610b105733610aaf6109e7565b600260009054906101000a900473ffffffffffffffffffffffffffffffffffffffff166040517f061db9c1000000000000000000000000000000000000000000000000000000008152600401610b0793929190611f4f565b60405180910390fd5b600073ffffffffffffffffffffffffffffffffffffffff168173ffffffffffffffffffffffffffffffffffffffff1603610b76576040517fd92e233d00000000000000000000000000000000000000000000000000000000815260040160405180910390fd5b80600260006101000a81548173ffffffffffffffffffffffffffffffffffffffff021916908373ffffffffffffffffffffffffffffffffffffffff1602179055507fd1a6a14209a385a964d036e404cb5cfb71f4000cdb03c9366292430787261be681604051610be69190611bc0565b60405180910390a150565b600260009054906101000a900473ffffffffffffffffffffffffffffffffffffffff1681565b600a60049054906101000a900461ffff1681565b6000600760003373ffffffffffffffffffffffffffffffffffffffff1673ffffffffffffffffffffffffffffffffffffffff16815260200190815260200160002054905060008111610cb2576040517f08c379a0000000000000000000000000000000000000000000000000000000008152600401610ca990611fd2565b60405180910390fd5b6000600760003373ffffffffffffffffffffffffffffffffffffffff1673ffffffffffffffffffffffffffffffffffffffff168152602001908152602001600020819055503373ffffffffffffffffffffffffffffffffffffffff166108fc829081150290604051600060405180830381858888f19350505050158015610d3d573d6000803e3d6000fd5b503373ffffffffffffffffffffffffffffffffffffffff167f106f923f993c2149d49b4255ff723acafa1f2d94393f561d3eda32ae348f724182604051610d8491906117d2565b60405180910390a250565b600560009054906101000a900460ff1681565b60045481565b610db0610fba565b610db98161104a565b50565b600181565b60005b6007811015610e46576001602f848484818110610de457610de3611e00565b5b90506020020135610df59190612021565b610dff9190611dcc565b60038260078110610e1357610e12611e00565b5b602091828204019190066101000a81548160ff021916908360ff1602179055508080610e3e90611e9b565b915050610dc4565b507fdcb2893ac8d49d1e4863703a25298c680a0bcd0d5e61b4342b2e57bb7097705c6003604051610e779190612d8c565b60405180910390a1610e87611176565b505050565b600260009054906101000a900473ffffffffffffffffffffffffffffffffffffffff1673ffffffffffffffffffffffffffffffffffffffff16639b1c385e6040518060c0016040528060085481526020016009548152602001600a60049054906101000a900461ffff1661ffff168152602001600a60009054906101000a900463ffffffff1663ffffffff168152602001600a60069054906101000a900463ffffffff1663ffffffff168152602001610f5460405180602001604052808715158152506114df565b8152506040518263ffffffff1660e01b8152600401610f739190612eeb565b6020604051808303816000875af1158015610f92573d6000803e3d6000fd5b505050506040513d601f19601f82011682018060405250810190610fb69190612f22565b5050565b60008054906101000a900473ffffffffffffffffffffffffffffffffffffffff1673ffffffffffffffffffffffffffffffffffffffff163373ffffffffffffffffffffffffffffffffffffffff1614611048576040517f08c379a000000000000000000000000000000000000000000000000000000000815260040161103f90612f9b565b60405180910390fd5b565b3373ffffffffffffffffffffffffffffffffffffffff168173ffffffffffffffffffffffffffffffffffffffff16036110b8576040517f08c379a00000000000000000000000000000000000000000000000000000000081526004016110af90613007565b60405180910390fd5b80600160006101000a81548173ffffffffffffffffffffffffffffffffffffffff021916908373ffffffffffffffffffffffffffffffffffffffff1602179055508073ffffffffffffffffffffffffffffffffffffffff1660008054906101000a900473ffffffffffffffffffffffffffffffffffffffff1673ffffffffffffffffffffffffffffffffffffffff167fed8889f560326eb138920d842192f0eb3dd22b4f139c87a2c57538e05bae127860405160405180910390a350565b600047905060006064600a8361118c9190613027565b6111969190613069565b90506111a06109e7565b73ffffffffffffffffffffffffffffffffffffffff166108fc829081150290604051600060405180830381858888f193505050501580156111e5573d6000803e3d6000fd5b50600081836111f4919061309a565b90506111fe611700565b60005b6006805490508110156112e757600061129f6006838154811061122757611226611e00565b5b9060005260206000209060020201600101600780602002604051908101604052809291908260078015611295576020028201916000905b82829054906101000a900460ff1660ff168152602001906001019060208260000104928301926001038202915080841161125e5790505b5050505050611577565b9050600281106112d3578281600881106112bc576112bb611e00565b5b6020020180518091906112ce90611e9b565b815250505b5080806112df90611e9b565b915050611201565b5060005b6006805490508110156114af5760006113896006838154811061131157611310611e00565b5b906000526020600020906002020160010160078060200260405190810160405280929190826007801561137f576020028201916000905b82829054906101000a900460ff1660ff16815260200190600101906020826000010492830192600103820291508084116113485790505b5050505050611577565b9050600281101580156113b3575060008382600881106113ac576113ab611e00565b5b6020020151115b1561149b5760008382600881106113cd576113cc611e00565b5b602002015160646113dd846115ff565b876113e89190613027565b6113f29190613069565b6113fc9190613069565b905080600760006006868154811061141757611416611e00565b5b906000526020600020906002020160000160009054906101000a900473ffffffffffffffffffffffffffffffffffffffff1673ffffffffffffffffffffffffffffffffffffffff1673ffffffffffffffffffffffffffffffffffffffff16815260200190815260200160002060008282546114929190611dcc565b92505081905550505b5080806114a790611e9b565b9150506112eb565b50600660006114be9190611723565b6000600560006101000a81548160ff02191690831515021790555050505050565b60607f92fd13387c7fe7befbc38d303d6468778fb9731bc4583f17d92989c6fcfdeaaa8260405160240161151391906130f9565b604051602081830303815290604052907bffffffffffffffffffffffffffffffffffffffffffffffffffffffff19166020820180517bffffffffffffffffffffffffffffffffffffffffffffffffffffffff83818316178352505050509050919050565b60008060005b60078110156115f5576003816007811061159a57611599611e00565b5b602091828204019190069054906101000a900460ff1660ff168482600781106115c6576115c5611e00565b5b602002015160ff16036115e25781806115de90611e9b565b9250505b80806115ed90611e9b565b91505061157d565b5080915050919050565b600080604051806101000160405280600081526020016000815260200160058152602001600a8152602001600f81526020016014815260200160148152602001601e815250905080836008811061165957611658611e00565b5b6020020151915050919050565b826007601f016020900481019282156116ef5791602002820160005b838211156116c057835183826101000a81548160ff021916908360ff1602179055509260200192600101602081600001049283019260010302611682565b80156116ed5782816101000a81549060ff02191690556001016020816000010492830192600103026116c0565b505b5090506116fc9190611747565b5090565b604051806101000160405280600890602082028036833780820191505090505090565b50805460008255600202906000526020600020908101906117449190611764565b50565b5b80821115611760576000816000905550600101611748565b5090565b5b808211156117ae57600080820160006101000a81549073ffffffffffffffffffffffffffffffffffffffff02191690556001820160006117a591906117b2565b50600201611765565b5090565b5060009055565b6000819050919050565b6117cc816117b9565b82525050565b60006020820190506117e760008301846117c3565b92915050565b6000604051905090565b600080fd5b600080fd5b61180a816117b9565b811461181557600080fd5b50565b60008135905061182781611801565b92915050565b600080fd5b600080fd5b600080fd5b60008083601f8401126118525761185161182d565b5b8235905067ffffffffffffffff81111561186f5761186e611832565b5b60208301915083602082028301111561188b5761188a611837565b5b9250929050565b6000806000604084860312156118ab576118aa6117f7565b5b60006118b986828701611818565b935050602084013567ffffffffffffffff8111156118da576118d96117fc565b5b6118e68682870161183c565b92509250509250925092565b600063ffffffff82169050919050565b61190b816118f2565b82525050565b60006020820190506119266000830184611902565b92915050565b600073ffffffffffffffffffffffffffffffffffffffff82169050919050565b60006119578261192c565b9050919050565b6119678161194c565b811461197257600080fd5b50565b6000813590506119848161195e565b92915050565b6000602082840312156119a05761199f6117f7565b5b60006119ae84828501611975565b91505092915050565b6000601f19601f8301169050919050565b7f4e487b7100000000000000000000000000000000000000000000000000000000600052604160045260246000fd5b611a00826119b7565b810181811067ffffffffffffffff82111715611a1f57611a1e6119c8565b5b80604052505050565b6000611a326117ed565b9050611a3e82826119f7565b919050565b600067ffffffffffffffff821115611a5e57611a5d6119c8565b5b602082029050919050565b600060ff82169050919050565b611a7f81611a69565b8114611a8a57600080fd5b50565b600081359050611a9c81611a76565b92915050565b6000611ab5611ab084611a43565b611a28565b90508060208402830185811115611acf57611ace611837565b5b835b81811015611af85780611ae48882611a8d565b845260208401935050602081019050611ad1565b5050509392505050565b600082601f830112611b1757611b1661182d565b5b6007611b24848285611aa2565b91505092915050565b600060e08284031215611b4357611b426117f7565b5b6000611b5184828501611b02565b91505092915050565b600060208284031215611b7057611b6f6117f7565b5b6000611b7e84828501611818565b91505092915050565b611b9081611a69565b82525050565b6000602082019050611bab6000830184611b87565b92915050565b611bba8161194c565b82525050565b6000602082019050611bd56000830184611bb1565b92915050565b6000819050919050565b611bee81611bdb565b82525050565b6000602082019050611c096000830184611be5565b92915050565b6000819050919050565b6000611c34611c2f611c2a8461192c565b611c0f565b61192c565b9050919050565b6000611c4682611c19565b9050919050565b6000611c5882611c3b565b9050919050565b611c6881611c4d565b82525050565b6000602082019050611c836000830184611c5f565b92915050565b600061ffff82169050919050565b611ca081611c89565b82525050565b6000602082019050611cbb6000830184611c97565b92915050565b60008115159050919050565b611cd681611cc1565b82525050565b6000602082019050611cf16000830184611ccd565b92915050565b6000604082019050611d0c6000830185611bb1565b611d196020830184611bb1565b9392505050565b600082825260208201905092915050565b7f57726f6e67206665650000000000000000000000000000000000000000000000600082015250565b6000611d67600983611d20565b9150611d7282611d31565b602082019050919050565b60006020820190508181036000830152611d9681611d5a565b9050919050565b7f4e487b7100000000000000000000000000000000000000000000000000000000600052601160045260246000fd5b6000611dd7826117b9565b9150611de2836117b9565b9250828201905080821115611dfa57611df9611d9d565b5b92915050565b7f4e487b7100000000000000000000000000000000000000000000000000000000600052603260045260246000fd5b7f496e76616c6964206e756d626572000000000000000000000000000000000000600082015250565b6000611e65600e83611d20565b9150611e7082611e2f565b602082019050919050565b60006020820190508181036000830152611e9481611e58565b9050919050565b6000611ea6826117b9565b91507fffffffffffffffffffffffffffffffffffffffffffffffffffffffffffffffff8203611ed857611ed7611d9d565b5b600182019050919050565b7f4d7573742062652070726f706f736564206f776e657200000000000000000000600082015250565b6000611f19601683611d20565b9150611f2482611ee3565b602082019050919050565b60006020820190508181036000830152611f4881611f0c565b9050919050565b6000606082019050611f646000830186611bb1565b611f716020830185611bb1565b611f7e6040830184611bb1565b949350505050565b7f4e6f207265776172640000000000000000000000000000000000000000000000600082015250565b6000611fbc600983611d20565b9150611fc782611f86565b602082019050919050565b60006020820190508181036000830152611feb81611faf565b9050919050565b7f4e487b7100000000000000000000000000000000000000000000000000000000600052601260045260246000fd5b600061202c826117b9565b9150612037836117b9565b92508261204757612046611ff2565b5b828206905092915050565b600060079050919050565b600081905092915050565b6000819050919050565b61207b81611a69565b82525050565b60008160001c9050919050565b600060ff82169050919050565b60006120ae6120a983612081565b61208e565b9050919050565b60008160081c9050919050565b60006120d56120d0836120b5565b61208e565b9050919050565b60008160101c9050919050565b60006120fc6120f7836120dc565b61208e565b9050919050565b60008160181c9050919050565b600061212361211e83612103565b61208e565b9050919050565b60008160201c9050919050565b600061214a6121458361212a565b61208e565b9050919050565b60008160281c9050919050565b600061217161216c83612151565b61208e565b9050919050565b60008160301c9050919050565b600061219861219383612178565b61208e565b9050919050565b60008160381c9050919050565b60006121bf6121ba8361219f565b61208e565b9050919050565b60008160401c9050919050565b60006121e66121e1836121c6565b61208e565b9050919050565b60008160481c9050919050565b600061220d612208836121ed565b61208e565b9050919050565b60008160501c9050919050565b600061223461222f83612214565b61208e565b9050919050565b60008160581c9050919050565b600061225b6122568361223b565b61208e565b9050919050565b60008160601c9050919050565b600061228261227d83612262565b61208e565b9050919050565b60008160681c9050919050565b60006122a96122a483612289565b61208e565b9050919050565b60008160701c9050919050565b60006122d06122cb836122b0565b61208e565b9050919050565b60008160781c9050919050565b60006122f76122f2836122d7565b61208e565b9050919050565b60008160801c9050919050565b600061231e612319836122fe565b61208e565b9050919050565b60008160881c9050919050565b600061234561234083612325565b61208e565b9050919050565b60008160901c9050919050565b600061236c6123678361234c565b61208e565b9050919050565b60008160981c9050919050565b600061239361238e83612373565b61208e565b9050919050565b60008160a01c9050919050565b60006123ba6123b58361239a565b61208e565b9050919050565b60008160a81c9050919050565b60006123e16123dc836123c1565b61208e565b9050919050565b60008160b01c9050919050565b6000612408612403836123e8565b61208e565b9050919050565b60008160b81c9050919050565b600061242f61242a8361240f565b61208e565b9050919050565b60008160c01c9050919050565b600061245661245183612436565b61208e565b9050919050565b60008160c81c9050919050565b600061247d6124788361245d565b61208e565b9050919050565b60008160d01c9050919050565b60006124a461249f83612484565b61208e565b9050919050565b60008160d81c9050919050565b60006124cb6124c6836124ab565b61208e565b9050919050565b60008160e01c9050919050565b60006124f26124ed836124d2565b61208e565b9050919050565b60008160e81c9050919050565b6000612519612514836124f9565b61208e565b9050919050565b60008160f01c9050919050565b600061254061253b83612520565b61208e565b9050919050565b60008160f81c9050919050565b600061256761256283612547565b61208e565b9050919050565b61257781612052565b612581818461205d565b92508261258d83612068565b600080156128b9575b836001602003820110156128b85781546125b8876125b38361209b565b612072565b6020870196506125d0876125cb836120c2565b612072565b6020870196506125e8876125e3836120e9565b612072565b602087019650612600876125fb83612110565b612072565b6020870196506126188761261383612137565b612072565b6020870196506126308761262b8361215e565b612072565b6020870196506126488761264383612185565b612072565b6020870196506126608761265b836121ac565b612072565b60208701965061267887612673836121d3565b612072565b6020870196506126908761268b836121fa565b612072565b6020870196506126a8876126a383612221565b612072565b6020870196506126c0876126bb83612248565b612072565b6020870196506126d8876126d38361226f565b612072565b6020870196506126f0876126eb83612296565b612072565b60208701965061270887612703836122bd565b612072565b6020870196506127208761271b836122e4565b612072565b602087019650612738876127338361230b565b612072565b6020870196506127508761274b83612332565b612072565b6020870196506127688761276383612359565b612072565b6020870196506127808761277b83612380565b612072565b60208701965061279887612793836123a7565b612072565b6020870196506127b0876127ab836123ce565b612072565b6020870196506127c8876127c3836123f5565b612072565b6020870196506127e0876127db8361241c565b612072565b6020870196506127f8876127f383612443565b612072565b6020870196506128108761280b8361246a565b612072565b6020870196506128288761282383612491565b612072565b6020870196506128408761283b836124b8565b612072565b60208701965061285887612853836124df565b612072565b6020870196506128708761286b83612506565b612072565b602087019650612888876128838361252d565b612072565b6020870196506128a08761289b83612554565b612072565b60208701965060018301925050602081019050612596565b5b600115612d845781546001156128e8576128db876128d68361209b565b612072565b6020870196506001820191505b60011561290e57612901876128fc836120c2565b612072565b6020870196506001820191505b6001156129345761292787612922836120e9565b612072565b6020870196506001820191505b60011561295a5761294d8761294883612110565b612072565b6020870196506001820191505b600115612980576129738761296e83612137565b612072565b6020870196506001820191505b6001156129a657612999876129948361215e565b612072565b6020870196506001820191505b6001156129cc576129bf876129ba83612185565b612072565b6020870196506001820191505b6000156129f2576129e5876129e0836121ac565b612072565b6020870196506001820191505b600015612a1857612a0b87612a06836121d3565b612072565b6020870196506001820191505b600015612a3e57612a3187612a2c836121fa565b612072565b6020870196506001820191505b600015612a6457612a5787612a5283612221565b612072565b6020870196506001820191505b600015612a8a57612a7d87612a7883612248565b612072565b6020870196506001820191505b600015612ab057612aa387612a9e8361226f565b612072565b6020870196506001820191505b600015612ad657612ac987612ac483612296565b612072565b6020870196506001820191505b600015612afc57612aef87612aea836122bd565b612072565b6020870196506001820191505b600015612b2257612b1587612b10836122e4565b612072565b6020870196506001820191505b600015612b4857612b3b87612b368361230b565b612072565b6020870196506001820191505b600015612b6e57612b6187612b5c83612332565b612072565b6020870196506001820191505b600015612b9457612b8787612b8283612359565b612072565b6020870196506001820191505b600015612bba57612bad87612ba883612380565b612072565b6020870196506001820191505b600015612be057612bd387612bce836123a7565b612072565b6020870196506001820191505b600015612c0657612bf987612bf4836123ce565b612072565b6020870196506001820191505b600015612c2c57612c1f87612c1a836123f5565b612072565b6020870196506001820191505b600015612c5257612c4587612c408361241c565b612072565b6020870196506001820191505b600015612c7857612c6b87612c6683612443565b612072565b6020870196506001820191505b600015612c9e57612c9187612c8c8361246a565b612072565b6020870196506001820191505b600015612cc457612cb787612cb283612491565b612072565b6020870196506001820191505b600015612cea57612cdd87612cd8836124b8565b612072565b6020870196506001820191505b600015612d1057612d0387612cfe836124df565b612072565b6020870196506001820191505b600015612d3657612d2987612d2483612506565b612072565b6020870196506001820191505b600015612d5c57612d4f87612d4a8361252d565b612072565b6020870196506001820191505b600015612d8257612d7587612d7083612554565b612072565b6020870196506001820191505b505b505050505050565b600060e082019050612da1600083018461256e565b92915050565b612db081611bdb565b82525050565b612dbf816117b9565b82525050565b612dce81611c89565b82525050565b612ddd816118f2565b82525050565b600081519050919050565b600082825260208201905092915050565b60005b83811015612e1d578082015181840152602081019050612e02565b60008484015250505050565b6000612e3482612de3565b612e3e8185612dee565b9350612e4e818560208601612dff565b612e57816119b7565b840191505092915050565b600060c083016000830151612e7a6000860182612da7565b506020830151612e8d6020860182612db6565b506040830151612ea06040860182612dc5565b506060830151612eb36060860182612dd4565b506080830151612ec66080860182612dd4565b5060a083015184820360a0860152612ede8282612e29565b9150508091505092915050565b60006020820190508181036000830152612f058184612e62565b905092915050565b600081519050612f1c81611801565b92915050565b600060208284031215612f3857612f376117f7565b5b6000612f4684828501612f0d565b91505092915050565b7f4f6e6c792063616c6c61626c65206279206f776e657200000000000000000000600082015250565b6000612f85601683611d20565b9150612f9082612f4f565b602082019050919050565b60006020820190508181036000830152612fb481612f78565b9050919050565b7f43616e6e6f74207472616e7366657220746f2073656c66000000000000000000600082015250565b6000612ff1601783611d20565b9150612ffc82612fbb565b602082019050919050565b6000602082019050818103600083015261302081612fe4565b9050919050565b6000613032826117b9565b915061303d836117b9565b925082820261304b816117b9565b9150828204841483151761306257613061611d9d565b5b5092915050565b6000613074826117b9565b915061307f836117b9565b92508261308f5761308e611ff2565b5b828204905092915050565b60006130a5826117b9565b91506130b0836117b9565b92508282039050818111156130c8576130c7611d9d565b5b92915050565b6130d781611cc1565b82525050565b6020820160008201516130f360008501826130ce565b50505050565b600060208201905061310e60008301846130dd565b9291505056fea26469706673582212209b16ae57c01ba63d8a7e0b76d4598da8a8ea7c69974ff14b4135a8b66992817264736f6c63430008140033",
  "linkReferences": {},
  "deployedLinkReferences": {}
}